:020000002428B2
:100008007E14803120007F08F3008B1A0B1D0D2809
:1000180084230B1F16282100111E16282000111EEC
:100028001628B6220B1F1F282100911E1F2820000A
:10003800911E1F28252373082000FF007E10090049
:100048002528EE23DD00F601F701F801F90120303B
:100058008400003085002430D7237E102000342807
:10006800D023EB30F4000330F500DD238B170B179A
:10007800023040232000D40132305402031859289A
:100088000530D2000F30D100F430D000D00B4A2810
:10009800D10B4A28D20B4A2801302000D000500842
:1000A800D40732305402031C442803304023200074
:1000B800D50132305502031876280530D2000F30AA
:1000C800D100F430D000D00B6728D10B6728D20BB1
:1000D800672801302000D0005008D507323055027B
:1000E800031C6128003040232000D601323056021C
:1000F800031893280530D2000F30D100F430D00017
:10010800D00B8428D10B8428D20B842801302000FE
:10011800D0005008D60732305602031C7E28013022
:1001280040232000D701323057020318B028053089
:10013800D2000F30D100F430D000D00BA128D10B61
:10014800A128D20BA12801302000D0005008D707E1
:1001580032305702031C9B2800304023982320008C
:1001680038080319B3283803031DBC280330C228F4
:10017800023020003806031DC32802304023C3285C
:100188000530D2000F30D100F430D000D00BCA288F
:10019800D10BCA28D20BCA2801302000D000500841
:1001A800D80732305802031CC4282F222000D3015C
:1001B800D30A0030F400F500D32268302000D100C3
:1001C800E430D000D00BE628D10BE62800006B30D5
:1001D800F4000330F500D3222000D901323059024F
:1001E80003180B290530D2000F30D100F430D000AD
:1001F800D00BFC28D10BFC28D20BFC2801302000A6
:10020800D0005008D90732305902031CF6282000C4
:100218005303031D14290130DB070030DC3D182986
:100228000130DB020030DC3B01305C022D30031969
:100238005B02031C2129D30155295B085C04031DBB
:100248005529D301D30AFF30F4000330F500D32237
:100258002000DA0132305A02031847290530D2004B
:100268000F30D100F430D000D00B3829D10B382909
:10027800D20B382901302000D0005008DA0732307C
:100288005A02031C32290030F400F500D3226830EA
:100298002000D100E430D000D00B5029D10B5029D8
:1002A8000000003020005C02943003195B02031840
:1002B80061297830F40003306E2920005B09D000F2
:1002C8005C09D100D00A0319D10A5008FF3EF40096
:1002D8000330513DF500D32203302000D20008300E
:1002E800D1007830D000D00B7729D10B7729D20BE9
:1002F80077290B29003020000C1A0130F2003C0845
:10030800031DAB297208F000F10177087106031D7F
:100318008F297608700603199A29B9017208F00026
:10032800F1017008F6007108F700080076037704F9
:10033800031D08000130F0007008B9070B303902BE
:10034800031C08000130F0007008BC0008007208A7
:10035800F000F10177087106031DB42976087006CC
:100368000319C329BA017208F000F1017008F600F8
:100378007108F7000130F0007008BB000800760330
:100388007704031DCF293B08031DCF290130F00056
:100398007008B907080076087704031D08000130C3
:1003A800F0007008BA070B303A02031C08006430EA
:1003B8003902031CE4290230F0007008B800080074
:1003C8000130F0007008B8000800243450344D346F
:1003D80054344B343334313434342C3430342C34B6
:1003E80030342C3431342C3430342C3430342C34F4
:1003F80030342C3430342C3430342C3430342C34E5
:1004080030342C3430342C3430342C3430342C34D4
:1004180030342C3430342C3430342C3430342C34C4
:1004280030342C3430342A34323439340D340A34EC
:100438000034243450344D3454344B343234323450
:1004480030342C343134303430342A343234463475
:100458000D340A3400342000CF010A304F0203184B
:100468004A2A0530CE000F30CD00F430CC00CC0B3A
:100478003B2ACD0B3B2ACE0B3B2A01302000CC0077
:100488004C08CF070A304F02031C352AE930C50053
:100498008130C6000A2305302000CE000F30CD0081
:1004A800F430CC00CC0B562ACD0B562ACE0B562A4C
:1004B8001D302000C5008230C6000A230530200008
:1004C800CE000F30CD00F430CC00CC0B692ACD0B18
:1004D800692ACE0B692A0800023020005D06031D38
:1004E800822A0130F0007008B70764303702031C15
:1004F8000800B701203022008C06080003302000D5
:100508005D06031D08000130F0007008B70732309F
:100518003702031C0800B701203022008C060800AF
:10052800F50079080319952A2100111A9F2A7508E0
:1005380023009A00B32A11127508F400200040081D
:10054800283E86008701740881000130F400740891
:10055800C007083040020318C0010130F902210029
:1005680011160800083079020318D02A2000410823
:10057800283E86008701010823009A000130F00018
:1005880070082000C107083041020318C10101307A
:10059800F0007008F907080021001112080075081A
:1005A8002000C5007408C400C536C40CC536C40C88
:1005B800440825009100740803392000C400043061
:1005C800C435890BE42A25001308CF3920004404D8
:1005D8002500930008002100911211120830230011
:1005E8009F0090309D0024309E0040309B000330D7
:1005F8009C002000C001C1010830F4007408F90013
:10060800BE01BF01F8012100911608004730200003
:10061800C7004708CA0020004608C8004508C700A8
:10062800C50A0319C60A4708840048088500000857
:10063800C9004908CB004B08031908004B08E323FD
:100648000F2B23009D1C2A2B9D139D171908F000C2
:1006580020003E08203E8600870170088100013096
:10066800F0007008BE0708303E020318BE010130D2
:10067800F0007008F8070800F4007403031D472B06
:1006880022008C1208007408031D4D2B22008C16C2
:100698000800023074060319552B03307406031D35
:1006A800080022008C162000B701080022008C01E7
:1006B8008E01073023008C000F308E003F3024005D
:1006C8008C003F308E00373021008E001F308C00A8
:1006D800951322009D01080021001508C03917381C
:1006E80095006430200095006430C4004408C300BD
:1006F8000B118B16EF30F4000330F500DD230800F2
:100708000B112000430895000130B3070030B43DB9
:1007180000303402023003193302031C0800B423EA
:100728002000B301B401080020000C0E0139F400C8
:10073800F5017408F6007508F700B901BA01B801A7
:10074800BC01BD01BB0108003C30250093009501A8
:1007580080309400043096007F30910092010800A8
:100768002000350836040319080036088A003508C1
:100778000A0083310800023020009C00FF309B00F3
:100788009A019110E82308007030210099009A011D
:1007980098011A1B0800CD2B5A23C823A823BF236E
:1007A8007023EF220800640080010131890BD82BE7
:1007B800003475082000B6007408B5000800200051
:1007C800C40044089422080020001C150800702268
:0807D8007E2108000134080035
:020000040001F9
:04000E00E4FFFFDF2D
:00000001FF
