:020000002428B2
:100008007E14803120007F08F9008B1A0B1D0D2803
:10001800B6240B1F16282100111E16282000111EB9
:10002800162802240B1F1F282100911E1F282000BC
:10003800911E1F28712479082000FF007E100900F6
:1000480025281C25DD00F001F101F201F301F4017E
:100058002030840000308500243005257E102000E3
:1000680081292000CF01CE01D00124305006031988
:1000780046283D0803193928C0232000C600460831
:10008800D00039283D0803194628C0232000C6009F
:100098004608D0005008C6004608CE062C30500648
:1000A800031968285008C6004F08483E8600870193
:1000B800460881000130C6004608CF0706304F02C7
:1000C800031C46280030080047304806031D7C28DA
:1000D80050304906031D7C2856304A06031D7C28EB
:1000E80054304B06031D7C2847304C0603197E28E4
:1000F80000300800CF013D0803197F28C0232000E5
:10010800C6004608D0005008C6004608CE062C3067
:100118005006031D7F283D0803198F28C02320009F
:10012800C6004608D0005008C6004608CE062C3047
:1001380050060319B1285008C6004F08483E8600EB
:100148008701460881000130C6004608CF070630FF
:100158004F02031C8F28003008005430480603194A
:100168004F030319B92800300800CF013D080319CF
:10017800BA28C0232000C6004608D0005008C60090
:100188004608CE062C305006031DBA283D08031930
:10019800CA28C0232000C6004608D0005008C60060
:1001A8004608CE062C3050060319EC285008C60025
:1001B8004F08483E86008701460881000130C60086
:1001C8004608CF0706304F02031CCA280030080033
:1001D8004D30480603194F030319F428003008006E
:1001E800CF013D080319F528C0232000C6004608A2
:1001F800D0005008C6004608CE062C305006031D15
:10020800F5283D0803190529C0232000C600460823
:10021800D0005008C6004608CE062C3050060319F8
:1002280027295008C6004F08483E8600870146081F
:1002380081000130C6004608CF0706304F02031C74
:100248000529003008004E30480603194F030319EA
:100258002F2900300800CF013D0803193029C02399
:100268002000C6004608D0005008C6004608CE0642
:100278002C305006031952295008C6004F08483E32
:1002880086008701460881000130C6004608CF076E
:1002980006304F02031C302900300800C701CF0187
:1002A8003D0803195429C0232000C6004608D00081
:1002B8005008C6004608CE062C3050060319762989
:1002C8005008C6004F08483E86008701460881004E
:1002D8000130C6004608CF0706304F02031C5429D8
:1002E800003008004B30480603194F0303197E29D4
:1002F80000300800CF0101300800FE24193020002A
:10030800C4000530C5000B258B170B170430E223FA
:1003180022008C122000D7011E3057020318A92989
:100328000530D4000F30D300F430D200D20B9A2914
:10033800D30B9A29D40B9A2901302000D2005208F5
:10034800D7071E305702031C942933233520200079
:10035800D2005208D50055080319BE2922008C1670
:10036800D0302000D300C930D200D20BB929D30B2A
:10037800B929003222008C12AA290530D4000F3086
:10038800D300F430D200D20BC729D30BC729D40B22
:10039800C72901302000D2005208D807323058024D
:1003A800031CC129D601D60A0030C400C5001F2489
:1003B80068302000D300E430D200D20BE129D30BFF
:1003C800E12900006B302000C4000330C5001F2461
:1003D8002000D901323059020318072A0530D40009
:1003E8000F30D300F430D200D20BF829D30BF82900
:1003F800D40BF82901302000D2005208D907323036
:100408005902031CF22920005603031D102A01304B
:10041800DB070030DC3D142A0130DB020030DC3B16
:1004280001305C022D3003195B02031C1D2AD60122
:10043800512A5B085C04031D512AD601D60AFF30F5
:10044800C4000330C5001F242000DA0132305A02EC
:100458000318432A0530D4000F30D300F430D200FB
:10046800D20B342AD30B342AD40B342A013020007F
:10047800D2005208DA0732305A02031C2E2A003002
:10048800C400C5001F2468302000D300E430D20027
:10049800D20B4C2AD30B4C2A0000003020005C02FF
:1004A800943003195B0203185D2A7830C4000330C6
:1004B8006A2A20005B09D2005C09D300D20A03191A
:1004C800D30A5208FF3EC4000330533DC5001F2421
:1004D80003302000D4000830D3007830D200D20B8B
:1004E800732AD30B732AD40B732A072AD624F6004F
:1004F8007608F80020003B08031DA72A7808F600B4
:10050800F70171087706031D8B2A70087606031910
:10051800962AF3017808F600F7017608F0007708C4
:10052800F100080070037104031D08000130F60093
:100538007608F30706307302031C08000130F60042
:100548007608BB0008007808F600F70171087706FE
:10055800031DB02A700876060319BF2AB901780866
:10056800F600F7017608F0007708F1000130F60090
:100578007608BA00080070037104031DD32A3A08EC
:10058800031DD32A0130F6007608F307643073029E
:10059800031C08000230F6007608B800080070084E
:1005A8007104031D08000130F6007608B9070B3006
:1005B8003902031C08004B307302031CE82A02307E
:1005C800F6007608B80008000130F6007608B80092
:1005D8000800243450344D3454344B3433343134DB
:1005E80034342C3430342C3430342C3431342C34EE
:1005F80030342C3430342C3430342C3430342C34E3
:1006080030342C3430342C3430342C3430342C34D2
:1006180030342C3430342C3430342C3430342C34C2
:1006280030342C3430342C3430342C3430342A34B4
:10063800323439340D340A340034243450344D34CF
:1006480054344B343234323430342C343134303442
:1006580030342A34323446340D340A34003420001D
:10066800D1010A30510203184E2B0530D0000F304B
:10067800CF00F430CE00CE0B3F2BCF0B3F2BD00B4F
:100688003F2B01302000CE004E08D1070A3051021E
:10069800031C392BED30C7008230C80056240530C2
:1006A8002000D0000F30CF00F430CE00CE0B5A2BF4
:1006B800CF0B5A2BD00B5A2B21302000C700833088
:1006C800C800562405302000D0000F30CF00F43089
:1006D800CE00CE0B6D2BCF0B6D2BD00B6D2B0800E6
:1006E800043020005D060319080002305D06031D72
:1006F8008A2B0130F5007508F20755307202031C89
:100708000800F201203022008C0608000330200087
:100718005D06031D08000130F5007508F207143066
:100728007202031C0800F201203022008C06080027
:100738002000C500740803199E2B2100111AA92B4B
:100748002000450823009A00BD2B111220004508FF
:10075800C4004008283E8600870144088100013013
:10076800C4004408C007083040020318C001013023
:10077800F4022100111608002000C50123009D166F
:1007880020003D080319C42B2100911220003F08C6
:10079800203E860087010108C4004408C5000130D6
:1007A800C4004408BF0708303F020318BF010130E6
:1007B800BD02210091162000450808002000C50050
:1007C8004508C4004408DD004503031DEE2B220044
:1007D8008C12080020004508031DF52B22008C16FA
:1007E80008000230200045060319FE2B0330450699
:1007F800031D080022008C16F2010800083074025C
:1008080003181C2C20004108283E86008701010897
:1008180023009A000130F50075082000C107083050
:1008280041020318C1010130F5007508F4070800FA
:1008380021001112080020004508C7004408C6001E
:10084800C736C60CC736C60C4608250091002000DE
:1008580044080339C6000430C635890B302C2500FE
:100868001308CF3920004604250093000800210012
:1008780091121112083023009F0090309D002430FF
:100888009E0040309B0003309C002000C001C10145
:100898000830C4004408F400BE01BF01BD012100B6
:1008A8009116080049302000C9004908CC002000F2
:1008B8004808CA004708C900C70A0319C80A4908EE
:1008C80084004A0885000008CB004B08CD004D087D
:1008D800031908004D0811255B2C23009D1C762C5C
:1008E8009D139D171908F50020003E08203E86003C
:1008F8008701750881000130F5007508BE070830CA
:100908003E020318BE010130F5007508BD07080056
:1009180022008C018E01073023008C000F308E00DE
:100928003F3024008C003F308E00373021008E008D
:100938001F308C00951322009D0108002100150826
:10094800C039173895006430200095006430C6001F
:100958004608C3000B118B161D30C4000530C500B6
:100968000B2508000B112000430895000130B00743
:100978000030B13D00303102023003193002031C4F
:100988000800E2242000B001B10108003C30250035
:100998009300950180309400043096007F309100D8
:1009A80092010800003020000C1A0130F500750390
:1009B800031DE02C00300800013008002000320838
:1009C80033040319080033088A0032080A00843106
:1009D8000800023020009C00FF309B009A01911013
:1009E800162508007030210099009A0198011A1BF9
:1009F8000800FB2C8C24F624CA24ED24A2243B24D2
:100A08000800640080010131890B062D00342000A4
:100A18004508B3004408B20008002000C600460894
:100A28009C23080020001C15080074237A22080063
:040A3800013408007D
:020000040001F9
:04000E00E4FFFFDF2D
:00000001FF
