:020000002428B2
:100008007E14803120007F08F1008B1A0B1D0D280B
:1000180040240B1F16282100111E16282000111E2F
:100028001628D6230B1F1F282100911E1F282000E9
:10003800911E1F280E2471082000FF007E10090061
:1000480025286C24DF00FA01FB01203084000030F1
:10005800850027305F247E1020007E292000CF01F4
:10006800C801D00124305006031943287B0803191E
:100078003628B723F40074082000D00036287B08FF
:1000880003194328B723F40074082000D00050084F
:10009800F4007408C8062C30500603196528500867
:1000A800F4004F08493E860087017408810001303A
:1000B800F4007408CF0706304F02031C43280030B1
:1000C800080047304906031D792850304A06031DA9
:1000D800792856304B06031D792854304C06031DE9
:1000E800792847304D0603197B2800300800CF01D6
:1000F8007B0803197C28B723F40074082000D0007B
:100108005008F4007408C8062C305006031D7C28DB
:100118007B0803198C28B723F40074082000D0004A
:100128005008F4007408C8062C3050060319AE288D
:100138005008F4004F08493E860087017408810082
:100148000130F4007408CF0706304F02031C8C28D6
:10015800003008005430490603194F030319B62824
:1001680000300800CF017B080319B728B723F40033
:1001780074082000D0005008F4007408C8062C3019
:100188005006031DB7287B080319C728B723F400B6
:1001980074082000D0005008F4007408C8062C30F9
:1001A80050060319E9285008F4004F08493E860014
:1001B8008701740881000130F4007408CF07063005
:1001C8004F02031CC728003008004D3049060319A8
:1001D8004F030319F12800300800CF017B080319E9
:1001E800F228B723F40074082000D0005008F40067
:1001F8007408C8062C305006031DF2287B08031922
:100208000229B723F40074082000D0005008F40035
:100218007408C8062C305006031924295008F40025
:100228004F08493E86008701740881000130F400B8
:100238007408CF0706304F02031C0229003008005B
:100248004E30490603194F0303192C2900300800C2
:10025800CF017B0803192D29B723F4007408200067
:10026800D0005008F4007408C8062C305006031952
:100278004F295008F4004F08493E8600870174084A
:1002880081000130F4007408CF0706304F02031CC8
:100298002D2900300800C701CF017B080319512917
:1002A800B723F40074082000D0005008F400740844
:1002B800C8062C305006031973295008F4004F085B
:1002C800493E86008701740881000130F4007408F3
:1002D800CF0706304F02031C5129003008004B306D
:1002E800490603194F0303197B2900300800CF0181
:1002F800013008001730F2000030F300DB30F40062
:100308001A30F500812273082000D5007208D40045
:100318006B30D1005108D6008B170B170430982387
:1003280022008C122000D9011E3059020318B1296D
:100338000530D3000F30D200F430D100D10BA22900
:10034800D20BA229D30BA22901302000D1005108D9
:10035800D9071E305902031C9C293523322020005E
:10036800D1005108D70057080319C62922008C1656
:10037800D0302000D200C930D100D10BC129D20B16
:10038800C129003222008C12B2290530D3000F3067
:10039800D200F430D100D10BCF29D20BCF29D30B07
:1003A800CF2901302000D1005108DA0732305A0233
:1003B800031CC929D801D80A0030F200F300292407
:1003C80068302000D200E430D100D10BE929D20BEB
:1003D800E92900006B30F2000330F30029242000E3
:1003E800DB0132305B0203180E2A0530D3000F30D0
:1003F800D200F430D100D10BFF29D20BFF29D30B47
:10040800FF2901302000D1005108DB0732305B02A0
:10041800031CF92920005803031D172A0130DD07A2
:100428000030DE3D1B2A0130DD020030DE3B0130AA
:100438005E022D3003195D02031C242AD801582AB4
:100448005D085E04031D582AD801D80AFF30F2005F
:100458000330F30029242000DC0132305C02031849
:100468004A2A0530D3000F30D200F430D100D10B26
:100478003B2AD20B3B2AD30B3B2A01302000D10068
:100488005108DC0732305C02031C352A0030F200C8
:10049800F300292468302000D200E430D100D10BC9
:1004A800532AD20B532A0000003020005E029430F9
:1004B80003195D020318642A7830F2000330712AA8
:1004C80020005D09D1005E09D200D10A0319D20AC1
:1004D8005108FF3EF2000330523DF3002924033057
:1004E8002000D3000830D2007830D100D10B7A2A0E
:1004F800D20B7A2AD30B7A2A0E2A2000CC01CD01FE
:1005080040307302003003197202031C902A4D0810
:10051800F3004C08F20008007308CD007208CC0004
:100528004D08F7004C08F600F60EF70EF030F70508
:1005380076080F39F704F030F6057608CC0077080E
:10054800CD007508CA007408C900C701C801CB01ED
:1005580004304B020318E22A4935C9004A0DCA0083
:1005680027304A02103003194902031CDA2AED30F9
:10057800840082308500003FF600013FF7004B08F9
:10058800013EFF3A013E043E890ACC2AF635F70DB2
:10059800890BCA2A47087604C70048087704C800A8
:1005A8004908F03EC900D8304A3DCA000130F6007B
:1005B8007608CB0704304B02031CB02A47084C07C7
:1005C800CC0048084D3DCD004D08F3004C08F20022
:1005D800080001340034243450344D3454344B343E
:1005E8003334313434342C3430342C3430342C34E7
:1005F80031342C3430342C3430342C3430342C34E2
:1006080030342C3430342C3430342C3430342C34D2
:1006180030342C3430342C3430342C3430342C34C2
:1006280030342C3430342C3430342C3430342C34B2
:1006380030342A34323439340D340A340034243412
:1006480050344D3454344B343234323430342C3406
:100658003134303430342A34323446340D340A34A8
:1006680000342000CC010A304C020318502B05300E
:10067800CB000F30CA00F430C900C90B412BCA0B9C
:10068800412BCB0B412B01302000C9004908CC0776
:100698000A304C02031C3B2BEF30F5008230F60089
:1006A800F32305302000CB000F30CA00F430C90016
:1006B800C90B5C2BCA0B5C2BCB0B5C2B2330F500D6
:1006C8008330F600F32305302000CB000F30CA003A
:1006D800F430C900C90B6E2BCA0B6E2BCB0B6E2BDB
:1006E8000800F300200042080319762B2100111A94
:1006F800812B730823009A00952B11127308F200BE
:1007080020004308283E86008701720881000130D6
:10071800F2007208C307083043020318C30101300E
:10072800C202210011160800F3007308F2007208D3
:100738002000DF007303031DA42B22008C12080085
:100748007308031DAA2B22008C16080002307306BA
:100758000319B22B03307306031D080022008C1600
:100768002000BA010800F30123009D167B08031935
:10077800BA2B2100911220004108203E86008701F3
:100788000108F2007208F3000130F2007208C10794
:10079800083041020318C1010130FB022100911603
:1007A800730808000830200042020318F02B4408A0
:1007B800283E86008701010823009A000130F000D6
:1007C80070082000C407083044020318C40101302F
:1007D800F0007008C20708002100111208007730E5
:1007E800F70077082000C7007608F8007508F700BA
:1007F800F50A0319F60A77088400780885000008C6
:10080800F90079082000C8004808031908004808BA
:100818006524F82B23009D1C132C9D139D17190884
:10082800F00020004008203E860087017008810003
:100838000130F0007008C007083040020318C001FA
:100848000130F0007008FB0708007308F500720813
:10085800F400F536F40CF536F40C74082500910014
:1008680072080339F4000430F435890B382C130866
:10087800CF397404930008000B1120004608950036
:100888000130B0070030B13D0030310202300319A9
:100898003002031C080054242000B001B1010800F4
:1008A8002000320833040319080033088A0032088C
:1008B8000A0084310800640080010131890B602C32
:1008C8000034F40074087523080020001C15080083
:0408D80001340800DF
:020000040001F9
:04000E00E4FFFFDF2D
:00000001FF
