:020000002028B6
:100008007E14803120007F08F1000B1F1228210088
:10001800111E12282000111E1228A0210B1F1B28B8
:100028002100911E1B282000911E1B28F321710816
:100038002000FF007E1009002128FA01FB01203072
:10004800840000308500183058227E1020002C28AB
:100058005E228B170B172000C501C601FF30F20086
:100068000330F3000E2268222000C201323042021F
:10007800031853280530C0000F30BF00F430BE000D
:10008800BE0B4428BF0B4428C00B44280130200075
:10009800BE003E08C20732304202031C3E283E2101
:1000A8002000C101C10A0030F200F3000E226830BE
:1000B8002000BF00E430BE00BE0B6028BF0B6028E4
:1000C80000006B30F2000330F3000E222000C30161
:1000D80032304302031885280530C0000F30BF00B6
:1000E800F430BE00BE0B7628BF0B7628C00B7628EE
:1000F80001302000BE003E08C30732304302031C13
:10010800702820004103031D8E280130C5070030E8
:10011800C63D92280130C5020030C63B0130460278
:100128002D3003194502031C9B28C101CF2845081F
:100138004604031DCF28C101C10AFF30F200033075
:10014800F3000E222000C401323044020318C128F3
:100158000530C0000F30BF00F430BE00BE0BB2281F
:10016800BF0BB228C00BB22801302000BE003E08E9
:10017800C40732304402031CAC280030F200F300FC
:100188000E2268302000BF00E430BE00BE0BCA2833
:10019800BF0BCA2800000030200046029430031923
:1001A80045020318DB287830F2000330E8282000E5
:1001B8004509BE004609BF00BE0A0319BF0A3E082A
:1001C800FF3EF20003303F3DF3000E2203302000D3
:1001D800C0000830BF007830BE00BE0BF128BF0B4E
:1001E800F128C00BF1288528243450344D34543478
:1001F8004B343334313434342C3430342C343034BC
:100208002C3431342C3430342C3430342C343034D5
:100218002C3430342C3430342C3430342C343034C6
:100228002C3430342C3430342C3430342C343034B6
:100238002C3430342C3430342C3430342C343034A6
:100248002C3430342A34323439340D340A340034FE
:10025800243450344D3454344B3432343234303402
:100268002C343134303430342A34323446340D347A
:100278000A3400342000BD010A303D020318592910
:100288000530BC000F30BB00F430BA00BA0B4A2965
:10029800BB0B4A29BC0B4A2901302000BA003A0896
:1002A800BD070A303D02031C4429F830F5008030B0
:1002B800F600D82105302000BC000F30BB00F43018
:1002C800BA00BA0B6529BB0B6529BC0B65292C3014
:1002D800F5008130F600D82105302000BC000F3031
:1002E800BB00F430BA00BA0B7729BB0B7729BC0BDB
:1002F80077290800F3007B0803197F292100111AC8
:100308008929730823009A009D2911127308F200A5
:1003180020003508283E86008701720881000130D8
:10032800F2007208B507083035020318B50101302C
:10033800FB0221001116080008307B020318BA29B5
:1003480020003608283E86008701010823009A000D
:100358000130F00070082000B60708303602031894
:10036800B6010130F0007008FB07080021001112E7
:100378000800210091121112083023009F009030CC
:100388009D0024309E0040309B0003309C002000DC
:10039800B501B6010830F2007208FB00B301B401E0
:1003A800FA012100911608007730F700770820003D
:1003B800B8007608F8007508F700F50A0319F60A78
:1003C80077088400780885000008F900790820007B
:1003D800B90039080319080039086422DD29230007
:1003E8009D1CF8299D139D171908F000200033085B
:1003F800203E86008701700881000130F0007008F7
:10040800B307083033020318B3010130F000700855
:10041800FA0708007308F5007208F400F536F40CC2
:10042800F536F40C74082500910072080339F400BD
:100438000430F435890B1D2A1308CF39740493004E
:10044800080022008C018E01173023008C000F3029
:100458008E003F3024008C003F308E003730210062
:100468008E001F308C00951322009D0108003C303F
:1004780025009300950180309400043096007F3069
:10048800910092010800023020009C00FF309B0080
:100498009A019110682208007030210099009A0191
:1004A80098011A1B0800552A640080010131890B44
:1004B800592A0034252250223B224722BD21080018
:0E04C800F40074087E21080020001C150800B6
:020000040001F9
:04000E00E4FFFFDF2D
:00000001FF
