:020000002028B6
:100008007E14803120007F08F1000B1F1228210088
:10001800111E12282000111E122810210B1F1B2848
:100028002100911E1B282000911E1B2863217108A6
:100038002000FF007E1009002128FA01FB01203072
:100048008400003085001530AF217E102000B529CE
:10005800243450344D3454344B3433343134343400
:100068002C3430342C3430342C3431342C34303477
:100078002C3430342C3430342C3430342C34303468
:100088002C3430342C3430342C3430342C34303458
:100098002C3430342C3430342C3430342C34303448
:1000A8002C3430342C3430342C3430342A34323438
:1000B80039340D340A340034243450344D34543433
:1000C8004B343234323430342C34313430343034EC
:1000D8002A34323446340D340A3400342000BA014C
:1000E8000A303A0203188D280530B9000F30B800DD
:1000F800F430B700B70B7E28B80B7E28B90B7E28E2
:1001080001302000B7003708BA070A303A02031C4A
:1001180078282C30F5008030F6002D21053020009D
:10012800B9000F30B800F430B700B70B9928B80BF6
:100138009928B90B99286030F5008030F6002D21F8
:1001480005302000B9000F30B800F430B700B70B05
:10015800AB28B80BAB28B90BAB280800F3007B0819
:100168000319B3282100111ABD28730823009A0027
:10017800D12811127308F20020003308283E8600A7
:100188008701720881000130F2007208B307083055
:1001980033020318B3010130FB02210011160800D5
:1001A800F30123009D167A080319D728210091121C
:1001B80020003208203E860087010108F2007208FC
:1001C800F3000130F2007208B20708303202031857
:1001D800B2010130FA022100911673080800F701F4
:1001E8007708031D08007A08031DFD2822008C12D9
:1001F800F4287A080319F428D420F4007408F600C7
:1002080022008C160B30F5006230F400F40B0A293A
:10021800F50B0A290000F42808307B0203182A2964
:1002280020003408283E86008701010823009A0030
:100238000130F00070082000B407083034020318B9
:10024800B4010130F0007008FB070800210011120A
:1002580008007730F70077082000B5007608F80026
:100268007508F700F50A0319F60A77088400780874
:1002780085000008F90079082000B600360803193F
:1002880008003608C12132292100911211120830C4
:1002980023009F0090309D0024309E0040309B003A
:1002A80003309C002000B301B4010830F20072084A
:1002B800FB00B101B201FA012100911608002300E8
:1002C8009D1C68299D139D171908F000200031080E
:1002D800203E86008701700881000130F000700818
:1002E800B107083031020318B1010130F00070087D
:1002F800FA07080022008C018E01173023008C00B9
:100308000F308E003F3024008C003F308E00373095
:1003180021008E001F308C00951322009D010800DB
:100328003C302500930095018030940096017F3081
:1003380091009201080020009C01FF309B009A0167
:100348009110C52108007030210099009A01980188
:100358001A1B0800AC29640080010131890BB029FF
:100368000034BB218B170B177220F320B9297E218B
:10037800A72194219F2148210800F4007408B22085
:08038800080020001C1508000C
:020000040001F9
:04000E00E4FFFFDF2D
:00000001FF
