:020000002428B2
:100008007E14803120007F08F3008B1A0B1D0D2809
:100018004F250B1F16282100111E16282000111E1F
:10002800162879240B1F1F282100911E1F28200045
:10003800911E1F28042573082000FF007E10090068
:100048002528D025EF00F601F701F801F901643001
:100058008400003085000B30B925A03084000030C2
:1000680085001A30B9257E102000CF292000D8013C
:10007800D101D3015108031D6F28780803193E28C0
:10008800780803193E285A242000A4002408D50023
:1000980024305506031D5428D301D30AD8013E281D
:1000A800530803193E280D305506031D5E28D1015B
:1000B800D10A6A285508A4005808263E86008701F8
:1000C800240881000130A4002408D80729305802E8
:1000D80003183D283E28D901D601D701CF01D00108
:1000E8005908D90A263E8600870147300106031DB4
:1000F800CD295908D90A263E8600870150300106C5
:10010800031DCD295908D90A263E86008701563095
:100118000106031DCD295908D90A263E8600870104
:1001280054300106031DCD295908D90A263E8600F8
:100138008701473001060319A628CD290130A400FC
:100148002408D907580859020318B2285908263E26
:10015800860087012C300106031DA2285808590281
:10016800031CB828003008000130A4002408D9076F
:100178005908D90A263E860087015430010603191A
:10018800C728003008000130A4002408D9075808FF
:1001980059020318D7285908263E860087012C30B3
:1001A8000106031DC72858085902031CDD28003022
:1001B80008000130A4002408D9075908D90A263EA6
:1001C800860087014D3001060319EC28003008002D
:1001D8000130A4002408D907580859020318FC283C
:1001E8005908263E860087012C300106031DEC289D
:1001F80058085902031C0229003008000130A400E5
:100208002408D9075908D90A263E860087014E30A6
:10021800010603191129003008000130A400240840
:10022800D907D201D20A72295908263E86008701C9
:100238002E300106031D2229D2016E295908263EB7
:100248008600870130300102031C32295908263EF6
:10025800860087013A300102031C34290030080067
:100268005208031953295708A1005608A0000A305C
:10027800A2000030A300962420005908263E8600DC
:10028800870101082007A40021080318210AA500F6
:100298002408D03ED600FF30253DD7006E295708E8
:1002A800A1005608A0000A30A2000030A30096243E
:1002B80020005908263E8600870101082007A4006F
:1002C80021080318210AA5002408D03ECF00FF30DA
:1002D800253DD0000130A4002408D9075808590248
:1002E80003187E295908263E860087012C3001060E
:1002F800031D182958085902031C842900300800D6
:100308000130A4002408D9075908D90A263E8600D6
:1003180087014D3001060319932900300800013088
:10032800A4002408D907580859020318A329590812
:10033800263E860087012A300106031D93295808A6
:100348005902031CA92900300800CE01D40159081C
:1003580054020318BC295408263E86008701010868
:10036800A4002408CE060130A4002408D407AB2931
:1003780057082100B700200056082100B6002000C9
:1003880050082100B50020004F082100B4000130BA
:10039800080000300800B225CD30F4000530F50023
:1003A800BF258B170B17D3233A202000DA005A08F1
:1003B800DD00D8290530DC000F30DB00F430DA002E
:1003C800DA0BE429DB0BE429DC0BE42901302000FB
:1003D800DA005A08DF0732305F02031CDE290330D7
:1003E8001F252000E001323060020318102A053072
:1003F800DC000F30DB00F430DA00DA0B012ADB0B0B
:10040800012ADC0B012A01302000DA005A08E00733
:1004180032306002031CFB2900301F252000E10157
:100428003230610203182D2A0530DC000F30DB0062
:10043800F430DA00DA0B1E2ADB0B1E2ADC0B1E2A2C
:1004480001302000DA005A08E10732306102031C4B
:10045800182A01301F252000E201323062020318F9
:100468004A2A0530DC000F30DB00F430DA00DA0B02
:100478003B2ADB0B3B2ADC0B3B2A01302000DA004D
:100488005A08E20732306202031C352A00301F2561
:1004980078252000650803194D2A6503031D562A8F
:1004A80003305C2A023020006506031D5D2A0230F5
:1004B8001F255D2A0530DC000F30DB00F430DA0040
:1004C800DA0B642ADB0B642ADC0B642A0130200077
:1004D800DA005A08E30732306302031C5E2ADE01A1
:1004E800DE0A0030F400F500B22468302000DB009A
:1004F800E430DA00DA0B7E2ADB0B7E2A00006B3050
:10050800F4000330F500B2242100BA0132303A0277
:100518000318A52A05302000DC000F30DB00F4307A
:10052800DA00DA0B952ADB0B952ADC0B952A0130C9
:100538002000DA005A082100BA0732303A02031CB8
:100548008E2A20005E03031DAF2A01302100BC075C
:100558000030BD3DB42A01302100BC020030BD3B53
:1005680001303D022D3003193C02031CBE2A200035
:10057800DE01F62A21003C083D04031DF62A20006E
:10058800DE01DE0AFF30F4000330F500B22421005A
:10059800BB0132303B020318E82A05302000DC009A
:1005A8000F30DB00F430DA00DA0BD82ADB0BD82A5C
:1005B800DC0BD82A01302000DA005A082100BB07DA
:1005C80032303B02031CD12A0030F400F500B2247B
:1005D80068302000DB00E430DA00DA0BF12ADB0BAC
:1005E800F12A0000003021003D02943003193C023A
:1005F8000318022B7830F4000330122B21003C0939
:100608002000DA0021003D092000DB00DA0A031986
:10061800DB0A5A08FF3EF40003305B3DF500B224C4
:1006280003302000DC000830DB007830DA00DA0B19
:100638001B2BDB0B1B2BDC0B1B2BA52A00302000F4
:100648000C1A0130F2006908031D4F2B7208F000E4
:10065800F10177087106031D332B7608700603191C
:100668003E2BE6017208F000F1017008F6007108EF
:10067800F700080076037704031D08000130F00036
:100688007008E6070B306602031C08000130F00012
:100698007008E90008007208F000F1017708710697
:1006A800031D582B760870060319672BE70172089B
:1006B800F000F1017008F6007108F7000130F00051
:1006C8007008E800080076037704031D732B680898
:1006D800031D732B0130F0007008E6070800760848
:1006E8007704031D08000130F0007008E7070B309D
:1006F8006702031C080064306602031C882B023062
:10070800F0007008E50008000130F0007008E5000E
:100718000800243450344D3454344B343334313499
:1007280034342C3430342C3430342C3431342C34AC
:1007380030342C3430342C3430342C3430342C34A1
:1007480030342C3430342C3430342C3430342C3491
:1007580030342C3430342C3430342C3430342C3481
:1007680030342C3430342C3430342C3430342A3473
:10077800323439340D340A340034243450344D348E
:1007880054344B343234323430342C343134303401
:1007980030342A34323446340D340A3400342000DC
:1007A800AB010A302B020318EE2B0530AA000F30DC
:1007B800A900F430A800A80BDF2BA90BDF2BAA0B8C
:1007C800DF2B01302000A8002808AB070A302B02D5
:1007D800031CD92B8D30A1008330A200E9240530F9
:1007E8002000AA000F30A900F430A800A80BFA2BAB
:1007F800A90BFA2BAA0BFA2BC1302000A1008330D9
:10080800A200E92405302000AA000F30A900F43026
:10081800A800A80B0D2CA90B0D2CAA0B0D2C080059
:10082800023020006F06031D262C0130F0007008EE
:10083800E40764306402031C0800E401203022004D
:100848008C060800033020006F06031D08000130E5
:10085800F0007008E40732306402031C0800E40169
:10086800203022008C060800F50079080319392C7D
:100878002100111A432C750823009A00572C1112D5
:100888007508F40020006C08A83E860087017408EB
:1008980081000130F4007408EC0708306C0203187A
:1008A800EC010130F902210011160800F5012300BE
:1008B8009D16780803195D2C2100911220006B0801
:1008C800A03E860087010108F4007408F500013095
:1008D800F4007408EB0708306B020318EB010130D1
:1008E800F8022100911675080800083079020318EB
:1008F800932C20006D08A83E86008701010823007C
:100908009A000130F00070082000ED0708306D02F1
:100918000318ED010130F0007008F9070800210004
:1009280011120800F401F5012000201C9F2C220858
:10093800F4072308F53D0130A235A30D890BA02C3F
:100948000130A136A00C890BA52C20082104031D19
:10095800982C7508A1007408A000080075082000EC
:10096800A1007408A000A136A00CA136A00C200894
:1009780025009100740803392000A0000430A03538
:10098800890BC32C25001308CF392000200425002B
:1009980093000800210091121112083023009F00D3
:1009A80090309D0024309E0040309B0003309C0016
:1009B8002000EC01ED010830F4007408F900EA01A8
:1009C800EB01F80121009116080023302000A30054
:1009D8002308A60020002208A4002108A300A10AD9
:1009E8000319A20A23088400240885000008A5002A
:1009F8002508A7002708031908002708C525EE2C95
:100A080023009D1C092D9D139D171908F000200037
:100A18006A08A03E86008701700881000130F00056
:100A28007008EA0708306A020318EA010130F0008A
:100A38007008F8070800F4007403031D262D22002F
:100A48008C1208007408031D2C2D22008C16080037
:100A5800023074060319342D03307406031D080090
:100A680022008C162000E401080022008C018E016F
:100A7800073023008C000F308E003F3024008C009C
:100A88003F308E00373021008E001F308C009513C8
:100A980022009D0108000B1120006E08950001300E
:100AA8002100B0070030B13D003031020230031997
:100AB8003002031C080096252100B001B10108008E
:100AC80021001508C03917389500643020009500BA
:100AD8006430A0002008EE000B118B16D130F40012
:100AE8000530F500BF25080020000C0E0139F40080
:100AF800F5017408F6007508F700E601E701E5015D
:100B0800E9012100B8012000E80108003C30250077
:100B18009300950180309400043096007F30910056
:100B28009201080021003208330403190800330831
:100B38008A0032080A0085310800023020009C0033
:100B4800FF309B009A019110CA25080070302100DF
:100B580099009A0198011A1B0800AF2D3925AA257A
:100B68008A25A1256425CE2408006400800101316E
:100B7800890BBA2D003475082100B3007408B2003F
:100B880008002000A00020083824080020001C15B8
:0C0B980008001424222308000134080087
:020000040001F9
:04000E00E4FFFFDF2D
:00000001FF
