:020000002428B2
:100008007E14803120007F08F9008B1A0B1D0D2803
:1000180079270B1F16282100111E16282000111EF3
:100028001628A9260B1F1F282100911E1F28200013
:10003800911E1F28342779082000FF007E10090030
:100048002528DF27EC00F001F101F201F301F401AA
:1000580049308400003085002330C8277E102000F6
:10006800642A2000C301BB01C401243044060319DB
:10007800462873080319392888262000B200320858
:10008800C400392873080319462888262000B200BE
:100098003208C4004408B2003208BB062C304406BB
:1000A800031968284408B20043083C3E86008701CB
:1000B800320881000130B2003208C307063043021B
:1000C800031C46280030080047303C06031D7C28E6
:1000D80050303D06031D7C2856303E06031D7C2803
:1000E80054303F06031D7C284730400603197E28FC
:1000F80000300800C301730803197F2888262000F0
:10010800B2003208C4004408B2003208BB062C30E2
:100118004406031D7F28730803198F2888262000AA
:10012800B2003208C4004408B2003208BB062C30C2
:1001380044060319B1284408B20043083C3E86002F
:100148008701320881000130B2003208C307063047
:100158004302031C8F280030080054303C06031962
:1001680043030319B92800300800C30173080319B1
:10017800BA2888262000B2003208C4004408B20019
:100188003208BB062C304406031DBA28730803192D
:10019800CA2888262000B2003208C4004408B200E9
:1001A8003208BB062C3044060319EC284408B20078
:1001B80043083C3E86008701320881000130B200C6
:1001C8003208C30706304302031CCA28003008005F
:1001D8004D303C06031943030319F4280030080086
:1001E800C30173080319F52888262000B2003208D5
:1001F800C4004408B2003208BB062C304406031D74
:10020800F52873080319052988262000B20032084A
:10021800C4004408B2003208BB062C304406031957
:1002280027294408B20043083C3E8600870132086B
:1002380081000130B2003208C30706304302031CB4
:100248000529003008004E303C0603194303031902
:100258002F2900300800C3017308031930298826A4
:100268002000B2003208C4004408B2003208BB06BD
:100278002C304406031952294408B20043083C3E76
:1002880086008701320881000130B2003208C307B6
:1002980006304302031C302900300800C201B601B1
:1002A800B701B801B901B401B40A430842020318FE
:1002B800B82942083C3E860087012E300106031DFE
:1002C8006729B401B32942083C3E860087013030D3
:1002D8000102031C772942083C3E860087013A3018
:1002E8000102031C792900300800340803199829F1
:1002F8003708A1003608A0000A30A2000030A30089
:10030800C626200042083C3E8600870101082007D7
:10031800B20021080318210AB3003208D03EB60003
:10032800FF30333DB700B3293908A1003808A000D1
:100338000A30A2000030A300C626200042083C3E36
:100348008600870101082007B20021080318210A46
:10035800B3003208D03EB800FF30333DB900013059
:10036800B2003208C20759296430A0000030A10049
:100378003908A3003808A200C62620002108B900C1
:100388002008B800C30173080319C729882620006C
:10039800B2003208C4004408B2003208BB062C3050
:1003A80044060319E9294408B20043083C3E860084
:1003B8008701320881000130B2003208C3070630D5
:1003C8004302031CC729003008004B303C060319C0
:1003D80043030319F12900300800C301B50173086C
:1003E8000319F32988262000B2003208C4002A30F5
:1003F8004406031D012AB501B50A3508031D082A5C
:100408004408B2003208BB060D30440603191E2A00
:100418004408B20043083C3E860087013208810048
:100428000130B2003208C30706304302031CF32927
:10043800003008002A303D06031D262A04304306F2
:100448000319282A00300800BA013A303E02031C7A
:10045800302A3E08C93E322A3E08D03EB200320851
:10046800BA003A08B2000330B235FF3E031D382AFD
:100478003235B3003308BA003A303F02031C472A2A
:100488003F08C93E492A3F08D03EB2003208BA07A1
:100498003B083A06031D622A3708A1003608A00067
:1004A8003908A3003808A200652420002008D900D4
:1004B8002108DA002208DB000130080000300800BB
:1004C800C127DC302000A0000730A100CE278B1701
:1004D8000B170430672622008C122100A1011E3060
:1004E800210203188E2A05302000C8000F30C700EB
:1004F800F430C600C60B7E2AC70B7E2AC80B7E2A9C
:1005080001302000C60046082100A1071E30210244
:10051800031C772AAA2500302000D9000030DA0011
:100528000030DB003520003A0319C22A20006A088F
:10053800031DB62A5908AC005A08AD005B08AE0086
:100548005F30840085308500003FAF00013FB00078
:10055800023FB1008B2320002C08D9002D08DA00B7
:100568002E08DB0022008C16D0302000C700C930CE
:10057800C600C60BBD2AC70BBD2A003222008C124A
:10058800962A05302000C8000F30C700F430C60096
:10059800C60BCC2AC70BCC2AC80BCC2A01302000AA
:1005A800C60046082100A20732302202031CC52AD1
:1005B800A001A00A00302000A000A100E2266830B7
:1005C8002000C700E430C600C60BE82AC70BE82A9B
:1005D80000006B302000A0000330A100E2262100BB
:1005E800A301323023020318102B05302000C80065
:1005F8000F30C700F430C600C60B002BC70B002B0A
:10060800C80B002B01302000C60046082100A307B4
:1006180032302302031CF92A21002003031D192B61
:100628000130A5070030A63D1D2B0130A502003082
:10063800A63B013026022D3003192502031C262B68
:10064800A0015E2B25082604031D5E2BA001A00A2D
:10065800FF302000A0000330A100E2262100A40101
:100668003230240203184F2B05302000C8000F3009
:10067800C700F430C600C60B3F2BC70B3F2BC80B77
:100688003F2B01302000C60046082100A407323065
:100698002402031C382B00302000A000A100E22611
:1006A80068302000C700E430C600C60B592BC70BC2
:1006B800592B00000030210026029430031925022E
:1006C80003186B2B78302000A00003307B2B21000F
:1006D80025092000C600210026092000C700C60AF7
:1006E8000319C70A4608FF3EA0000330473DA10092
:1006F800E22603302000C8000830C7007830C60062
:10070800C60B842BC70B842BC80B842B102BFF30F4
:100718002000B2003F30B3000030B4002C08B2050E
:100728002D08B3052E08B4053208C0003308C100EF
:100738003408C200FF30B2003F30B3000030B400CC
:100748002F08B2053008B3053108B4053208C300D4
:100758003308C4003408C5002C08B2002D08B300C3
:100768002E08B4000E30B436B30CB20C890BB72B7C
:100778003208A0003308A1003408A200A3012F0802
:10078800B5003008B6003108B7000E30B736B60CE1
:10079800B50C890BCA2B3508A4003608A500370804
:1007A800A600A701EB2520002008B8002108B90001
:1007B8002208BA002308BB000E30B835B90DBA0DAF
:1007C800BB0D890BE12B3B08BF003A08BE00390876
:1007D800BD003808BC002C08B2002D08B3002E0854
:1007E800B4000E30B436B30CB20C890BF62B3208B9
:1007F800A0003308A1003408A200A3014308A40004
:100808004408A5004508A600A701EB2520002008FC
:10081800BC072108BD3D2208BE3D2308BF3D2F0867
:10082800B2003008B3003108B4000E30B436B30C4F
:10083800B20C890B1A2C3208A0003308A100340826
:10084800A200A3014008A4004108A5004208A60090
:10085800A701EB2520002008BC072108BD3D220880
:10086800BE3D2308BF3D4008A0004108A100420842
:10087800A200A3014308A4004408A5004508A60057
:10088800A701EB2520002008B2002108B3002208A8
:10089800B4002308B5000E30B536B40CB30CB20C56
:1008A800890B502C3208BC073308BD3D3408BE3DC7
:1008B8003508BF3D3C08AC003D08AD003E08AE0021
:1008C800080000302000AF000030B0000030B10058
:1008D80040302102003003192002031C7A2C2F0813
:1008E800A0003008A1003108A20008002008AF00CD
:1008F8002108B000B1012F08A4003008A500310874
:10090800A6000E30A435A50DA60D890B862C24084B
:10091800AF002508B0002608B1002308AE00220861
:10092800AD00AA01AB01AC010E302C020318CE2C8D
:100938002D35AD002E0DAE0027302E0210300319D4
:100948002D02031CC62C6230840085308500003FD0
:10095800A400013FA5002C08013EFF3A013E0E3ECF
:10096800890AB82CA435A50D890BB62C2A082404AD
:10097800AA002B082504AB002D08F03EAD00D830A6
:100988002E3DAE000130A4002408AC070E302C0226
:10099800031C9C2C2F08A4003008A5003108A600D1
:1009A8002A08A7002B08A800A9012708A4072808D7
:1009B800A53D2908A63D2408AF002508B000260853
:1009C800B1002F08A0003008A1003108A2000800DB
:1009D8009927F6007608F80020006408031D192DF1
:1009E8007808F600F70171087706031DFD2C7008DA
:1009F80076060319082DF2017808F600F701760843
:100A0800F0007708F100080070037104031D080066
:100A18000130F6007608F20706307202031C08005F
:100A28000130F6007608E40008007808F600F701BF
:100A380071087706031D222D700876060319312DDB
:100A4800E2017808F600F7017608F0007708F1006F
:100A58000130F6007608E300080070037104031DF6
:100A6800452D6308031D452D0130F6007608F20771
:100A780064307202031C08000230F6007608E100B8
:100A8800080070087104031D08000130F60076089C
:100A9800E2070B306202031C08004B307202031C91
:100AA8005A2D0230F6007608E10008000130F60001
:100AB8007608E1000800BE342734003401340034DD
:100AC800243450344D3454344B3433343134343486
:100AD8002C3430342C3430342C3431342C343034FD
:100AE8002C3430342C3430342C3430342C343034EE
:100AF8002C3430342C3430342C3430342C343034DE
:100B08002C3430342C3430342C3430342C343034CD
:100B18002C3430342C3430342C3430342A343234BD
:100B280039340D340A340034243450344D345434B8
:100B38004B343234323430342C3431343034303471
:100B48002A34323446340D340A3400342000AD01DE
:100B58000A302D020318C52D0530AC000F30AB004C
:100B6800F430AA00AA0BB62DAB0BB62DAC0BB62DE4
:100B780001302000AA002A08AD070A302D02031C04
:100B8800B02D6430A3008530A4001927053020005B
:100B9800AC000F30AB00F430AA00AA0BD12DAB0B80
:100BA800D12DAC0BD12D98302000A3008530A400A6
:100BB800192705302000AC000F30AB00F430AA0034
:100BC800AA0BE42DAB0BE42DAC0BE42D0800003090
:100BD8002000AB000030AA000030A9000030A800B7
:100BE800201CFE2D2408A8072508A93D2608AA3D93
:100BF8002708AB3D0130A435A50DA60DA70D890B1F
:100C0800FF2D0130A336A20CA10CA00C890B062ED7
:100C18002308220421042004031DF42D2B08A3001B
:100C28002A08A2002908A1002808A000080004300A
:100C380020006C060319080002306C06031D312ED3
:100C48000130F5007508E00755306002031C080004
:100C5800E001203022008C060800033020006C06DA
:100C6800031D08000130F5007508E0071430600224
:100C7800031C0800E001203022008C060800200038
:100C8800A10074080319452E2100111A502E2000C6
:100C9800210823009A00642E111220002108A000C8
:100CA8006808513E86008701200881000130A000B5
:100CB8002008E807083068020318E8010130F40248
:100CC8002100111608002000A1002108A00020081A
:100CD800EC002103031D732E22008C120800200053
:100CE8002108031D7A2E22008C16080002302000ED
:100CF80021060319832E03302106031D0800220054
:100D08008C162000E00108002000A10123009D1698
:100D1800730803198C2E2100911220006708493EA0
:100D2800860087010108A0002008A1000130A0006A
:100D38002008E707083067020318E7010130F302CB
:100D480021009116200021080800083074020318B9
:100D5800C32E20006908513E860087010108230040
:100D68009A000130F50075082000E907083069028B
:100D78000318E9010130F5007508F407080021009F
:100D8800111208002000A401A501201CCF2E220862
:100D9800A4072308A53D0130A235A30D890BD02E49
:100DA8000130A136A00C890BD52E20082104031D83
:100DB800C92E2508A1002408A00008002000210849
:100DC800A3002008A200A336A20CA336A20C220876
:100DD80025009100200020080339A2000430A23524
:100DE800890BF32E25001308CF3920002204250093
:100DF80093000800210091121112083023009F006F
:100E080090309D0024309E0040309B0003309C00B1
:100E18002000E801E9010830A0002008F400E601FC
:100E2800E701F30121009116080025302000A500F4
:100E38002508A80020002408A6002308A500A30A66
:100E48000319A40A25088400260885000008A700BD
:100E58002708A9002908031908002908D4271E2FE4
:100E680023009D1C392F9D139D171908F50020009C
:100E78006608493E86008701750881000130F50043
:100E88007508E607083066020318E6010130F50028
:100E98007508F307080022008C018E010730230033
:100EA8008C000F308E003F3024008C003F308E00C5
:100EB800373021008E001F308C00951322009D01D1
:100EC800080021001508C039173895006430200043
:100ED80095006430A2002208EB000B118B16E0305D
:100EE800A0000730A100CE2708000B1120006B08D6
:100EF80095000130DC070030DD3D00305D02023036
:100F080003195C02031C0800A5272000DC01DD0191
:100F180008003C302500930095018030940004308F
:100F280096007F30910092010800003020000C1AD2
:100F38000130F5007503031DA32F003008000130B0
:100F4800080020005E085F04031908005F088A0093
:100F58005E080A0087310800023020009C00FF303C
:100F68009B009A019110D927080070302100990040
:100F78009A0198011A1B0800BE2F4F27B9278D2701
:100F8800B0276527FE260800640080010131890B1F
:100F9800C92F003420002108DF002008DE000800E7
:100FA8002000A20022084326080020001C15080083
:0A0FB8001B26EC2408000134080099
:020000040001F9
:04000E00E4FFFFDF2D
:00000001FF
