:020000002428B2
:100008007E14803120007F08F9008B1A0B1D0D2803
:1000180028260B1F16282100111E16282000111E45
:10002800162874250B1F1F282100911E1F28200049
:10003800911E1F28E32579082000FF007E10090083
:1000480025288E26EC00F001F101F201F301F401FC
:100058004930840000308500233077267E10200048
:10006800B6292000AB01A401AC0124302C060319E9
:10007800462873080319392853252000A2002208AE
:10008800AC00392873080319462853252000A2001C
:100098002208AC002C08A2002208A4062C302C064A
:1000A800031968282C08A2002B08253E8600870122
:1000B800220881000130A2002208AB0706302B027B
:1000C800031C46280030080047302506031D7C28FD
:1000D80050302606031D7C2856302706031D7C2831
:1000E80054302806031D7C284730290603197E282A
:1000F80000300800AB01730803197F28532520003E
:10010800A2002208AC002C08A2002208A4062C3069
:100118002C06031D7F28730803198F2853252000F8
:10012800A2002208AC002C08A2002208A4062C3049
:100138002C060319B1282C08A2002B08253E86009E
:100148008701220881000130A2002208AB0706308F
:100158002B02031C8F280030080054302506031991
:100168002B030319B92800300800AB0173080319E1
:10017800BA2853252000A2002208AC002C08A200AF
:100188002208A4062C302C06031DBA28730803196C
:10019800CA2853252000A2002208AC002C08A2007F
:1001A8002208A4062C302C060319EC282C08A200DF
:1001B8002B08253E86008701220881000130A20015
:1001C8002208AB0706302B02031CCA28003008009F
:1001D8004D30250603192B030319F42800300800B5
:1001E800AB0173080319F52853252000A200220843
:1001F800AC002C08A2002208A4062C302C06031DF3
:10020800F52873080319052953252000A2002208A0
:10021800AC002C08A2002208A4062C302C060319D6
:1002280027292C08A2002B08253E860087012208D2
:1002380081000130A2002208AB0706302B02031C04
:100248000529003008004E30250603192B03031931
:100258002F2900300800AB017308031930295325F2
:100268002000A2002208AC002C08A2002208A40644
:100278002C302C06031952292C08A2002B08253EE5
:1002880086008701220881000130A2002208AB07FE
:1002980006302B02031C302900300800AB0173081C
:1002A8000319532953252000A2002208AC002C086A
:1002B800A2002208A4062C302C06031975292C0844
:1002C800A2002B08253E8600870122088100013004
:1002D800A2002208AB0706302B02031C532900306A
:1002E80008004B30250603192B0303197D2900301C
:1002F8000800AB01A301730803197F2953252000C7
:10030800A2002208AC002A302C06031D8D29A30167
:10031800A30A2308031D94292C08A2002208A40676
:100328000D302C060319AA292C08A2002B08253EFB
:1003380086008701220881000130A2002208AB074D
:1003480006302B02031C7F29003008002A302606BD
:10035800031DB22904302B060319B4290030080004
:100368000130080070268B302000A0000630A10064
:100378007D268B170B170430322522008C122100A2
:10038800A1011E3021020318E02905302000C80011
:100398000F30C700F430C600C60BD029C70BD029D0
:1003A800C80BD02901302000C60046082100A1074B
:1003B8001E302102031CC929752400302000D900F1
:1003C8000030DA000030DB003520003A0319142A27
:1003D80020006A08031D082A5908AC005A08AD0015
:1003E8005B08AE002A30840084308500003FAF00EF
:1003F800013FB000023FB100DD2220002C08D900E7
:100408002D08DA002E08DB0022008C16D0302000E0
:10041800C700C930C600C60B0F2AC70B0F2A003207
:1004280022008C12E82905302000C8000F30C700D0
:10043800F430C600C60B1E2AC70B1E2AC80B1E2A7C
:1004480001302000C60046082100A20732302202EF
:10045800031C172AA001A00A00302000A000A10058
:10046800912568302000C700E430C600C60B3A2A40
:10047800C70B3A2A00006B302000A0000330A1000F
:1004880091252100A301323023020318622A053086
:100498002000C8000F30C700F430C600C60B522A2F
:1004A800C70B522AC80B522A01302000C600460842
:1004B8002100A30732302302031C4B2A210020030A
:1004C800031D6B2A0130A5070030A63D6F2A0130B5
:1004D800A5020030A63B013026022D300319250263
:1004E800031C782AA001B02A25082604031DB02A77
:1004F800A001A00AFF302000A0000330A100912530
:100508002100A401323024020318A12A053020005A
:10051800C8000F30C700F430C600C60B912AC70BBD
:10052800912AC80B912A01302000C60046082100F4
:10053800A40732302402031C8A2A00302000A000BD
:10054800A100912568302000C700E430C600C60B22
:10055800AB2AC70BAB2A00000030210026029430DA
:10056800031925020318BD2A78302000A0000330A3
:10057800CD2A210025092000C600210026092000D7
:10058800C700C60A0319C70A4608FF3EA000033081
:10059800473DA100912503302000C8000830C7005E
:1005A8007830C600C60BD62AC70BD62AC80BD62A5F
:1005B800622AFF302000B2003F30B3000030B400A0
:1005C8002C08B2052D08B3052E08B4053208C00062
:1005D8003308C1003408C200FF30B2003F30B30016
:1005E8000030B4002F08B2053008B3053108B4054F
:1005F8003208C3003308C4003408C5002C08B20010
:100608002D08B3002E08B4000E30B436B30CB20C6B
:10061800890B092B3208A0003308A1003408A20076
:10062800A3012F08B5003008B6003108B7000E3016
:10063800B736B60CB50C890B1C2B3508A400360848
:10064800A5003708A600A701B62420002008B80096
:100658002108B9002208BA002308BB000E30B835BB
:10066800B90DBA0DBB0D890B332B3B08BF003A08F7
:10067800BE003908BD003808BC002C08B2002D089F
:10068800B3002E08B4000E30B436B30CB20C890B8C
:10069800482B3208A0003308A1003408A200A301A7
:1006A8004308A4004408A5004508A600A701B624ED
:1006B80020002008BC072108BD3D2208BE3D2308B4
:1006C800BF3D2F08B2003008B3003108B4000E3027
:1006D800B436B30CB20C890B6C2B3208A00033086B
:1006E800A1003408A200A3014008A4004108A50005
:1006F8004208A600A701B62420002008BC0721084C
:10070800BD3D2208BE3D2308BF3D4008A00041086A
:10071800A1004208A200A3014308A4004408A500C0
:100728004508A600A701B62420002008B200210829
:10073800B3002208B4002308B5000E30B536B40C57
:10074800B30CB20C890BA22B3208BC073308BD3D91
:100758003408BE3D3508BF3D3C08AC003D08AD003F
:100768003E08AE0008004826F6007608F80020008B
:100778006408031DE42B7808F600F7017108770672
:10078800031DC82B700876060319D32BF2017808CD
:10079800F600F7017608F0007708F100080070030A
:1007A8007104031D08000130F6007608F2070630D0
:1007B8007202031C08000130F6007608E400080005
:1007C8007808F600F70171087706031DED2B70080D
:1007D80076060319FC2BE2017808F600F701760883
:1007E800F0007708F1000130F6007608E300080011
:1007F80070037104031D102C6308031D102C0130B5
:10080800F6007608F20764307202031C0800023012
:10081800F6007608E100080070087104031D08005E
:100828000130F6007608E2070B306202031C08006C
:100838004B307202031C252C0230F6007608E100CA
:1008480008000130F6007608E1000800BE342734BD
:10085800003401340034243450344D3454344B348F
:100868003334313434342C3430342C3430342C3464
:1008780031342C3430342C3430342C3430342C345F
:1008880030342C3430342C3430342C3430342C3450
:1008980030342C3430342C3430342C3430342C3440
:1008A80030342C3430342C3430342C3430342C3430
:1008B80030342A34323439340D340A340034243490
:1008C80050344D3454344B343234323430342C3484
:1008D8003134303430342A34323446340D340A3426
:1008E80000342000AD010A302D020318902C053089
:1008F800AC000F30AB00F430AA00AA0B812CAB0B74
:10090800812CAC0B812C01302000AA002A08AD07ED
:100918000A302D02031C7B2C2F30A3008430A40046
:10092800C82505302000AC000F30AB00F430AA0019
:10093800AA0B9C2CAB0B9C2CAC0B9C2C6330200082
:10094800A3008430A400C82505302000AC000F3077
:10095800AB00F430AA00AA0BAF2CAB0BAF2CAC0B3E
:10096800AF2C080000302000AB000030AA00003097
:10097800A9000030A800201CC92C2408A8072508B5
:10098800A93D2608AA3D2708AB3D0130A435A50D91
:10099800A60DA70D890BCA2C0130A336A20CA10CF9
:1009A800A00C890BD12C2308220421042004031D48
:1009B800BF2C2B08A3002A08A2002908A100280898
:1009C800A0000800043020006C060319080002305B
:1009D8006C06031DFC2C0130F5007508E007553046
:1009E8006002031C0800E001203022008C06080089
:1009F800033020006C06031D08000130F50075085F
:100A0800E00714306002031C0800E00120302200D7
:100A18008C0608002000A10074080319102D21007D
:100A2800111A1B2D2000210823009A002F2D1112C6
:100A380020002108A0006808513E86008701200890
:100A480081000130A0002008E80708306802031878
:100A5800E8010130F4022100111608002000A1006D
:100A68002108A0002008EC002103031D3E2D2200D0
:100A78008C12080020002108031D452D22008C1629
:100A8800080002302000210603194E2D03302106EC
:100A9800031D080022008C162000E0010800200039
:100AA800A10123009D1673080319572D21009112E7
:100AB80020006708493E860087010108A000200839
:100AC800A1000130A0002008E707083067020318DA
:100AD800E7010130F30221009116200021080800E7
:100AE8000830740203188E2D20006908513E8600D4
:100AF8008701010823009A000130F50075082000DD
:100B0800E907083069020318E9010130F5007508A2
:100B1800F407080021001112080020002108A30092
:100B28002008A200A336A20CA336A20C2208250096
:100B38009100200020080339A2000430A235890B57
:100B4800A22D25001308CF39200022042500930088
:100B58000800210091121112083023009F009030E4
:100B68009D0024309E0040309B0003309C002000F4
:100B7800E801E9010830A0002008F400E601E701D7
:100B8800F30121009116080025302000A500250852
:100B9800A80020002408A6002308A500A30A03191A
:100BA800A40A25088400260885000008A70027084D
:100BB800A90029080319080029088326CD2D230038
:100BC8009D1CE82D9D139D171908F5002000660847
:100BD800493E86008701750881000130F5007508D7
:100BE800E607083066020318E6010130F5007508CB
:100BF800F307080022008C018E01073023008C00C7
:100C08000F308E003F3024008C003F308E0037308C
:100C180021008E001F308C00951322009D010800D2
:100C280021001508C0391738950064302000950058
:100C38006430A2002208EB000B118B168F30A00045
:100C48000630A1007D2608000B1120006B089500D6
:100C58000130DC070030DD3D00305D020230031951
:100C68005C02031C080054262000DC01DD0108009A
:100C78003C302500930095018030940004309600A4
:100C88007F30910092010800003020000C1A0130DA
:100C9800F5007503031D522E0030080001300800CE
:100CA80020005E085F04031908005F088A005E08D8
:100CB8000A0086310800023020009C00FF309B00AB
:100CC8009A019110882608007030210099009A0135
:100CD80098011A1B08006D2EFE2568263C265F2603
:100CE8001426AD250800640080010131890B782E97
:100CF800003420002108DF002008DE000800200062
:100D0800A20022080E25080020001C150800E62471
:080D1800B723080001340800B4
:020000040001F9
:04000E00E4FFFFDF2D
:00000001FF
