:040000000128FE2FA6
:100F5200B427AC2708007030210099009A0198014B
:100F62001A1B0800B12F22008C018E0117302300BA
:100F72008C000F308E003F3024008C003F308E00FA
:100F82003F3021008E001F308C00951322009D01FE
:100F92000800A92722008C16F3010A3073020318F5
:100FA200E62F0530F2000F30F100F430F000F00BC4
:100FB200D82FF10BD82FF20BD82F0130F000700888
:100FC200F3070A307302031CD22F22008C12F401A1
:100FD2000A3074020318CB2F0530F2000F30F100F3
:100FE200F430F000F00BF32FF10BF32FF20BF32F91
:0E0FF2000130F0007008F407E92F2000CA2F2C
:020000040001F9
:04000E00E4FFFFDF2D
:00000001FF
