:08000000803102288731F12F45
:100C3C0001340030FB000030FA000030F9000030C5
:100C4C00F800701C312E7408F8077508F93D760809
:100C5C00FA3D7708FB3D0130F435F50DF60DF70D37
:100C6C00890B322E0130F336F20CF10CF00C890B9F
:100C7C00392E7308720471047004031D272E7B082F
:100C8C00F3007A08F2007908F1007808F000080007
:100C9C008230F0000030F100C430F2000930F30073
:100CAC0086318326863173082000C3007208C20087
:100CBC007108C1007008C0004308A3004208A200DC
:100CCC004108A1004008A000003084008830850055
:100CDC00003FA400013FA500023FA600033FA70070
:100CEC0087310D27863120002308C3002208C2005B
:100CFC002108C1002008C000822E00302000A8006E
:100D0C000030A7000030A6000030A5007008A50038
:100D1C007108A600A701A8012508F4002608F50013
:100D2C002708F6002808F7001030F435F50DF60DFD
:100D3C00F70D890B9B2E7708A8007608A70075087D
:100D4C00A6007408A5007308A3007208A200A001F5
:100D5C00A101A401103024020318E62E2235A200B2
:100D6C00230DA30027302302103003192202031C89
:100D7C00DE2E0430840088308500003FF400013FF3
:100D8C00F5002408013EFF3A013E103E890AD02EA0
:100D9C00F435F50D890BCE2E20087404A000210823
:100DAC007504A1002208F03EA200D830233DA30018
:100DBC000130F4007408A40710302402031CB42E74
:100DCC002508F4002608F5002708F6002808F70087
:100DDC002008F8002108F900FA01FB017808F40753
:100DEC007908F53D7A08F63D7B08F73D7708A800B1
:100DFC007608A7007508A6007408A5002808F3005B
:100E0C002708F2002608F1002508F0000800200051
:100E1C002308BB002208BA002108B9002008B8003A
:100E2C002708BF002608BE002508BD002408BC000A
:100E3C002008A8002108A9002208AA002308AB005A
:100E4C001030AB36AA0CA90CA80C890B272F2B0839
:100E5C00F3002A08F2002908F1002808F000240801
:100E6C00AC002508AD002608AE002708AF001030F6
:100E7C00AF36AE0CAD0CAC0C890B3E2F2F08F70027
:100E8C002E08F6002D08F5002C08F40086311F26DC
:100E9C00873170082000B0007108B1007208B200F0
:100EAC007308B3001030B035B10DB20DB30D890B12
:100EBC00592F3308B7003208B6003108B500300896
:100ECC00B4002008A8002108A9002208AA002308C1
:100EDC00AB001030AB36AA0CA90CA80C890B702FE8
:100EEC002B08F3002A08F2002908F1002808F0006A
:100EFC003F08F7003E08F6003D08F5003C08F400FA
:100F0C0086311F26873170082000B4077108B53D63
:100F1C007208B63D7308B73D2408A8002508A9003F
:100F2C002608AA002708AB001030AB36AA0CA90C77
:100F3C00A80C890B9B2F2B08F3002A08F200290818
:100F4C00F1002808F0003B08F7003A08F6003908D1
:100F5C00F5003808F40086311F2687317008200010
:100F6C00B4077108B53D7208B63D7308B73D3B0830
:100F7C00F3003A08F2003908F1003808F0003F0895
:100F8C00F7003E08F6003D08F5003C08F4008631F9
:100F9C001F26873170082000A8007108A90072086C
:100FAC00AA007308AB001030AB36AA0CA90CA80C25
:100FBC00890BDA2F2808B4072908B53D2A08B63D55
:100FCC002B08B73D3708A3003608A2003508A1004E
:100FDC003408A000080086311E26CB00FC01FD0160
:100FEC00C401C501C601C701C801C901CA0120005D
:100FFC0086314E2E14349F340034003401340034C6
:020000040001F9
:04000E00E4FFFFDF2D
:00000001FF
