:0400000080312928FA
:1000060008007E14803120007F08F3008B1A0B1D38
:100016000F288931E42180310B1F1A282100111E77
:100026001A282000111E1A288A317F2280310B1FC0
:1000360024282100911E24282000911E24288A317C
:10004600112273082000FF007E10090080312B2842
:10005600F601F701F801F9015430840000308500FB
:100066000A30893148218031A03084000030850073
:100076004D30893148217E10200080314228893157
:10008600AA21803104308A31D622803122000C1117
:10009600FF30F4000330F5008A3163228031893164
:1000A600332180313630F4000930F50089314221A0
:1000B60080318B170B178D3192258031003A031D45
:1000C6007B2802308A31D622803189318F218031D6
:1000D6000230200054060319752820005403031D1E
:1000E6006B2868288E31012680318C31BF248031FF
:1000F6008B31CD23803100302100B3000030B200B7
:100106000030B1000030B000B801B90189318F214B
:1001160080318331CE238031003A0319A72B210089
:100126003C080319CB2833082000AF002100320811
:100136002000AE00210031082000AD00210030086B
:100146002000AC00CD30840087308500003FB00031
:10015600013FB100023FB200033FB30086312326C0
:10016600803120002F082100B30020002E08210036
:10017600B20020002D082100B10020002C0821002B
:10018600B000B31BD4283308031DDC280130D12866
:10019600B31BD4283308031DDC28023032020318AF
:1001A600DC280030B3000030B2000030B10000306F
:1001B600B00022000C15D0302000CD00C930CC0094
:1001C600CC0BE328CD0BE328003222000C112100D2
:1001D60033082000BC00210032082000BB002100AB
:1001E60031082000BA00210030082000B9008D3106
:1001F6002725803120003A082200A6002000390871
:100206002200A500B501B50A2100330832043104E5
:100216003004031D10290130112900302000CC00C4
:100226004C082200A400292B35082000CC00CD0163
:10023600CC09CD09CC0A0319CD0A21003F082000BC
:100246004C07A0004D0803184D0AA1000A30A20071
:100256000030A3008A314722803120002108220085
:100266002602031D3A292000200822002502031C2D
:10027600092B35082000CC00CD01CC09CD09CC0ACC
:100286000319CD0A21003F0820004C07A0004D08A5
:1002960003184D0AA1000A30A2000030A3008A31DB
:1002A600472280312200260820002106031D5F29EF
:1002B6002200250820002006031D6B292200353563
:1002C600C03E86008701403FB300413FB400212B6A
:1002D60022003535FE3EC03E860087013535C03EDC
:1002E60084008501003F2000CC00013FCD00CC09F1
:1002F600CD09CC0A0319CD0A403F4C07A400413F63
:100306004D3DA5000030A600A70087311C2780318F
:10031600200027082200AE00200026082200AD009B
:10032600200025082200AC00200024082200AB0093
:1003360000302000A400A500E830A6000330A70086
:1003460087311C278031200027082200AA002000C0
:1003560026082200A900200025082200A800200067
:1003660024082200A7002E082000AF0022002D0836
:100376002000AE0022002C082000AD0022002B0831
:100386002000AC0022002A082000B3002200290821
:100396002000B200220028082000B1002200270811
:1003A6002000B00086312326803120002F0822004D
:1003B600AE0020002E082200AD0020002D082200ED
:1003C600AC0020002C082200AB0035082000CC0031
:1003D600CD01CC09CD09CC0A0319CD0A21003F086D
:1003E60020004C07A0004D0803184D0AA1000A3052
:1003F600A2000030A3008A31472280312000210864
:10040600A5002008A4000030A600A70087311C27FD
:100416008031200027082200B20020002608220092
:10042600B100200025082200B00020002408220088
:10043600AF002E082000AF0022002D082000AE00DD
:1004460022002C082000AD0022002B082000AC0062
:10045600220032082000B300220031082000B2003A
:10046600220030082000B10022002F082000B00032
:1004760086312326803120002F082200B20020007A
:100486002E082200B10020002D082200B000200016
:100496002C082200AF003535C03E86008701403F5C
:1004A6002000A400413FA5000030A600A700873128
:1004B6001C278031200027082200AA0020002608D9
:1004C6002200A900200025082200A80020002408F8
:1004D6002200A70027082000CC00220028082000C0
:1004E600CD00220029082000CE0022002A08200084
:1004F600CF0022002F092000D00022003009200062
:10050600D100220031092000D20022003209200049
:10051600D300D00A0319D10A0319D20A0319D30A40
:100526005008CC075108CD3D5208CE3D5308CF3D6B
:100536004F082200B20020004E082200B100200021
:100546004D082200B00020004C082200AF002E0803
:100556002000AF0022002D082000AE0022002C084B
:100566002000AD0022002B082000AC00210033083B
:100576002000B300210032082000B200210031081B
:100586002000B100210030082000B000863123266B
:10059600803120002C0822002F072000CC002D08D7
:1005A6002200303D2000CD002E082200313D2000E3
:1005B600CE002F082200323D2000CF004F08220037
:1005C600A30020004E082200A20020004D082200B1
:1005D600A10020004C082200A00023082000BC0037
:1005E600220022082000BB00220021082000BA00B9
:1005F600220020082000B9008D31272580312000F7
:100606003A082200B400200039081F2B21003F08B9
:10061600FF3E2000CC00FF3003180030CD00220042
:10062600350820004C064D04031D232B21006908C4
:100636002200B400210068082200B300A401A40A25
:1006460001302000CC004C082200B50721003F08ED
:10065600220035020318322B24080319172921001A
:100666003308320431043004031D3F2BB801B901AD
:10067600FF30F4000330A32B2200340821003E0291
:10068600031D492B2200330821003D020318522B7B
:100696003E082200B40021003D082200B3002200DB
:1006A600330834040319752B21003F35FE3EC03E46
:1006B60086008701403F2000CC00413FCD004D0819
:1006C60022003402031D6B2B20004C08220033024B
:1006D6000318752B210069082200B4002100680860
:1006E6002200B300210038083904031D8C2B00308A
:1006F600F400F5008A316322803121006A08200067
:10070600CC00CD014C08F4004D08F5008931BC2120
:100716008031220034082100B9002200330821006C
:10072600B80038092000CC00210039092000CD008E
:10073600CC0A0319CD0A4C08FF3EF40003304D3DA8
:10074600F5008A3163228031023020005406031DF1
:10075600C92B2100B801B90138092000CC002100BD
:1007660039092000CD00CC0A0319CD0A4C08FF3EFA
:10077600F40003304D3DF5008A31632280318E311D
:10078600012680318C31BF2480318C28200054030F
:10079600031D8C2889282000CA01C201CB01243000
:1007A6004B060319E12B78080319D22B8A31B9229B
:1007B60083312000B9003908CB00D22B7808031901
:1007C600E12B8A31B92283312000B9003908CB00E8
:1007D6004B08B9003908C2062C304B060319052C04
:1007E6004B08B9004A08433E860087013908810054
:1007F6000130B9003908CA0706304A02031CE12B4A
:100806000030080047304306031D192C50304406BB
:10081600031D192C56304506031D192C5430460667
:10082600031D192C4730470603191B2C00300800FE
:10083600CA01780803191C2C8A31B9228331200099
:10084600B9003908CB004B08B9003908C2062C306C
:100856004B06031D1C2C780803192E2C8A31B9224D
:1008660083312000B9003908CB004B08B90039089C
:10087600C2062C304B060319522C4B08B9004A0805
:10088600433E86008701390881000130B9003908E6
:10089600CA0706304A02031C2E2C003008005430CA
:1008A600430603194A0303195A2C00300800CA01EB
:1008B600780803195B2C8A31B92283312000B900EC
:1008C6003908CB004B08B9003908C2062C304B0654
:1008D600031D5B2C780803196D2C8A31B9228331EC
:1008E6002000B9003908CB004B08B9003908C20608
:1008F6002C304B060319912C4B08B9004A08433E8D
:1009060086008701390881000130B9003908CA0715
:1009160006304A02031C6D2C003008004D30430699
:1009260003194A030319992C00300800CA017808F4
:1009360003199A2C8A31B92283312000B90039086B
:10094600CB004B08B9003908C2062C304B06031DF4
:100956009A2C78080319AC2C8A31B92283312000ED
:10096600B9003908CB004B08B9003908C2062C304B
:100976004B060319D02C4B08B9004A08433E8600A3
:100986008701390881000130B9003908CA070630E5
:100996004A02031CAC2C003008004E3043060319F3
:1009A6004A030319D82C00300800CA017808031935
:1009B600D92C8A31B92283312000B9003908CB00FD
:1009C6004B08B9003908C2062C304B060319FD2C1A
:1009D6004B08B9004A08433E860087013908810062
:1009E6000130B9003908CA0706304A02031CD92C5F
:1009F60000300800C901BD01BE01BF01C001BB0135
:100A0600BB0A4A0849020318672D4908433E860077
:100A160087012E300106031D122DBB01622D4908E8
:100A2600433E8600870130300102031C222D49080F
:100A3600433E860087013A300102031C242D003014
:100A460008003B080319452D3E08A1003D08A000FB
:100A56000A30A2000030A3008A31472283312000E9
:100A66004908433E8600870101082007B90021088E
:100A76000318210ABA003908D03EBD00FF303A3DBE
:100A8600BE00622D4008A1003F08A0000A30A20067
:100A96000030A3008A314722833120004908433EB3
:100AA6008600870101082007B90021080318210ADA
:100AB600BA003908D03EBF00FF303A3DC0000130D1
:100AC600B9003908C907042D6430A0000030A10020
:100AD6004008A3003F08A2008A3147228331200044
:100AE6002108C0002008BF00CA0178080319782D24
:100AF6008A31B92283312000B9003908CB004B086E
:100B0600B9003908C2062C304B0603199C2D4B0838
:100B1600B9004A08433E8600870139088100013042
:100B2600B9003908CA0706304A02031C782D00307E
:100B360008004B30430603194A030319A42D00305D
:100B46000800CA01BC0178080319A62D8A31B9220A
:100B560083312000B9003908CB002A304B06031D2B
:100B6600B62DBC01BC0A3C08031DBD2D4B08B900BF
:100B76003908C2060D304B060319D32D4B08B900B0
:100B86004A08433E86008701390881000130B900D2
:100B96003908CA0706304A02031CA62D0030080091
:100BA6002A304406031DDB2D04304A060319DD2DC9
:100BB60000300800C1013A304502031CE52D450806
:100BC600C93EE72D4508D03EB9003908C1004108A5
:100BD600B9000330B935FF3E031DED2D3935BA0096
:100BE6003A08C1003A304602031CFC2D4608C93EAD
:100BF600FE2D4608D03EB9003908C1074208410615
:100C0600031D212E3E08A5003D08A4004008A700AC
:100C16003F08A60087311C27200027082100B300C3
:100C2600200026082100B200200025082100B1007E
:100C3600200024082100B000013008000030080020
:100C460020002C08B4002D08B5002E08B6002F0889
:100C5600B7001030B800B737B60CB50CB40CB80BEB
:100C66002E2E3708A3003608A2003508A100340846
:100C7600A0003008B9003108BA003208BB003308BA
:100C8600BC001030BD00BC37BB0CBA0CB90CBD0B98
:100C9600462E3C08A7003B08A6003A08A5003908DE
:100CA600A4008B315D23863120002008BE00210878
:100CB600BF002208C0002308C1001030BE35BF0D9A
:100CC600C00DC10D890B612E4108C5004008C40046
:100CD6003F08C3003E08C2002C08B4002D08B5002A
:100CE6002E08B6002F08B7001030B800B737B60C7C
:100CF600B50CB40CB80B792E3708A3003608A20041
:100D06003508A1003408A000FF303005A400FF30EC
:100D16003105A50000303205A60000303305A700D6
:100D26008B315D23863120002008C2072108C33D90
:100D36002208C43D2308C53D3008B4003108B5007B
:100D46003208B6003308B7001030B800B737B60C13
:100D5600B50CB40CB80BA92E3708A3003608A200B0
:100D66003508A1003408A000FF302C05A400FF3090
:100D76002D05A50000302E05A60000302F05A70082
:100D86008B315D23863120002008C2072108C33D30
:100D96002208C43D2308C53DFF30B400FF30B5002E
:100DA6000030B6000030B700FF302C05A000FF3041
:100DB6002D05A10000302E05A20000302F05A3004E
:100DC600FF303005A400FF303105A50000303205A4
:100DD600A60000303305A7008B315D238631200045
:100DE6002008B8002108B9002208BA002308BB0071
:100DF6001030BC00BB37BA0CB90CB80CBC0BFD2EBE
:100E06003808B4053908B5053A08B6053B08B705EC
:100E16003408C2073508C33D3608C43D3708C53D0A
:100E26004508AF004408AE004308AD004208AC00D8
:100E3600080000302000B8000030B7000030B600CF
:100E46000030B5002408B5002508B600890D893B99
:100E56008909B700B8003508A8003608A900370880
:100E6600AA003808AB001030A835A90DAA0DAB0DA5
:100E7600890B372F2B08B8002A08B7002908B600B7
:100E86002808B5002708B4002608B300B001B10150
:100E9600B201103032020318822F3335B300340DFD
:100EA600B40027303402103003193302031C7A2FA2
:100EB600D130840087308500003FA800013FA9009B
:100EC6003208013EFF3A013E103E890A6C2FA835D2
:100ED600A90D890B6A2F30082804B00031082904AF
:100EE600B1003308F03EB300D830343DB4000130D1
:100EF600A8002808B20710303202031C502FB81F72
:100F06009E2F3508A8003608A9003708AA00380819
:100F1600AB003008AC003108AD00AE01AF01AC0942
:100F2600AD09AE09AF09AC0A0319AD0A0319AE0A39
:100F36000319AF0AAC2F3508A8003608A9003708F0
:100F4600AA003808AB003008AC003108AD00AE018D
:100F5600AF012C08A8072D08A93D2E08AA3D2F0889
:100F6600AB3D2B08B8002A08B7002908B6002808A8
:100F7600B5003808A7003708A6003608A5003508CA
:100F8600A4000800D034D23402340034E434E1340E
:100F960001340034F9349E34003400340134003412
:100FA600243450344D3454344B34333431343434A3
:100FB6002C3430342C3430342C3431342C3430341A
:100FC6002C3430342C3430342C3430342C3430340B
:100FD6002C3430342C3430342C3430342C343034FB
:100FE6002C3430342C3430342C3430342C343034EB
:100FF6002C3430342C3430342C3430342A343234DB
:1010060039340D340A340034243450344D345434D5
:101016004B343234323430342C343134303430348E
:0C1026002A34323446340D340A340034CD
:1012660020001C1508008B31372389318C3161240D
:1012760008002000A00020088B3114230800750800
:101286002100B7007408B60008006400800101312F
:10129600890B492900347030210099009A01980180
:1012A6001A1B08005329023020009C00FF309B00C7
:1012B6009A0191108931332108002100360837043C
:1012C6000319080037088A0036080A008931080021
:1012D600003020000D180130F0007003031D752941
:1012E6000030080001300800F40074082300910063
:1012F60015139513151400000000230013080800A9
:10130600003020000D180130F4007403031D8D29F0
:10131600003008000130080089318321F500750886
:101326002000D900D501D601D401D701D801DA01B0
:1013360008003C3025009300950180309400013070
:1013460096007F3091009201FC309E05080089319D
:10135600FA21893189314E21893189319C2189319E
:101366008931562189318931CF2189318A312C221F
:10137600080074087504031908000B302000A1004A
:101386006230A000A00BC529A10BC52900000130C1
:10139600F4020030F53BBC2921001508C039173886
:1013A60095006430200095006430A0002008F90004
:1013B6000B118B160330F4000030F5008931422101
:1013C60008000B1179082000950001302100B407B0
:1013D6000030B53D00303502023003193402031CDB
:1013E6000800893160212100B401B50108002200FE
:1013F6008D018C011F3023008C00F0308D002030D1
:1014060024008C00FF308D00F73021008D00FB306A
:101416008C00951322009D019E01080023009D1C4F
:10142600162A9D139D171908F00021003A08A03EC0
:1014360086008701700881000130F0007008BA0745
:1014460008303A020318BA010130F0007008F807B4
:101456000800210091121112083023009F009030DD
:101466009D0024309E0040309B0003309C002000ED
:10147600DC01DD010830F4007408DB002100BA014C
:10148600BB01F80191160800F401F5012000201CAB
:10149600502A2208F4072308F53D0130A235A30D92
:1014A600890B512A0130A136A00C890B562A200837
:1014B6002104031D492A7508A1007408A00008002C
:1014C60075082000A1007408A000A136A00CA13662
:1014D600A00C200825009100740803392000A00004
:1014E6000430A035890B742A25001308CF39200053
:1014F6002004250093000800083020005B02031832
:10150600992A5D08A83E86008701010823009A00F3
:101516000130F00070082000DD0708305D02031876
:10152600DD010130F0007008DB0708002100111210
:10153600080023302000A3002308A600200022086C
:10154600A4002108A300A10A0319A20A2308840003
:10155600240885000008A5002508A7002708031908
:101566000800270889313C218A31A12AF501230088
:101576009D1678080319BC2A210091123B08A03E4B
:10158600860087010108F4007408F5000130F400B4
:101596007408BB0708303B020318BB010130F80290
:1015A600911675080800F5007508F4007408F60031
:1015B600F7017503031DE22A22000C1108007508C5
:1015C600031DE82A22000C150800023075060319CF
:1015D600F02A03307506031D080022000C150800CA
:1015E6002000A000A10120082300910074089300A8
:1015F60095131513151500308B1B01302000A10023
:101606008B13553023009600AA3096009514951832
:101616000A2B15112000210C031C8B1303188B17A2
:101626000800F50020005B080319152B2100111A8C
:10163600202B750823009A00342B11127508F4002C
:1016460020005C08A83E86008701740881000130EE
:10165600F4007408DC0708305C020318DC01013072
:10166600DB02210011160800043076060319080073
:1016760002307606031D4C2B0130F0007008F70788
:101686003C307702031C0800F701043022008C0668
:10169600080003307606031D08000130F0007008CC
:1016A600F7070F307702031C0800F7010430220009
:1016B6008C06080000302000AB000030AA00003085
:1016C600A9000030A800201C702B2408A8072508B4
:1016D600A93D2608AA3D2708AB3D0130A435A50D36
:1016E600A60DA70D890B712B0130A336A20CA10CF8
:1016F600A00C890B782B2308220421042004031D47
:10170600662B2B08A3002A08A2002908A100280896
:10171600A00008002000A30004308A31D6228B31B5
:1017260022000C110B302000A2002630A1006630EA
:10173600A000A00B9C2BA10B9C2BA20B9C2B003278
:101746002000A401230824020318080022000C1517
:1017560003302000A2000830A1007830A000A00BC2
:10176600B22BA10BB22BA20BB22B22000C11033011
:101776002000A2000830A1007830A000A00BC12BE9
:10178600A10BC12BA20BC12B01302000A000200809
:10179600A407A52B2000AB010A302B020318E82B67
:1017A6000530AA000F30A900F430A800A80BD92BE9
:1017B600A90BD92BAA0BD92B01302000A800280889
:1017C600AB070A302B02031CD32BD330A100873082
:1017D600A2008A319C228B3105302000AA000F30EE
:1017E600A900F430A800A80BF62BA90BF62BAA0B20
:1017F600F62B07302000A1008830A2008A319C22F7
:101806008B3105302000AA000F30A900F430A80063
:10181600A80B0B2CA90B0B2CAA0B0B2C08002000D9
:101826002208A300A4012108A6002008A500260876
:10183600A500A60123082506A70024082606A80059
:10184600FF302705AF0000302805B0003008A4009F
:101856002F08A3000430A436A30C890B2E2C2308D2
:10186600AF062408B0063008A4002F08A3000530F0
:10187600A335A40D890B3B2C3008A6002F08A50024
:10188600250EF039A600A5012008A800A701250805
:101896002706A90026082806AA0023082906AB0061
:1018A60024082A06AC002F082B06AD0030082C06AB
:1018B600AE002E08A1002D08A000080089316B217A
:1018C6008C31F1007108F20020005708031D852CA9
:1018D600590872060319752CD5017208F1007108B2
:1018E600D90008005903031D08000130F1007108F2
:1018F600D50706305502031C08000130F1007108B7
:10190600D7000800590872060319932CD6017208ED
:10191600F1007108D9000130F1007108DA00080001
:101926005903031DA62C5A08031DA62C0130F100ED
:101936007108D50764305502031C08000230F10017
:101946007108D40008005908031D08000130F10091
:101956007108D6070B305602031C08004B3055029F
:10196600031CBA2C0230F1007108D40008000130C3
:10197600F1007108D40008002000B1012100EB013C
:10198600EC01BC30F50075082000B200B3012F3021
:1019960033020318052D3208860087010108F50079
:1019A6007508F40031088A31F3228C310130F500D4
:1019B60075082000B10721006C082000A100210055
:1019C6006B082000A0003208860087010108F50098
:1019D6007508A2008C3112248C31200021082100C8
:1019E600EC00200020082100EB000130F50075080E
:1019F6002000B2070130F5007508B3072F30330217
:101A0600031CCE2CEB30F5007508B200B301023092
:101A16003302031808003208860087010108F50022
:101A26007508F40031088A31F3228C310130F50053
:101A360075082000B2070130F5007508B1070130BE
:101A4600F5007508B3070A2D2000BC1F2C2D0130A8
:101A56002D2D0030BD003D08C600460803193E2D59
:101A6600B909BA09BB09BC09B90A0319BA0A0319A3
:101A7600BB0A0319BC0A3908BD003A08BE003B0878
:101A8600BF003C08C0001030C100C037BF0CBE0C00
:101A9600BD0CC10B482D3E08C8003D08C7004808CC
:101AA600A5004708A4008830A6001330A700873198
:101AB6001C278D3120002708C5002608C4002508EC
:101AC600C3002408C2004508803ABD003C08803A9D
:101AD6003D02031D782D3B084402031D782D3A086C
:101AE6004302031D782D3908420203187E2D01306A
:101AF600C7070030C83D460803198D2D4709BD00AC
:101B06004809BE00BD0A0319BE0A3D08B9003E08D1
:101B1600BA0008004808BA004708B90008002000C3
:101B2600B301B101B201BC30F5007508B400B501CE
:101B36002F3035020318CD2D3308893177218D31A9
:101B4600F500200034088600870175088100013001
:101B5600F5007508B3073208A1003108A000340863
:101B6600860087010108F5007508A2008C31122451
:101B76008D3120002108B2002008B1000130F500A7
:101B86007508B4070130F5007508B5072F30350222
:101B9600031C9F2DEB30F5007508B400B50102302B
:101BA60035020318F12D3308893177218D31F5007F
:101BB6002000340886008701750881000130F50091
:101BC6007508B3070130F5007508B4070130F50054
:101BD6007508B50702303502031CD62D21006C08A6
:101BE60020003206031DFB2D21006B082000310664
:101BF600031DFF2D013008000030080004308A3133
:101C0600D6228E3102308B318D238E312000AA01EF
:101C16000A302A020318242E0530A7000F30A6002A
:101C2600F430A500A50B152EA60B152EA70B152E09
:101C360001302000A5002508AA070A302A02031C45
:101C46000F2E89318F218E3100308A31D6228E3186
:101C56002100BC0102302000540603194F2E20003B
:101C66005403031D2D2E21003C08031D3C2E01307C
:101C76003D2E00302000A50025082100BC003C08B0
:101C86000319472E0230482E03308A31D6228E3170
:101C960089318F218E312D2E02308B318D238E315D
:101CA60089318F218E31C8302000B1000030B2005A
:101CB6000030F400F5008A3163228E3102302000B4
:101CC600A7003830A600AD30A500A50B682EA60BE0
:101CD600682EA70B682E893183218E31003A0319AD
:101CE6007C2E0130200032022C30031931020318F9
:101CF600A92E01302000B1070030B23D310A033071
:101D060003193206031D8B2E2C30B1000130B200B0
:101D16003109A5003209A600A50A0319A60A250855
:101D2600FF3EF4000330263DF5008A3163228E31F2
:101D360002302000A7003830A600AD30A500A50B64
:101D4600A22EA60BA22EA70BA22E6E2E20003208C4
:101D56002100BE00200031082100BD0002308B3179
:101D66008D238E312000AB010A302B020318D02EB2
:101D76000530A7000F30A600F430A500A50BC12E34
:101D8600A60BC12EA70BC12E01302000A5002508E9
:101D9600AB070A302B02031CBB2EA8012808031D23
:101DA600B82FB00121003E082000B20021003D08F6
:101DB6002000B100003020003202653003193102E4
:101DC600031C3B2F893183218E31003A0319172FCB
:101DD60020003035C03E860087013108C03F3208FA
:101DE600C13F0130A5002508B00702308B318D2395
:101DF6008E312000AC010A302C020318172F053053
:101E0600A7000F30A600F430A500A50B082FA60BDF
:101E1600082FA70B082F01302000A5002508AC07C6
:101E26000A302C02031C022F01302000B1020030C0
:101E3600B23B3109A5003209A600A50A0319A60A74
:101E46002508FF3EF4000330263DF5008A31632263
:101E56008E3107302000A7001730A6006F30A5008E
:101E6600A50B332FA60B332FA70B332F0000DD2E28
:101E76003008A50025082100BF00FF30F40003301C
:101E8600F5008A3163228E3102308B318D238E31FB
:101E96002000AD010A302D020318662F0530A70079
:101EA6000F30A600F430A500A50B572FA60B572F11
:101EB600A70B572F01302000A5002508AD070A30D3
:101EC6002D02031C512FA901A90A89318F218E31B8
:101ED600200029080319D12E2000B001762F0130E9
:101EE600A5002508B00721003F082000300203188E
:101EF600B12F3035C03E86008701403FA500413FE7
:101F0600A600A509A609A50A0319A60A2508FF3EE3
:101F1600F4000330263DF5008A3163228E3120001D
:101F2600AE011E302E020318AD2F0530A7000F306C
:101F3600A600F430A500A50B9E2FA60B9E2FA70B7F
:101F46009E2F01302000A5002508AE071E302E0268
:101F5600031C982F54080319722FA9010230540646
:101F6600031D6B2FA801A80A6B2F02308B318D231E
:101F76008E312000AF010A302F020318D72F05300B
:101F8600A7000F30A600F430A500A50BC82FA60B9E
:101F9600C82FA70BC82F01302000A5002508AF07C2
:101FA6000A302F02031CC22F89318F218E310A304D
:101FB6002000A50025082100EA003F35FE3EC03E70
:101FC60086008701403F2000A500413FA600250866
:101FD600F63E2100E800FF302000263D2100E90002
:101FE60004308A31D6228E3122000C11FF30F400E3
:0A1FF6000330F5008A316322080071
:020000040001F9
:04000E00E4FFFFDF2D
:00000001FF
