:040000008031132810
:100008007E14803120007F08F9008B1A0B1D0E2802
:100018008131562179082000FF007E1009008031C7
:1000280015288131D821B000F001F101F201F30166
:10003800F401A001A101A201A301A401A501A60147
:10004800A701A8017E10200080319F288131AD21B1
:100058008031F6007608F80020002608031D59288C
:100068007808F600F70171087706031D3D28700827
:10007800760603194828F4017808F600F70176088F
:10008800F0007708F100080070037104031D0800F0
:100098000130F6007608F40706307402031C0800E5
:1000A8000130F6007608A60008007808F600F70187
:1000B80071087706031D62287008760603197128EF
:1000C800A4017808F600F7017608F0007708F10037
:1000D8000130F6007608A500080070037104031DBE
:1000E80085282508031D85280130F6007608F407C1
:1000F80064307402031C08000230F6007608F3002E
:10010800080070087104031D08000130F600760825
:10011800A4070B302402031C08004B307402031C94
:100128009A280230F6007608F30008000130F6003D
:100138007608F3000800813195218031D230200003
:10014800A9000130AA008131CC2180318B170B170F
:100158002000AF0132302F020318C7280530AE0047
:100168000F30AD00F430AC00AC0BB828AD0BB8289C
:10017800AE0BB82801302000AC002C08AF07323095
:100188002F02031CB228003081310A2180318131CD
:100198006B21803173080319CE287303031DD928F6
:1001A800033081310A218031AC2802307306031DE7
:1001B800AC28023081310A218031AC28043020007B
:1001C80030060319080002303006031DF8280130F4
:1001D800F5007508F20755307202031C0800F20199
:1001E800043022008C060800033020003006031D6E
:1001F80008000130F5007508F20714307202031C7C
:100208000800F201043022008C0608002000AA0031
:100218002A08A9002908B0002A03031D162922006C
:100228000C11080020002A08031D1D2922000C15A6
:100238000800023020002A060319262903302A065E
:10024800031D080022000C15F201080022008D0190
:100258008C011F3023008C00F8308D0020302400E2
:100268008C00FF308D00FF3021008D00FB308C00AA
:10027800951322009D019E01080021001508C03930
:10028800173895006430200095006430AB002B08C7
:10029800A8000B118B16D930A9000130AA008131B2
:1002A800CC2108000B112000280895000130A00778
:1002B8000030A13D00302102023003192002031C46
:1002C80008008131B9212000A001A1010800813175
:1002D80089212000AA00AB012A08F0002B08F100B0
:1002E800F401A401F301A601A701A5010800D03477
:1002F800D23402340034E434E134013400341434A8
:100308009F340034003401340034003020000D18CC
:100318000130A9002903031D93290030080001308A
:10032800080081312A2181318131C4218131813113
:10033800412181318131A1210800083023009F002B
:1003480090309D0024309E0040309B0003309C007C
:100358000800003020000D180130F5007503031D5A
:10036800B7290030080001300800200022082304C3
:100378000319080023088A0022080A0081310800AE
:100388007030210099009A0198011A1B0800C929A8
:1003980020002A08A3002908A20008008031E220D2
:0C03A800813180312A2008000134080057
:020000040001F9
:04000E00E4FFFFDF2D
:00000001FF
