:0400000080312928FA
:1000060008007E14803120007F08F3008B1A0B1D38
:100016000F288931F12180310B1F1A282100111E6A
:100026001A282000111E1A288A318C2280310B1FB3
:1000360024282100911E24282000911E24288A317C
:100046001E2273082000FF007E10090080312B2835
:10005600F601F701F801F9015430840000308500FB
:100066000730893168218031A03084000030850056
:100076005030893168217E10200080314228893134
:10008600CA21803104308A31C622803122000C1107
:100096002000D401D5015409CC005509CD00CC0A65
:1000A6000319CD0A4C08FF3EF40003304D3DF50020
:1000B6008A31702280318931532180315630F400E3
:1000C6000930F5008931622180318B170B178D318C
:1000D600B3258031003A031D872802308A31C622B3
:1000E60080318931AF218031023021003006031979
:1000F600812821003003031D772874288E3122269B
:1001060080318C31E02480318B319C23803100306A
:100116002100BA000030B9000030B8000030B70046
:100126008931AF2180318331E2238031003A0319CE
:10013600102B21003F080319CE283A082000AF00F3
:10014600210039082000AE00210038082000AD004B
:10015600210037082000AC00E1308400873085009C
:10016600003FB000013FB100023FB200033FB300C1
:1001760086313726803120002F082100BA00200062
:100186002E082100B90020002D082100B80020000B
:100196002C082100B70022000C15D0302000CD001D
:1001A600C930CC00CC0BD528CD0BD5280032220087
:1001B6000C1121003A082000BC002100390820005B
:1001C600BB00210038082000BA00210037082000B3
:1001D600B9008D314825803120003A082200A90057
:1001E600200039082200A800B801B80AA601072B8A
:1001F60038082000CC00CD01CC09CD09CC0A031962
:10020600CD0A2100420820004C07A0004D08031823
:100216004D0AA1000A30A2000030A3008A31542200
:1002260080312000210822002902031D1E292000FA
:10023600200822002802031CED2A38082000CC00E2
:10024600CD01CC09CD09CC0A0319CD0A21004208FB
:1002560020004C07A0004D0803184D0AA1000A30E3
:10026600A2000030A3008A315422803122002908DE
:1002760020002106031D432922002808200020060D
:10028600031D4F2922003835C33E86008701403FB3
:10029600A000413FA100052B22003835FE3EC33E9B
:1002A600860087013835C33E84008501003F200063
:1002B600CC00013FCD00CC09CD09CC0A0319CD0AEB
:1002C600403F4C07A400413F4D3DA5000030A6002D
:1002D600A700873130278031200027082200B3008D
:1002E600200026082200B200200025082200B100C6
:1002F600200024082200B00000302000A400A50041
:10030600E830A6000330A70087313027803120006F
:1003160027082200AD00200026082200AC0020009D
:1003260025082200AB00200024082200AA0033087A
:100336002000AF00220032082000AE002200310863
:100346002000AD00220030082000AC0022002D085D
:100356002000B30022002C082000B20022002B0847
:100366002000B10022002A082000B000863137267E
:10037600803120002F082200B30020002E08220022
:10038600B20020002D082200B10020002C08220017
:10039600B00038082000CC00CD01CC09CD09CC0A2C
:1003A6000319CD0A2100420820004C07A0004D0881
:1003B60003184D0AA1000A30A2000030A3008A31BA
:1003C6005422803120002108A5002008A400003016
:1003D600A600A70087313027803120002708220099
:1003E600B700200026082200B600200025082200BB
:1003F600B500200024082200B40033082000AF0016
:10040600220032082000AE00220031082000AD0094
:10041600220030082000AC00220037082000B3007C
:10042600220036082000B200220035082000B10064
:10043600220034082000B0008631372680312000A3
:100446002F082200B70020002E082200B600200048
:100456002D082200B50020002C082200B4003835F3
:10046600C33E86008701403F2000A400413FA5000F
:100476000030A600A70087313027803120002708EA
:100486002200AD00200026082200AC00200025082E
:100496002200AB00200024082200AA002A0820001F
:1004A600CC0022002B082000CD0022002C082000C2
:1004B600CE0022002D082000CF00220034092000A3
:1004C600D000220035092000D10022003609200084
:1004D600D200220037092000D300D00A0319D10A1E
:1004E6000319D20A0319D30A5008CC075108CD3D87
:1004F6005208CE3D5308CF3D4F082200B7002000DA
:100506004E082200B60020004D082200B50020004B
:100516004C082200B40033082000AF002200320845
:100526002000AE00220031082000AD002200300875
:100536002000AC0021003A082000B3002100390851
:100546002000B200210038082000B1002100370841
:100556002000B00086313726803120002C0822008A
:1005660034072000CC002D082200353D2000CD00A8
:100576002E082200363D2000CE002F082200373DEF
:100586002000CF004F082200A50020004E082200C0
:10059600A40020004D082200A30020004C082200E1
:1005A600A20025082000BC00220024082000BB0071
:1005B600220023082000BA00220022082000B900E9
:1005C6008D314825803120003A082200A100200004
:1005D6003908032B21004208FF3E2000CC00FF30E3
:1005E60003180030CD002200380820004C064D04C8
:1005F600031D072B21006C082200A10021006B08B7
:100606002200A000A601A60A210042082200380204
:100616000318102B26080319FB2802302100300688
:10062600031D2F2B2000D401D5015409CC005509F8
:10063600CD00CC0A0319CD0A4C08FF3EF400033066
:100646004D3DF5008A31702280318E31222680316F
:100656008C31E0248031962821003003031D962832
:10066600932868302000CD00E430CC00CC0B392B29
:10067600CD0B392B00006B30F4000330F5008A31C6
:10068600702280312200AE0132302E020318622B16
:1006960005302000CE000F30CD00F430CC00CC0B5E
:1006A600522BCD0B522BCE0B522B01302000CC00FF
:1006B6004C082200AE0732302E02031C4B2B2200C0
:1006C6002703031D6C2B01302000D4070030D53DD5
:1006D600712B01302000D4020030D53B0130550289
:1006E6002D3003195402031C7B2B2200A701B72BC4
:1006F600200054085504031DB72B2200A701A70AA2
:10070600FF30F4000330F5008A3170228031220078
:10071600AF0132302F020318A72B05302000CE0080
:100726000F30CD00F430CC00CC0B972BCD0B972B94
:10073600CE0B972B01302000CC004C082200AF07CF
:1007460032302F02031C902B0030F400F5008A3162
:100756007022803168302000CD00E430CC00CC0B14
:10076600B22BCD0BB22B0000003020005502943086
:10077600031954020318C32B7830F4000330D02B2E
:1007860020005409CC005509CD00CC0A0319CD0A26
:100796004C08FF3EF40003304D3DF5008A317022CF
:1007A600803103302000CE000830CD007830CC00F8
:1007B600CC0BDB2BCD0BDB2BCE0BDB2B622B2000EC
:1007C600CA01C201CB0124304B060319F52B780868
:1007D6000319E62B8A31E32283312000B900390858
:1007E600CB00E62B78080319F52B8A31E3228331F7
:1007F6002000B9003908CB004B08B9003908C206F9
:100806002C304B060319192C4B08B9004A08433EF5
:1008160086008701390881000130B9003908CA0706
:1008260006304A02031CF52B003008004730430609
:10083600031D2D2C50304406031D2D2C5630450625
:10084600031D2D2C54304606031D2D2C473047061C
:1008560003192F2C00300800CA0178080319302C20
:100866008A31E32283312000B9003908CB004B08D6
:10087600B9003908C2062C304B06031D302C780807
:100886000319422C8A31E32283312000B90039084A
:10089600CB004B08B9003908C2062C304B060319A9
:1008A600662C4B08B9004A08433E86008701390882
:1008B60081000130B9003908CA0706304A02031C14
:1008C600422C003008005430430603194A0303192A
:1008D6006E2C00300800CA01780803196F2C8A3183
:1008E600E32283312000B9003908CB004B08B90058
:1008F6003908C2062C304B06031D6F2C78080319E5
:10090600812C8A31E32283312000B9003908CB00DB
:100916004B08B9003908C2062C304B060319A52C22
:100926004B08B9004A08433E860087013908810012
:100936000130B9003908CA0706304A02031C812C67
:10094600003008004D30430603194A030319AD2C45
:1009560000300800CA0178080319AE2C8A31E32258
:1009660083312000B9003908CB004B08B90039089B
:10097600C2062C304B06031DAE2C78080319C02C7A
:100986008A31E32283312000B9003908CB004B08B5
:10099600B9003908C2062C304B060319E42C4B0863
:1009A600B9004A08433E86008701390881000130B4
:1009B600B9003908CA0706304A02031CC02C0030A9
:1009C60008004E30430603194A030319EC2C003085
:1009D6000800CA0178080319ED2C8A31E322833115
:1009E6002000B9003908CB004B08B9003908C20607
:1009F6002C304B060319112D4B08B9004A08433E0B
:100A060086008701390881000130B9003908CA0714
:100A160006304A02031CED2C00300800C901BD0156
:100A2600BE01BF01C001BB01BB0A4A084902031847
:100A36007B2D4908433E860087012E300106031DA3
:100A4600262DBB01762D4908433E860087013030AE
:100A56000102031C362D4908433E860087013A30C1
:100A66000102031C382D003008003B080319592DDC
:100A76003E08A1003D08A0000A30A2000030A300F5
:100A86008A315422833120004908433E860087017B
:100A960001082007B90021080318210ABA003908FD
:100AA600D03EBD00FF303A3DBE00762D4008A10085
:100AB6003F08A0000A30A2000030A3008A31542269
:100AC600833120004908433E86008701010820073C
:100AD600B90021080318210ABA003908D03EBF0020
:100AE600FF303A3DC0000130B9003908C907182D5A
:100AF6006430A0000030A1004008A3003F08A20017
:100B06008A315422833120002108C0002008BF000A
:100B1600CA01780803198C2D8A31E322833120001B
:100B2600B9003908CB004B08B9003908C2062C3089
:100B36004B060319B02D4B08B9004A08433E860000
:100B46008701390881000130B9003908CA07063023
:100B56004A02031C8C2D003008004B304306031953
:100B66004A030319B82D00300800CA01BC017808F1
:100B76000319BA2D8A31E32283312000B9003908DE
:100B8600CB002A304B06031DCA2DBC01BC0A3C080B
:100B9600031DD12D4B08B9003908C2060D304B068E
:100BA6000319E72D4B08B9004A08433E8600870122
:100BB600390881000130B9003908CA0706304A02EF
:100BC600031CBA2D003008002A304406031DEF2D01
:100BD60004304A060319F12D00300800C1013A30ED
:100BE6004502031CF92D4508C93EFB2D4508D03E9C
:100BF600B9003908C1004108B9000330B935FF3ED4
:100C0600031D012E3935BA003A08C1003A304602B2
:100C1600031C102E4608C93E122E4608D03EB900C7
:100C26003908C10742084106031D352E3E08A500B6
:100C36003D08A4004008A7003F08A60087313027DA
:100C4600200027082100BA00200026082100B9004C
:100C5600200025082100B800200024082100B70044
:100C6600013008000030080020002C08B4002D08D0
:100C7600B5002E08B6002F08B7001030B800B737F9
:100C8600B60CB50CB40CB80B422E3708A3003608C8
:100C9600A2003508A1003408A0003008B9003108C8
:100CA600BA003208BB003308BC001030BD00BC37A8
:100CB600BB0CBA0CB90CBD0B5A2E3C08A7003B085E
:100CC600A6003A08A5003908A4008B316C238631AA
:100CD60020002008BE002108BF002208C00023080B
:100CE600C1001030BE35BF0DC00DC10D890B752E6C
:100CF6004108C5004008C4003F08C3003E08C200C2
:100D06002C08B4002D08B5002E08B6002F08B70031
:100D16001030B800B737B60CB50CB40CB80B8D2E26
:100D26003708A3003608A2003508A1003408A00041
:100D3600FF303005A400FF303105A5000030320534
:100D4600A60000303305A7008B316C2386312000C6
:100D56002008C2072108C33D2208C43D2308C53D1B
:100D66003008B4003108B5003208B6003308B700C1
:100D76001030B800B737B60CB50CB40CB80BBD2E96
:100D86003708A3003608A2003508A1003408A000E1
:100D9600FF302C05A400FF302D05A50000302E05E0
:100DA600A60000302F05A7008B316C23863120006A
:100DB6002008C2072108C33D2208C43D2308C53DBB
:100DC600FF30B400FF30B5000030B6000030B70089
:100DD600FF302C05A000FF302D05A10000302E05A8
:100DE600A20000302F05A300FF303005A400FF301D
:100DF6003105A50000303205A60000303305A700F6
:100E06008B316C23863120002008B8002108B900F8
:100E16002208BA002308BB001030BC00BB37BA0C4E
:100E2600B90CB80CBC0B112F3808B4053908B50538
:100E36003A08B6053B08B7053408C2073508C33D6E
:100E46003608C43D3708C53D4508AF004408AE0026
:100E56004308AD004208AC00080000302000B8008E
:100E66000030B7000030B6000030B5002408B500E9
:100E76002508B600890D893B8909B700B8003508F1
:100E8600A8003608A9003708AA003808AB001030B9
:100E9600A835A90DAA0DAB0D890B4B2F2B08B80051
:100EA6002A08B7002908B6002808B5002708B400A4
:100EB6002608B300B001B101B201103032020318A6
:100EC600962F3335B300340DB4002730340210307A
:100ED60003193302031C8E2FE5308400873085000A
:100EE600003FA800013FA9003208013EFF3A013E3B
:100EF600103E890A802FA835A90D890B7E2F300850
:100F06002804B00031082904B1003308F03EB300CC
:100F1600D830343DB4000130A8002808B20710309C
:100F26003202031C642FB81FB22F3508A8003608FA
:100F3600A9003708AA003808AB003008AC00310811
:100F4600AD00AE01AF01AC09AD09AE09AF09AC0AFF
:100F56000319AD0A0319AE0A0319AF0AC02F3508E3
:100F6600A8003608A9003708AA003808AB003008E0
:100F7600AC003108AD00AE01AF012C08A8072D0862
:100F8600A93D2E08AA3D2F08AB3D2B08B8002A081C
:100F9600B7002908B6002808B5003808A7003708A2
:100FA600A6003608A5003508A4000800D034D234BF
:100FB60002340034E434E13401340034F9349E342C
:100FC6000034003401340034243450344D34543465
:100FD6004B343334313434342C3430342C343034D0
:100FE6002C3431342C3430342C3430342C343034EA
:100FF6002C3430342C3430342C3430342C343034DB
:101006002C3430342C3430342C3430342C343034CA
:101016002C3430342C3430342C3430342C343034BA
:101026002C3430342A34323439340D340A34003412
:10103600243450344D3454344B3432343234303416
:101046002C343134303430342A34323446340D348E
:041056000A34003424
:1012A60020001C1508008B31462389318C3182249D
:1012B60008002000A00020088B31232308007508B1
:1012C6002100BE007408BD000800640080010131E1
:1012D600890B692900347030210099009A01980120
:1012E6001A1B08007329023020009C00FF309B0067
:1012F6009A01911089315321080021003D083E04CE
:10130600031908003E088A003D080A0089310800D2
:10131600003020000D180130F0007003031D9529E0
:101326000030080001300800F40074082300910022
:101336001513951315140000000023001308080068
:10134600003020000D180130F4007403031DAD2990
:1013560000300800013008008931A321F500750826
:101366002100B500B101B201B001B301B401B6016B
:1013760008003C3025009300950180309400013030
:1013860096007F3091009201FC309E0508008A315C
:101396000722893189316E2189318931BC21893110
:1013A6008931762189318931DC2189318A313922A5
:1013B600080021001508C039173895006430200050
:1013C60095006430A0002008F9000B118B1603303D
:1013D600F4000030F5008931622108000B1179080C
:1013E6002000950001302100BB070030BC3D0030D5
:1013F6003C02023003193B02031C0800893180219C
:101406002100BB01BC01080022008D018C011F30A8
:1014160023008C00F0308D00203024008C00FF303B
:101426008D00F73021008D00FB308C0095132200D3
:101436009D019E01080023009D1C232A9D139D17D4
:101446001908F00020005608A03E860087017008A3
:1014560081000130F0007008D607083056020318E4
:10146600D6010130F0007008F8070800210091123B
:101476001112083023009F0090309D0024309E00FA
:1014860040309B0003309C002000D901DA0108306F
:10149600F4007408D800D601D701F801210091168E
:1014A6000800F401F5012000201C5D2A2208F4073B
:1014B6002308F53D0130A235A30D890B5E2A0130C4
:1014C600A136A00C890B632A20082104031D562A85
:1014D6007508A1007408A000080075082000A10086
:1014E6007408A000A136A00CA136A00C2008250087
:1014F6009100740803392000A0000430A035890B40
:10150600812A25001308CF392000200425009300E6
:1015160008000830200058020318A62A5A08A83ED8
:1015260086008701010823009A000130F000700848
:101536002000DA0708305A020318DA010130F000F9
:101546007008D80708002100111208002330200077
:10155600A3002308A60020002208A4002108A30057
:10156600A10A0319A20A230884002408850000089A
:10157600A5002508A70027080319080027088931B0
:101586005C218A31AE2AF5007508F4007408F6006D
:10159600F7017503031DD22A22000C1108007508F5
:1015A600031DD82A22000C150800023075060319FF
:1015B600E02A03307506031D080022000C150800FA
:1015C600F50123009D1678080319E62A21009112D9
:1015D60020005708A03E860087010108F400740821
:1015E600F5000130F4007408D707083057020318D5
:1015F600D7010130F8022100911675080800200075
:10160600A000A101200823009100740893009513FF
:101616001513151500308B1B01302000A1008B130C
:10162600553023009600AA30960095149518192B6C
:1016360015112000210C031C8B1303188B170800AF
:10164600F500200058080319242B2100111A2F2B0E
:10165600750823009A00432B11127508F400200028
:101666005908A83E86008701740881000130F400FD
:101676007408D907083059020318D9010130D80275
:1016860021001116080004307606031908000230FE
:101696007606031D5B2B0130F0007008F7073C301F
:1016A6007702031C0800F701043022008C060800AC
:1016B60003307606031D08000130F0007008F707B6
:1016C6000F307702031C0800F701043022008C0655
:1016D600080000302000AB000030AA000030A9004E
:1016E6000030A800201C7F2B2408A8072508A93D48
:1016F6002608AA3D2708AB3D0130A435A50DA60D49
:10170600A70D890B802B0130A336A20CA10CA00CCF
:10171600890B872B2308220421042004031D752B23
:101726002B08A3002A08A2002908A1002808A00067
:1017360008002000AB010A302B020318B72B053036
:10174600AA000F30A900F430A800A80BA82BA90BFB
:10175600A82BAA0BA82B01302000A8002808AB074D
:101766000A302B02031CA22BE730A1008730A2000F
:101776008A31A9228B3105302000AA000F30A9003A
:10178600F430A800A80BC52BA90BC52BAA0BC52B9B
:101796001B302000A1008830A2008A31A9228B319B
:1017A60005302000AA000F30A900F430A800A80BCD
:1017B600DA2BA90BDA2BAA0BDA2B08002000220859
:1017C600A300A4012108A6002008A5002608A5005C
:1017D600A60123082506A70024082606A800FF3030
:1017E6002705AF0000302805B0003008A4002F08F8
:1017F600A3000430A436A30C890BFD2B2308AF06E7
:101806002408B0063008A4002F08A3000530A3352D
:10181600A40D890B0A2C3008A6002F08A500250E5A
:10182600F039A600A5012008A800A701250827066B
:10183600A90026082806AA0023082906AB002408C2
:101846002A06AC002F082B06AD0030082C06AE0089
:101856002E08A1002D08A000080004308A31C622F7
:101866008C3122000C110B302000A2002630A10082
:101876006630A000A00B3D2CA10B3D2CA20B3D2CED
:10188600003222000C1503302000A2000830A1000F
:101896007830A000A00B4D2CA10B4D2CA20B4D2C8B
:1018A60022000C1103302000A2000830A10078307D
:1018B600A000A00B5C2CA10B5C2CA20B5C2C2200C4
:1018C6000C1503302000A2000830A1007830A000DB
:1018D600A00B6B2CA10B6B2CA20B6B2C22000C11FA
:1018E6000B302000A2002630A1006630A000A00B1D
:1018F6007A2CA10B7A2CA20B7A2C003208008931A3
:101906008B218C31F1007108F20021003308031D90
:10191600A62C350872060319962CB1017208F1003F
:101926007108B50008003503031D08000130F100F9
:101936007108B10706303102031C08000130F100BE
:101946007108B3000800350872060319B42CB201F9
:101956007208F1007108B5000130F1007108B60097
:1019660008003503031DC72C3608031DC72C01309C
:10197600F1007108B10764303102031C080002301F
:10198600F1007108B00008003508031D0800013099
:10199600F1007108B2070B303202031C08004B300D
:1019A6003102031CDB2C0230F1007108B000080084
:1019B6000130F1007108B00008002000B1012100DB
:1019C600EE01EF01BF30F50075082000B200B3014B
:1019D6002F3033020318262D3208860087010108AE
:1019E600F5007508F40031088B3102238C31013083
:1019F600F50075082000B10721006F082000A1003E
:101A060021006E082000A000320886008701010828
:101A1600F5007508A2008B31E1238C3120002108E6
:101A26002100EF00200020082100EE000130F50023
:101A360075082000B2070130F5007508B3072F308E
:101A46003302031CEF2CEE30F5007508B200B3012B
:101A560002303302031808003208860087010108A5
:101A6600F5007508F40031088B3102238C31013002
:101A7600F50075082000B2070130F5007508B107BA
:101A86000130F5007508B3072B2D2000BC1F4D2D26
:101A960001304E2D0030BD003D08C6004608031932
:101AA6005F2DB909BA09BB09BC09B90A0319BA0AF3
:101AB6000319BB0A0319BC0A3908BD003A08BE005F
:101AC6003B08BF003C08C0001030C100C037BF0C47
:101AD600BE0CBD0CC10B692D3E08C8003D08C700F1
:101AE6004808A5004708A4008830A6001330A700C0
:101AF600873130278D3120002708C5002608C4000D
:101B06002508C3002408C2004508803ABD003C08E9
:101B1600803A3D02031D992D3B084402031D992D71
:101B26003A084302031D992D3908420203189F2DD6
:101B36000130C7070030C83D46080319AE2D4709D6
:101B4600BD004809BE00BD0A0319BE0A3D08B9001A
:101B56003E08BA0008004808BA004708B90008005D
:101B66002000B301B101B201BF30F5007508B40021
:101B7600B5012F3035020318EE2D33088931972130
:101B86008D31F50020003408860087017508810034
:101B96000130F5007508B3073208A1003108A0002E
:101BA6003408860087010108F5007508A2008B310C
:101BB600E1238D3120002108B2002008B100013058
:101BC600F5007508B4070130F5007508B5072F3024
:101BD6003502031CC02DEE30F5007508B400B501C2
:101BE600023035020318122E3308893197218D31C0
:101BF600F500200034088600870175088100013051
:101C0600F5007508B3070130F5007508B407013013
:101C1600F5007508B50702303502031CF72D2100C3
:101C26006F0820003206031D1C2E21006E082000BE
:101C36003106031D202E01300800003008008C31CB
:101C460030248E318931AF218E3100308A31C6225F
:101C56008E312100BF0102302100300603194E2EBD
:101C66003003031D2E2E3F08031D3B2E01303C2E54
:101C760000302000A30023082100BF003F080319FD
:101C8600462E0230472E03308A31C6228E318931E4
:101C9600AF218E312E2E8C3130248E318931AF21F9
:101CA6008E31C8302000D4000030D5000030F4005A
:101CB600F5008A3170228E3102302000A5003830BE
:101CC600A400AD30A300A30B662EA40B662EA50BB5
:101CD600662E8931A3218E31003A03197A2E0130FE
:101CE600200055022C30031954020318A72E013088
:101CF6002000D4070030D53D540A03300319550699
:101D0600031D892E2C30D4000130D5005409A300C0
:101D16005509A400A30A0319A40A2308FF3EF400E8
:101D26000330243DF5008A3170228E3102302000C6
:101D3600A5003830A400AD30A300A30BA02EA40B41
:101D4600A02EA50BA02E6C2E200055082100C10048
:101D5600200054082100C0008C3130248E31200030
:101D6600A8010A3028020318CD2E0530A5000F3031
:101D7600A400F430A300A30BBE2EA40BBE2EA50B0D
:101D8600BE2E01302000A3002308A8070A3028022F
:101D9600031CB82EA6012608031DB82FAD0121008D
:101DA60041082000D500210040082000D400003062
:101DB60020005502653003195402031C372F893160
:101DC600A3218E31003A0319132F20002D35C33E6F
:101DD600860087015408C03F5508C13F0130A30063
:101DE6002308AD078C3130248E312000A9010A303A
:101DF60029020318132F0530A5000F30A400F43074
:101E0600A300A30B042FA40B042FA50B042F013052
:101E16002000A3002308A9070A302902031CFE2E6E
:101E260001302000D4020030D53B5409A3005509E7
:101E3600A400A30A0319A40A2308FF3EF4000330F2
:101E4600243DF5008A3170228E3107302000A5002E
:101E56001730A4006F30A300A30B2F2FA40B2F2F36
:101E6600A50B2F2F0000DA2E2D08A3002308210032
:101E7600C200FF30F4000330F5008A3170228E3143
:101E86008C3130248E312000AA010A302A02031830
:101E9600612F0530A5000F30A400F430A300A30B7A
:101EA600522FA40B522FA50B522F01302000A30056
:101EB6002308AA070A302A02031C4C2FA701A70AE7
:101EC6008931AF218E31200027080319CE2E20003C
:101ED600AD01722F01302000A3002308AD072100B9
:101EE600420820002D020318AF2F2D35C33E860071
:101EF6008701403FA300413FA400A309A409A30A08
:101F06000319A40A2308FF3EF4000330243DF5001C
:101F16008A3170228E312000AB011E302B0203184D
:101F2600A92F0530A5000F30A400F430A300A30BA1
:101F36009A2FA40B9A2FA50B9A2F01302000A300ED
:101F46002308AB071E302B02031C942F21003008F8
:101F560003196D2F2000A701023021003006031D52
:101F6600662F2000A601A60A662F8C3130248E31FA
:101F76002000AC010A302C020318D62F0530A5002C
:101F86000F30A400F430A300A30BC72FA40BC72F58
:101F9600A50BC72F01302000A3002308AC070A3089
:101FA6002C02031CC12F8931AF218E31210042350D
:101FB600FE3EC33E86008701403F2000A300413F0E
:101FC600A4002308F63E2100EB00FF302000243D4C
:101FD6002100EC000A302000A30023082100ED00B8
:101FE60004308A31C6228E3122000C11FF30F400F3
:0A1FF6000330F5008A317022080064
:020000040001F9
:04000E00E4FFFFDF2D
:00000001FF
