:0400000080312928FA
:1000060008007E14803120007F08F3008B1A0B1D38
:100016000F288E31712680310B1F1A282100111EE0
:100026001A282000111E1A288F31202780310B1F15
:1000360024282100911E24282000911E24288E3178
:10004600B22673082000FF007E10090080312B289D
:10005600F601F701F801F9014B3084000030850004
:100066001E308E3121268031A0308400003085007C
:1000760037308E3121267E1020008231902A2000D2
:10008600C601BE01C7012430470603195528780862
:10009600031946288F31772780312000B5003508AF
:1000A600C70046287808031955288F3177278031ED
:1000B6002000B5003508C7004708B5003508BE065C
:1000C6002C304706031979284708B50046083F3EF5
:1000D60086008701350881000130B5003508C6075E
:1000E60006304602031C55280030080047303F06FC
:1000F600031D8D2850304006031D8D2856304106BD
:10010600031D8D2854304206031D8D2847304306B3
:1001160003198F2800300800C601780803199028B3
:100126008F31772780312000B5003508C700470892
:10013600B5003508BE062C304706031D9028780802
:100146000319A2288F31772780312000B5003508A2
:10015600C7004708B5003508BE062C304706031908
:10016600C6284708B50046083F3E86008701350881
:1001760081000130B5003508C60706304602031C6B
:10018600A2280030080054303F060319460303191D
:10019600CE2800300800C60178080319CF288F3111
:1001A600772780312000B5003508C7004708B5001D
:1001B6003508BE062C304706031DCF2878080319DC
:1001C600E1288F31772780312000B5003508C70038
:1001D6004708B5003508BE062C3047060319052921
:1001E6004708B50046083F3E86008701350881006E
:1001F6000130B5003508C60706304602031CE12863
:10020600003008004D303F060319460303190D2937
:1002160000300800C601780803190E298F317727A8
:1002260080312000B5003508C7004708B5003508FD
:10023600BE062C304706031D0E297808031920290F
:100246008F31772780312000B5003508C700470871
:10025600B5003508BE062C30470603194429470861
:10026600B50046083F3E860087013508810001300B
:10027600B5003508C60706304602031C20290030A3
:1002860008004E303F060319460303194C29003077
:100296000800C601780803194D298F317727803168
:1002A6002000B5003508C7004708B5003508BE066A
:1002B6002C304706031971294708B50046083F3E0A
:1002C60086008701350881000130B5003508C6076C
:1002D60006304602031C4D2900300800C501B9014D
:1002E600BA01BB01BC01B701B70A460845020318AB
:1002F600DB2945083F3E860087012E300106031D97
:100306008629B701D62945083F3E86008701303049
:100316000102031C962945083F3E860087013A30B4
:100326000102031C98290030080037080319B9296F
:100336003A08A1003908A0000A30A2000030A30044
:100346008F3104278031200045083F3E8600870113
:1003560001082007B50021080318210AB600350850
:10036600D03EB900FF30363DBA00D6293C08A10080
:100376003B08A0000A30A2000030A3008F310427FA
:100386008031200045083F3E86008701010820078E
:10039600B50021080318210AB6003508D03EBB0077
:1003A600FF30363DBC000130B5003508C507782959
:1003B6006430A0000030A1003C08A3003B08A20066
:1003C6008F310427803120002108BC002008BB00A3
:1003D600C60178080319EC298F3177278031200070
:1003E600B5003508C7004708B5003508BE062C30ED
:1003F60047060319102A4708B50046083F3E8600FF
:100406008701350881000130B5003508C60706307A
:100416004602031CEC29003008004B303F06031946
:1004260046030319182A00300800C601B8017808E7
:1004360003191A2A8F31772780312000B500350835
:10044600C7002A304706031D2A2AB801B80A380809
:10045600031D312A4708B5003508BE060D3047068C
:100466000319472A4708B50046083F3E860087011C
:10047600350881000130B5003508C607063046024A
:10048600031C1A2A003008002A304006031D4F2A92
:10049600043046060319512A00300800BD013A30DF
:1004A6004102031C592A4108C93E5B2A4108D03E35
:1004B600B5003508BD003D08B5000330B535FF3E33
:1004C600031D612A3535B6003608BD003A304202B2
:1004D600031C702A4208C93E722A4208D03EB50063
:1004E6003508BD073E083D06031D8E2A3A08A100C1
:1004F6003908A0003C08A3003B08A20085310D2561
:1005060020002308DD002208DC002108DB0020088B
:10051600DA0001300800003008008E315F26823193
:1005260004308F315A27823122000C150930F4002D
:100536000E30F5008E31152682318B170B172100F0
:10054600D8011E3058020318BF2A05302000CA0001
:100556000F30C900F430C800C80BAF2AC90BAF2A48
:10056600CA0BAF2A01302000C80048082100D8076E
:100576001E305802031CA82A8531B6258231003A5E
:100586000319E32A02308F315A2782312100D9011B
:100596003230590203180A2B05302000CA000F30EA
:1005A600C900F430C800C80BD62AC90BD62ACA0B14
:1005B600D62A01302000C80048082100D907CB2AD6
:1005C60003308F315A2782312100DA0132305A0244
:1005D6000318042B05302000CA000F30C900F43080
:1005E600C800C80BF42AC90BF42ACA0BF42A013036
:1005F6002000C80048082100DA0732305A02031CDE
:10060600ED2A8E311B268231863121268231013038
:100616008F315A2782310E2B05302000CA000F3049
:10062600C900F430C800C80B162BC90B162BCA0B11
:10063600162B01302000C80048082100DB073230A5
:100646005B02031C0F2BD701D70A0030F400F5001C
:100656008E31E826823168302000C900E430C800B7
:10066600C80B332BC90B332B00006B30F40003305F
:10067600F5008E31E82682312100DC0132305C0241
:1006860003185C2B05302000CA000F30C900F43077
:10069600C800C80B4C2BC90B4C2BCA0B4C2B01307A
:1006A6002000C80048082100DC0732305C02031C29
:1006B600452B21005703031D652B0130DE07003053
:1006C600DF3D692B0130DE020030DF3B01305F0287
:1006D6002D3003195E02031C722BD701AC2B5E086A
:1006E6005F04031DAC2BD701D70AFF30F40003309B
:1006F600F5008E31E82682312100DD0132305D02BF
:1007060003189C2B05302000CA000F30C900F430B6
:10071600C800C80B8C2BC90B8C2BCA0B8C2B013039
:100726002000C80048082100DD0732305D02031CA6
:10073600852B0030F400F5008E31E82682316830D2
:100746002000C900E430C800C80BA72BC90BA72B93
:100756000000003021005F02943003195E02031886
:10076600B82B7830F4000330C82B21005E09200036
:10077600C80021005F092000C900C80A0319C90A78
:100786004808FF3EF4000330493DF5008E31E82667
:10079600823103302000CA000830C9007830C80012
:1007A600C80BD32BC90BD32BCA0BD32B5C2B803195
:1007B60042208231003A0319DA2B21002808031956
:1007C600052C20005D08AF005C08AE005B08AD009C
:1007D6005A08AC00E530840086308500003FB00042
:1007E600013FB100023FB200033FB300843114243D
:1007F600823120002F08DD002E08DC002D08DB00EA
:100806002C08DA0022000C15D0302000C900C930AF
:10081600C800C80B0C2CC90B0C2C003222000C1182
:10082600DA2B20002C08B4002D08B5002E08B600DF
:100836002F08B7001030B800B737B60CB50CB40C9B
:10084600B80B1F2C3708A3003608A2003508A100F4
:100856003408A0003008B9003108BA003208BB00DD
:100866003308BC001030BD00BC37BB0CBA0CB90C49
:10087600BD0B372C3C08A7003B08A6003A08A5008C
:100886003908A4008731C527843120002008BE001E
:100896002108BF002208C0002308C1001030BE3561
:1008A600BF0DC00DC10D890B522C4108C500400873
:1008B600C4003F08C3003E08C2002C08B4002D083F
:1008C600B5002E08B6002F08B7001030B800B737AD
:1008D600B60CB50CB40CB80B6A2C3708A300360856
:1008E600A2003508A1003408A000FF303005A4009E
:1008F600FF303105A50000303205A6000030330573
:10090600A7008731C527843120002008C2072108A7
:10091600C33D2208C43D2308C53D3008B400310854
:10092600B5003208B6003308B7001030B800B73744
:10093600B60CB50CB40CB80B9A2C3708A3003608C5
:10094600A2003508A1003408A000FF302C05A40041
:10095600FF302D05A50000302E05A60000302F051E
:10096600A7008731C527843120002008C207210847
:10097600C33D2208C43D2308C53DFF30B400FF3007
:10098600B5000030B6000030B700FF302C05A000DF
:10099600FF302D05A10000302E05A20000302F05E6
:1009A600A300FF303005A400FF303105A50000305C
:1009B6003205A60000303305A7008731C5278431EC
:1009C60020002008B8002108B9002208BA00230830
:1009D600BB001030BC00BB37BA0CB90CB80CBC0B52
:1009E600EE2C3808B4053908B5053A08B6053B08B3
:1009F600B7053408C2073508C33D3608C43D370875
:100A0600C53D4508AF004408AE004308AD004208A6
:100A1600AC00080000302000B4000030B300003005
:100A2600B2000030B1002008B1002108B200890DE3
:100A3600893B8909B300B4003108A4003208A50037
:100A46003308A6003408A7001030A435A50DA60D5E
:100A5600A70D890B282D2708B4002608B300250802
:100A6600B2002408B1002308B0002208AF00AC0190
:100A7600AD01AE0110302E020318732D2F35AF00D5
:100A8600300DB00027303002103003192F02031C3E
:100A96006B2DE930840086308500003FA400013FBD
:100AA600A5002E08013EFF3A013E103E890A5D2D43
:100AB600A435A50D890B5B2D2C082404AC002D084C
:100AC6002504AD002F08F03EAF00D830303DB00011
:100AD6000130A4002408AE0710302E02031C412D5D
:100AE600B41F8F2D3108A4003208A5003308A600D4
:100AF6003408A7002C08A8002D08A900AA01AB01FC
:100B0600A809A909AA09AB09A80A0319A90A031978
:100B1600AA0A0319AB0A9D2D3108A4003208A500C4
:100B26003308A6003408A7002C08A8002D08A90041
:100B3600AA01AB012808A4072908A53D2A08A63D55
:100B46002B08A73D2708B4002608B3002508B200E5
:100B56002408B1003408A3003308A2003208A1001B
:100B66003108A00008002000B301B101B201A8308D
:100B7600F5007508B400B5012F3035020318F12DC4
:100B860033088E3145268531F5002000340886006D
:100B96008701750881000130F5007508B307320832
:100BA600A1003108A0003408860087010108F5007D
:100BB6007508A20087313127853120002108B2004F
:100BC6002008B1000130F5007508B4070130F500C2
:100BD6007508B5072F303502031CC32D6730F500A5
:100BE6007508B400B501023035020318152E330816
:100BF6008E3145268531F5002000340886008701B0
:100C0600750881000130F5007508B3070130F5005D
:100C16007508B4070130F5007508B50702303502CE
:100C2600031CFA2D68083206031D1B2E67083106C1
:100C3600031D1F2E01300800003008002000B101FE
:100C4600E701E801A830F5007508B200B3012F30BE
:100C5600330203185D2E3208860087010108F5006D
:100C66007508F40031088F31962786310130F5007A
:100C760075082000B1076808A1006708A0003208BF
:100C8600860087010108F5007508A2008731312723
:100C9600863120002108E8002008E7000130F50031
:100CA6007508B2070130F5007508B3072F30330217
:100CB600031C2E2E6730F5007508B200B301023012
:100CC6003302031808003208860087010108F50080
:100CD6007508F40031088F31962786310130F5000A
:100CE60075082000B2070130F5007508B10701301C
:100CF600F5007508B307622E8E3139268631F1006C
:100D06007108F20020005608031DA32E580872062B
:100D16000319932ED4017208F1007108D800080057
:100D26005803031D08000130F1007108D40706308E
:100D36005402031C08000130F1007108D6000800B7
:100D4600580872060319B12ED5017208F100710810
:100D5600D8000130F1007108D90008005803031DBE
:100D6600C42E5908031DC42E0130F1007108D407A2
:100D760064305402031C08000230F1007108D300ED
:100D860008005808031D08000130F1007108D50756
:100D96000B305502031C08004B305402031CD82E9E
:100DA6000230F1007108D30008000130F10071082B
:100DB600D3000800D034D23402340034E434E134B1
:100DC60001340034F9349E340034003401340034E4
:100DD600243450344D3454344B3433343134343475
:100DE6002C3430342C3430342C3431342C343034EC
:100DF6002C3430342C3430342C3430342C343034DD
:100E06002C3430342C3430342C3430342C343034CC
:100E16002C3430342C3430342C3430342C343034BC
:100E26002C3430342C3430342C3430342A343234AC
:100E360039340D340A340034243450344D345434A7
:100E46004B343234323430342C3431343034303460
:100E56002A34323446340D340A3400342000220851
:100E6600A300A4012108A6002008A5002608A500C5
:100E7600A60123082506A70024082606A800FF3099
:100E86002705AF0000302805B0003008A4002F0861
:100E9600A3000430A436A30C890B4D2F2308AF06FC
:100EA6002408B0063008A4002F08A3000530A33597
:100EB600A40D890B5A2F3008A6002F08A500250E71
:100EC600F039A600A5012008A800A70125082706D5
:100ED600A90026082806AA0023082906AB0024082C
:100EE6002A06AC002F082B06AD0030082C06AE00F3
:100EF6002E08A1002D08A00008002000AB010A3032
:100F06002B0203189B2F0530AA000F30A900F430DE
:100F1600A800A80B8C2FA90B8C2FAA0B8C2F0130A5
:100F26002000A8002808AB070A302B02031C862FD6
:100F3600EB30A1008630A2008F313D278731053086
:100F46002000AA000F30A900F430A800A80BA92F92
:100F5600A90BA92FAA0BA92F1F302000A1008730AB
:100F6600A2008F313D27873105302000AA000F30BF
:100F7600A900F430A800A80BBE2FA90BBE2FAA0B00
:100F8600BE2F080000302000AB000030AA00003061
:100F9600A9000030A800201CD82F2408A80725087F
:100FA600A93D2608AA3D2708AB3D0130A435A50D6D
:100FB600A60DA70D890BD92F0130A336A20CA10CC3
:100FC600A00C890BE02F2308220421042004031D12
:100FD600CE2F2B08A3002A08A2002908A100280862
:100FE600A0000800200060086104031908006108D9
:0A0FF6008A0060080A008731080035
:101C0C0020001C1508008F31DA278E3186317F2693
:101C1C0008002000A00020088F31B72708007508A5
:101C2C002000E1007408E00008002100A801A80AC7
:101C3C00A901AA010800640080010131890B222E40
:101C4C0000347030210099009A0198011A1B080089
:101C5C002C2E023020009C00FF309B009A0191102A
:101C6C008E3106260800003020000D180130F000DF
:101C7C007003031D432E0030080001300800F400EF
:101C8C00740823009100151395131514000000001F
:101C9C002300130808003C30250093009501803088
:101CAC009400013096007F3091009201FC309E052B
:101CBC0008008E319B268E318E3127268E318E3147
:101CCC0051268E318E312F268E318E3186268E31D5
:101CDC008E31CD2608000B117908200095000130BB
:101CEC00DE070030DF3D00305F02023003195E0278
:101CFC00031C08008731F5272000DE01DF010800F6
:101D0C0021001508C0391738950064302000950063
:101D1C006430A0002008F9000B118B160330F4007E
:101D2C000030F5008E311526080022008D018C0143
:101D3C001F3023008C00F0308D00203024008C00EC
:101D4C00FF308D00F73021008D00FB308C00951397
:101D5C0022009D019E01080023009D1CB72E9D139F
:101D6C009D171908F00020006208A03E860087012C
:101D7C00700881000130F0007008E2070830620240
:101D8C000318E2010130F0007008F8070800210088
:101D9C0091121112083023009F0090309D002430C6
:101DAC009E0040309B0003309C002000E501E601C2
:101DBC000830F4007408E400E201E301F8012100AA
:101DCC009116080075082000A1007408A000A13627
:101DDC00A00CA136A00C2008250091007408033932
:101DEC002000A0000430A035890BF92E2500130823
:101DFC00CF3920002004250093000800F401F501E0
:101E0C002000201C0D2F2208F4072308F53D01307B
:101E1C00A235A30D890B0E2F0130A136A00C890B16
:101E2C00132F20082104031D062F7508A100740828
:101E3C00A000080008302000640203183A2F66083E
:101E4C004B3E86008701010823009A000130F00008
:101E5C0070082000E607083066020318E60101301E
:101E6C00F0007008E407080021001112080023306C
:101E7C002000A3002308A60020002208A4002108AB
:101E8C00A300A10A0319A20A2308840024088500D0
:101E9C000008A5002508A700270803190800270833
:101EAC008E310F268F31422FF5007508F40074081F
:101EBC00F600F7017503031D662F22000C110800B4
:101ECC007508031D6C2F22000C15080002307506D6
:101EDC000319742F03307506031D080022000C151E
:101EEC000800F50123009D16780803197A2F2100AC
:101EFC00911220006308A03E860087010108F400BF
:101F0C007408F5000130F4007408E307083063022C
:101F1C000318E3010130F80221009116750808003E
:101F2C002000A000A1012008230091007408930058
:101F3C0095131513151500308B1B01302000A100D3
:101F4C008B13553023009600AA30960095149518E3
:101F5C00AD2F15112000210C031C8B1303188B17AC
:101F6C000800F500200064080319B82F2100111A8D
:101F7C00C32F750823009A00D72F11127508F4008F
:101F8C00200065084B3E86008701740881000130F3
:101F9C00F4007408E507083065020318E501013008
:101FAC00E40221001116080004307606031908001B
:101FBC0002307606031DEF2F0130F0007008F70792
:101FCC0055307702031C0800F701043022008C0600
:101FDC00080003307606031D08000130F00070087D
:101FEC00F70714307702031C0800F70104302200B5
:041FFC008C06080047
:020000040001F9
:04000E00E4FFFFDF2D
:10E0000011002200330044005500660077008800AC
:10E010004900C800000000000000000000000000EF
:00000001FF
