:0400000080312928FA
:100008007E14803120007F08F9008B1A0B1D0F2801
:100018008731282780310B1F1A282100111E1A2822
:100028002000111E1A2886318D2680310B1F2428A6
:100038002100911E24282000911E24288631E126C3
:1000480079082000FF007E10090080312B288731B5
:1000580080278031EF00F001F101F201F301F40192
:100068004B308400003085002430873168277E10AB
:10007800200084312F2C2000C601BE01C701243086
:1000880047060319522873080319432886314F2657
:1000980080312000B5003508C700432873080319CC
:1000A800522886314F2680312000B5003508C70018
:1000B8004708B5003508BE062C30470603197628D0
:1000C8004708B50046083F3E86008701350881008D
:1000D8000130B5003508C60706304602031C522811
:1000E8000030080047303F06031D8A28503040067C
:1000F800031D8A2856304106031D8A2854304206BB
:10010800031D8A284730430603198C28003008004D
:10011800C601730803198D2886314F2680312000C7
:10012800B5003508C7004708B5003508BE062C30AD
:100138004706031D8D28730803199F2886314F260B
:1001480080312000B5003508C7004708B5003508DC
:10015800BE062C3047060319C3284708B5004608D1
:100168003F3E86008701350881000130B50035081B
:10017800C60706304602031C9F280030080054308A
:100188003F06031946030319CB2800300800C601AF
:1001980073080319CC2886314F2680312000B5001A
:1001A8003508C7004708B5003508BE062C30470695
:1001B800031DCC2873080319DE2886314F268031A9
:1001C8002000B5003508C7004708B5003508BE0649
:1001D8002C304706031902294708B50046083F3E58
:1001E80086008701350881000130B5003508C6074B
:1001F80006304602031CDE28003008004D303F065A
:100208000319460303190A2900300800C6017308B8
:1002180003190B2986314F2680312000B500350897
:10022800C7004708B5003508BE062C304706031D31
:100238000B29730803191D2986314F2680312000A8
:10024800B5003508C7004708B5003508BE062C308C
:100258004706031941294708B50046083F3E86006E
:100268008701350881000130B5003508C60706301A
:100278004602031C1D29003008004E303F060319B2
:1002880046030319492900300800C60173080319F9
:100298004A2986314F2680312000B5003508C7002D
:1002A8004708B5003508BE062C30470603196E29E5
:1002B8004708B50046083F3E86008701350881009B
:1002C8000130B5003508C60706304602031C4A2926
:1002D80000300800C501B901BA01BB01BC01B70172
:1002E800B70A460845020318D82945083F3E860044
:1002F80087012E300106031D8329B701D32945083C
:100308003F3E8600870130300102031C93294508CF
:100318003F3E860087013A300102031C95290030D0
:10032800080037080319B6293A08A1003908A000BF
:100338000A30A2000030A3008631AA2680312000AE
:1003480045083F3E8600870101082007B5002108BF
:100358000318210AB6003508D03EB900FF30363DF3
:10036800BA00D3293C08A1003B08A0000A30A2002B
:100378000030A3008631AA268031200045083F3E80
:100388008600870101082007B50021080318210A03
:10039800B6003508D03EBB00FF30363DBC0001300A
:1003A800B5003508C50775296430A0000030A100E4
:1003B8003C08A3003B08A2008631AA268031200011
:1003C8002108BC002008BB00C60173080319E929ED
:1003D80086314F2680312000B5003508C700470810
:1003E800B5003508BE062C30470603190D2A470804
:1003F800B50046083F3E8600870135088100013078
:10040800B5003508C60706304602031CE929003046
:1004180008004B303F06031946030319152A00301C
:100428000800C601B80173080319172A86314F2638
:1004380080312000B5003508C7002A304706031D63
:10044800272AB801B80A3808031D2E2A4708B5001C
:100458003508BE060D3047060319442A4708B5007B
:1004680046083F3E86008701350881000130B50007
:100478003508C60706304602031C172A0030080054
:100488002A304006031D4C2A0430460603194E2A1A
:1004980000300800BD013A304102031C562A4108C9
:1004A800C93E582A4108D03EB5003508BD003D0870
:1004B800B5000330B535FF3E031D5E2A3535B6005D
:1004C8003608BD003A304202031C6D2A4208C93E74
:1004D8006F2A4208D03EB5003508BD073E083D06E4
:1004E800031D8B2A3A08A1003908A0003C08A30084
:1004F8003B08A2008331862320002308DE0022085F
:10050800DD002108DC002008DB0001300800003095
:10051800080020002C08B4002D08B5002E08B600ED
:100528002F08B7001030B800B737B60CB50CB40CAC
:10053800B80B982A3708A3003608A2003508A1008E
:100548003408A0003008B9003108BA003208BB00EE
:100558003308BC001030BD00BC37BB0CBA0CB90C5A
:10056800BD0BB02A3C08A7003B08A6003A08A50026
:100578003908A4008531B225823120002008BE0048
:100588002108BF002208C0002308C1001030BE3572
:10059800BF0DC00DC10D890BCB2A4108C50040080D
:1005A800C4003F08C3003E08C2002C08B4002D0850
:1005B800B5002E08B6002F08B7001030B800B737BE
:1005C800B60CB50CB40CB80BE32A3708A3003608F0
:1005D800A2003508A1003408A000FF303005A400AF
:1005E800FF303105A50000303205A6000030330584
:1005F800A7008531B225823120002008C2072108D2
:10060800C33D2208C43D2308C53D3008B400310865
:10061800B5003208B6003308B7001030B800B73755
:10062800B60CB50CB40CB80B132B3708A30036085E
:10063800A2003508A1003408A000FF302C05A40052
:10064800FF302D05A50000302E05A60000302F052F
:10065800A7008531B225823120002008C207210871
:10066800C33D2208C43D2308C53DFF30B400FF3018
:10067800B5000030B6000030B700FF302C05A000F0
:10068800FF302D05A10000302E05A20000302F05F7
:10069800A300FF303005A400FF303105A50000306D
:1006A8003205A60000303305A7008531B225823116
:1006B80020002008B8002108B9002208BA00230841
:1006C800BB001030BC00BB37BA0CB90CB80CBC0B63
:1006D800672B3808B4053908B5053A08B6053B084C
:1006E800B7053408C2073508C33D3608C43D370886
:1006F800C53D4508AF004408AE004308AD004208B8
:10070800AC00080000302000B4000030B300003016
:10071800B2000030B1002008B1002108B200890DF4
:10072800893B8909B300B4003108A4003208A50048
:100738003308A6003408A7001030A435A50DA60D6F
:10074800A70D890BA12B2708B4002608B30025089C
:10075800B2002408B1002308B0002208AF00AC01A1
:10076800AD01AE0110302E020318EC2B2F35AF006F
:10077800300DB00027303002103003192F02031C4F
:10078800E42B2530840085308500003FA400013F1C
:10079800A5002E08013EFF3A013E103E890AD62BDD
:1007A800A435A50D890BD42B2C082404AC002D08E6
:1007B8002504AD002F08F03EAF00D830303DB00022
:1007C8000130A4002408AE0710302E02031CBA2BF7
:1007D800B41F082C3108A4003208A5003308A6006D
:1007E8003408A7002C08A8002D08A900AA01AB010D
:1007F800A809A909AA09AB09A80A0319A90A03198A
:10080800AA0A0319AB0A162C3108A4003208A5005D
:100818003308A6003408A7002C08A8002D08A90052
:10082800AA01AB012808A4072908A53D2A08A63D66
:100838002B08A73D2708B4002608B3002508B200F6
:100848002408B1003408A3003308A2003208A1002C
:100858003108A000080087313D2784317A30200014
:10086800A0000730A10087316E2784318B170B1742
:10087800043086312E26843122000C112100A0017B
:100888000A30200203185F2C05302000CA000F3000
:10089800C900F430C800C80B4F2CC90B4F2CCA0B29
:1008A8004F2C01302000C80048082100A0070A305A
:1008B8002002031C482C85316D258431003020002E
:1008C800DE000030DD000030DC000030DB0080316D
:1008D8003F208431003A03196B2C20006E08031D59
:1008E800952C5E08AF005D08AE005C08AD005B08A3
:1008F800AC002130840085308500003FB000013F06
:10090800B100023FB200033FB30082318D2284312F
:1009180020002F08DE002E08DD002D08DC002C0842
:10092800DB0022000C15D0302000C900C930C800F7
:10093800C80B9C2CC90B9C2C003222000C116B2C70
:10094800873149278431F6007608F80020006708C7
:10095800031DD32C7808F600F70171087706031DEC
:10096800B72C700876060319C22CF2017808F60035
:10097800F7017608F0007708F100080070037104A9
:10098800031D08000130F6007608F20706307202EF
:10099800031C08000130F6007608E7000800780814
:1009A800F600F70171087706031DDC2C700876063F
:1009B8000319EB2CE5017808F600F7017608F0003A
:1009C8007708F1000130F6007608E60008007003A9
:1009D8007104031DFF2C6608031DFF2C0130F6006F
:1009E8007608F20764307202031C08000230F60031
:1009F8007608E400080070087104031D080001303F
:100A0800F6007608E5070B306502031C08004B303A
:100A18007202031C142D0230F6007608E400080068
:100A28000130F6007608E4000800D034D2340234ED
:100A38000034E434E13401340034F9349E340034B1
:100A4800003401340034243450344D3454344B349D
:100A58003334313434342C3430342C3430342C3472
:100A680031342C3430342C3430342C3430342C346D
:100A780030342C3430342C3430342C3430342C345E
:100A880030342C3430342C3430342C3430342C344E
:100A980030342C3430342C3430342C3430342C343E
:100AA80030342A34323439340D340A34003424349E
:100AB80050344D3454344B343234323430342C3492
:100AC8003134303430342A34323446340D340A3434
:100AD80000342000AD010A302D020318882D05309E
:100AE800AC000F30AB00F430AA00AA0B792DAB0B89
:100AF800792DAC0B792D01302000AA002A08AD070A
:100B08000A302D02031C732D2730A3008530A40062
:100B180086317026853105302000AC000F30AB00DF
:100B2800F430AA00AA0B962DAB0B962DAC0B962D84
:100B38005B302000A3008530A40086317026853103
:100B480005302000AC000F30AB00F430AA00AA0B2F
:100B5800AB2DAB0BAB2DAC0BAB2D08000030200040
:100B6800AB000030AA000030A9000030A800201C0B
:100B7800C52D2408A8072508A93D2608AA3D270849
:100B8800AB3D0130A435A50DA60DA70D890BC62DCB
:100B98000130A336A20CA10CA00C890BCD2D230883
:100BA800220421042004031DBB2D2B08A3002A08BE
:100BB800A2002908A1002808A0000800043020008D
:100BC8006F060319080002306F06031DF82D013067
:100BD800F5007508E30755306302031C0800E301BC
:100BE800043022008C060800033020006F06031D25
:100BF80008000130F5007508E30714306302031C90
:100C08000800E301043022008C0608002000A1003F
:100C18006B0803190C2E2100111A172E2000210829
:100C280023009A002B2E111220002108A0006C0826
:100C3800533E86008701200881000130A00020086B
:100C4800EC0708306C020318EC010130EB022100BC
:100C5800111608002000A1002108A0002008EF00BC
:100C68002103031D3A2E22000C1108002000210840
:100C7800031D412E22000C15080002302000210619
:100C880003194A2E03302106031D080022000C1503
:100C98002000E30108002000A10123009D1673082D
:100CA8000319532E2100911220006A084B3E86003A
:100CB80087010108A0002008A1000130A000200839
:100CC800EA0708306A020318EA010130F30221003A
:100CD800911620002108080025302000A5002508CD
:100CE800A80020002408A6002308A500A30A0319C9
:100CF800A40A25088400260885000008A7002708FC
:100D0800A9002908031908002908873174278631A2
:100D1800752E083020006B020318A72E6D08533E6D
:100D280086008701010823009A000130F500750844
:100D38002000ED0708306D020318ED010130F500C1
:100D48007508EB0708002100111208002000A40113
:100D5800A501201CB32E2208A4072308A53D0130B5
:100D6800A235A30D890BB42E0130A136A00C890B36
:100D7800B92E20082104031DAD2E2508A100240842
:100D8800A0000800210091121112083023009F00D2
:100D980090309D0024309E0040309B0003309C0022
:100DA8002000EC01ED010830A0002008EB00E9016B
:100DB800EA01F30121009116080023009D1CE62E8C
:100DC8009D139D171908F500200069084B3E860001
:100DD8008701750881000130F5007508E9070830BA
:100DE80069020318E9010130F5007508F3070800E6
:100DF80022008D018C011F3023008C00F8308D00FB
:100E0800203024008C00FF308D00FF3021008D0041
:100E1800FB308C00951322009D019E0108002100E3
:100E28001508C039173895006430200095006430E3
:100E3800A2002208F4000B118B168130A0000730A5
:100E4800A10087316E2708000B1174082000950057
:100E58000130DF070030E03D003060020230031946
:100E68005F02031C0800873155272000DF01E001DD
:100E780008008631FC268731873160278731873122
:100E8800132787318631C6260800003020000D1848
:100E98000130F5007503031D532F003008000130A1
:100EA80008002000610862040319080062088A002B
:100EB80061080A00873108007030210099009A0102
:100EC80098011A1B0800652F640080010131890B05
:100ED800692F003420002108E2002008E100080002
:100EE8002000A200220886310A2608008531E22562
:0C0EF80087318431A42408000134080074
:020000040001F9
:04000E00E4FFFFDF2D
:00000001FF
