:0400000080312928FA
:1000060008007E14803120007F08F3008B1A0B1D38
:100016000F288731DF2780310B1F1A282100111E78
:100026001A282000111E1A288731282780310B1F15
:1000360024282100911E24282000911E242887317F
:10004600982773082000FF007E10090080312B28B6
:10005600F601F701F801F9015130840000308500FE
:100066001C308F31BD278031A030840000308500E0
:1000760039308F31BD277E1020008231902A200032
:10008600C601BE01C7012430470603195528780862
:10009600031946288631CF2680312000B500350861
:1000A600C70046287808031955288631CF2680319F
:1000B6002000B5003508C7004708B5003508BE065C
:1000C6002C304706031979284708B50046083F3EF5
:1000D60086008701350881000130B5003508C6075E
:1000E60006304602031C55280030080047303F06FC
:1000F600031D8D2850304006031D8D2856304106BD
:10010600031D8D2854304206031D8D2847304306B3
:1001160003198F2800300800C601780803199028B3
:100126008631CF2680312000B5003508C700470844
:10013600B5003508BE062C304706031D9028780802
:100146000319A2288631CF2680312000B500350854
:10015600C7004708B5003508BE062C304706031908
:10016600C6284708B50046083F3E86008701350881
:1001760081000130B5003508C60706304602031C6B
:10018600A2280030080054303F060319460303191D
:10019600CE2800300800C60178080319CF2886311A
:1001A600CF2680312000B5003508C7004708B500C6
:1001B6003508BE062C304706031DCF2878080319DC
:1001C600E1288631CF2680312000B5003508C700EA
:1001D6004708B5003508BE062C3047060319052921
:1001E6004708B50046083F3E86008701350881006E
:1001F6000130B5003508C60706304602031CE12863
:10020600003008004D303F060319460303190D2937
:1002160000300800C601780803190E298631CF265A
:1002260080312000B5003508C7004708B5003508FD
:10023600BE062C304706031D0E297808031920290F
:100246008631CF2680312000B5003508C700470823
:10025600B5003508BE062C30470603194429470861
:10026600B50046083F3E860087013508810001300B
:10027600B5003508C60706304602031C20290030A3
:1002860008004E303F060319460303194C29003077
:100296000800C601780803194D298631CF2680311A
:1002A6002000B5003508C7004708B5003508BE066A
:1002B6002C304706031971294708B50046083F3E0A
:1002C60086008701350881000130B5003508C6076C
:1002D60006304602031C4D2900300800C501B9014D
:1002E600BA01BB01BC01B701B70A460845020318AB
:1002F600DB2945083F3E860087012E300106031D97
:100306008629B701D62945083F3E86008701303049
:100316000102031C962945083F3E860087013A30B4
:100326000102031C98290030080037080319B9296F
:100336003A08A1003908A0000A30A2000030A30044
:10034600873145278031200045083F3E86008701DA
:1003560001082007B50021080318210AB600350850
:10036600D03EB900FF30363DBA00D6293C08A10080
:100376003B08A0000A30A2000030A30087314527C1
:100386008031200045083F3E86008701010820078E
:10039600B50021080318210AB6003508D03EBB0077
:1003A600FF30363DBC000130B5003508C507782959
:1003B6006430A0000030A1003C08A3003B08A20066
:1003C60087314527803120002108BC002008BB006A
:1003D600C60178080319EC298631CF268031200022
:1003E600B5003508C7004708B5003508BE062C30ED
:1003F60047060319102A4708B50046083F3E8600FF
:100406008701350881000130B5003508C60706307A
:100416004602031CEC29003008004B303F06031946
:1004260046030319182A00300800C601B8017808E7
:1004360003191A2A8631CF2680312000B5003508E7
:10044600C7002A304706031D2A2AB801B80A380809
:10045600031D312A4708B5003508BE060D3047068C
:100466000319472A4708B50046083F3E860087011C
:10047600350881000130B5003508C607063046024A
:10048600031C1A2A003008002A304006031D4F2A92
:10049600043046060319512A00300800BD013A30DF
:1004A6004102031C592A4108C93E5B2A4108D03E35
:1004B600B5003508BD003D08B5000330B535FF3E33
:1004C600031D612A3535B6003608BD003A304202B2
:1004D600031C702A4208C93E722A4208D03EB50063
:1004E6003508BD073E083D06031D8E2A3A08A100C1
:1004F6003908A0003C08A3003B08A2008431B624BA
:1005060020002308E3002208E2002108E100200879
:10051600E00001300800003008002100A101A2011E
:100526008F31EE27823104308631EE268231220069
:100536000C11AB30F4000F30F5008F31B727823144
:100546008B170B172000CF01D0014F09C8005009A7
:10055600C900C80A0319C90A4808FF3EF400033057
:10056600493DF5008731612782318F31A8278231D5
:100576002000CC0132304C020318D62A0530CA00BE
:100586000F30C900F430C800C80BC72AC90BC72AE8
:10059600CA0BC72A01302000C8004808CC073230F1
:1005A6004C02031CC12ACB01CB0A0030F400F50033
:1005B60087316127823168302000C900E430C800E5
:1005C600C80BE32AC90BE32A00006B30F4000330A2
:1005D600F5008731612782312000CD0132304D028E
:1005E60003180A2B0530CA000F30C900F430C800C2
:1005F600C80BFB2AC90BFB2ACA0BFB2A01302000B9
:10060600C8004808CD0732304D02031CF52A2000E9
:100616004B03031D132B0130CF070030D03D172BA2
:100626000130CF020030D03B013050022D3003198B
:100636004F02031C202BCB01582B4F085004031DDF
:10064600582BCB01CB0AFF30F4000330F50087317D
:10065600612782312000CE0132304E020318482B2A
:100666000530CA000F30C900F430C800C80B392B5A
:10067600C90B392BCA0B392B01302000C80048089A
:10068600CE0732304E02031C332B0030F400F50047
:1006960087316127823168302000C900E430C80004
:1006A600C80B532BC90B532B0000003020005002FF
:1006B600943003194F020318642B7830F40003308A
:1006C600712B20004F09C8005009C900C80A031938
:1006D600C90A4808FF3EF4000330493DF50087315A
:1006E6006127823103302000CA000830C900783003
:1006F600C800C80B7C2BC90B7C2BCA0B7C2B0A2B86
:10070600803142208231003A0319832B21002008D0
:100716000319AE2B20006308AF006208AE00610823
:10072600AD006008AC00C530840085308500003F10
:10073600B000013FB100023FB200033FB300833176
:10074600BD23823120002F08E3002E08E2002D0889
:10075600E1002C08E00022000C15D0302000C90072
:10076600C930C800C80BB52BC90BB52B0032220007
:100776000C11832B20002C08B4002D08B5002E0880
:10078600B6002F08B7001030B800B737B60CB50C56
:10079600B40CB80BC82B3708A3003608A2003508DE
:1007A600A1003408A0003008B9003108BA003208A8
:1007B600BB003308BC001030BD00BC37BB0CBA0C04
:1007C600B90CBD0BE02B3C08A7003B08A6003A0875
:1007D600A5003908A400863156268331200020085A
:1007E600BE002108BF002208C0002308C100103047
:1007F600BE35BF0DC00DC10D890BFB2B4108C500D1
:100806004008C4003F08C3003E08C2002C08B400DC
:100816002D08B5002E08B6002F08B7001030B80016
:10082600B737B60CB50CB40CB80B132C3708A300AD
:100836003608A2003508A1003408A000FF303005B4
:10084600A400FF303105A50000303205A6000030B7
:100856003305A70086315626833120002008C207BB
:100866002108C33D2208C43D2308C53D3008B40015
:100876003108B5003208B6003308B7001030B800AA
:10088600B737B60CB50CB40CB80B432C3708A3001D
:100896003608A2003508A1003408A000FF302C0558
:1008A600A400FF302D05A50000302E05A60000305F
:1008B6002F05A70086315626833120002008C2075F
:1008C6002108C33D2208C43D2308C53DFF30B400BE
:1008D600FF30B5000030B6000030B700FF302C0501
:1008E600A000FF302D05A10000302E05A20000302B
:1008F6002F05A300FF303005A400FF303105A50009
:1009060000303205A60000303305A7008631562692
:10091600833120002008B8002108B9002208BA0057
:100926002308BB001030BC00BB37BA0CB90CB80C9E
:10093600BC0B972C3808B4053908B5053A08B60536
:100946003B08B7053408C2073508C33D3608C43D21
:100956003708C53D4508AF004408AE004308AD0062
:100966004208AC00080000302000B4000030B3009C
:100976000030B2000030B1002008B1002108B200FA
:10098600890D893B8909B300B4003108A4003208F7
:10099600A5003308A6003408A7001030A435A50D1D
:1009A600A60DA70D890BD12C2708B4002608B30085
:1009B6002508B2002408B1002308B0002208AF00C1
:1009C600AC01AD01AE0110302E0203181C2D2F35DF
:1009D600AF00300DB00027303002103003192F025F
:1009E600031C142DC930840085308500003FA40007
:1009F600013FA5002E08013EFF3A013E103E890A3E
:100A0600062DA435A50D890B042D2C082404AC0055
:100A16002D082504AD002F08F03EAF00D830303D3C
:100A2600B0000130A4002408AE0710302E02031CCB
:100A3600EA2CB41F382D3108A4003208A50033086B
:100A4600A6003408A7002C08A8002D08A900AA01B2
:100A5600AB01A809A909AA09AB09A80A0319A90A99
:100A66000319AA0A0319AB0A462D3108A400320855
:100A7600A5003308A6003408A7002C08A8002D08F6
:100A8600A900AA01AB012808A4072908A53D2A0840
:100A9600A63D2B08A73D2708B4002608B300250865
:100AA600B2002408B1003408A3003308A2003208BB
:100AB600A1003108A00008008731F4278531F10034
:100AC6007108F20020005C08031D832D5E08720683
:100AD6000319732DDA017208F1007108DE000800AF
:100AE6005E03031D08000130F1007108DA070630C5
:100AF6005A02031C08000130F1007108DC000800EE
:100B06005E0872060319912DDB017208F100710867
:100B1600DE000130F1007108DF0008005E03031DEE
:100B2600A42D5F08031DA42D0130F1007108DA071A
:100B360064305A02031C08000230F1007108D90023
:100B460008005E08031D08000130F1007108DB078C
:100B56000B305B02031C08004B305A02031CB82DF5
:100B66000230F1007108D90008000130F100710867
:100B7600D9000800D034D23402340034E434E134ED
:100B860001340034F9349E34003400340134003426
:100B9600243450344D3454344B34333431343434B7
:100BA6002C3430342C3430342C3431342C3430342E
:100BB6002C3430342C3430342C3430342C3430341F
:100BC6002C3430342C3430342C3430342C3430340F
:100BD6002C3430342C3430342C3430342C343034FF
:100BE6002C3430342C3430342C3430342A343234EF
:100BF60039340D340A340034243450344D345434EA
:100C06004B343234323430342C34313430343034A2
:100C16002A34323446340D340A3400342000AB0111
:100C26000A302B0203182C2E0530AA000F30A9001B
:100C3600F430A800A80B1D2EA90B1D2EAA0B1D2EE5
:100C460001302000A8002808AB070A302B02031C3D
:100C5600172ECB30A1008530A20087310B278631B5
:100C660005302000AA000F30A900F430A800A80B18
:100C76003A2EA90B3A2EAA0B3A2EFF302000A100DD
:100C86008530A20087310B27863105302000AA0067
:100C96000F30A900F430A800A80B4F2EA90B4F2E39
:100CA600AA0B4F2E080000302000AB000030AA002F
:100CB6000030A9000030A800201C692E2408A807CF
:100CC6002508A93D2608AA3D2708AB3D0130A435D5
:100CD600A50DA60DA70D890B6A2E0130A336A20C11
:100CE600A10CA00C890B712E2308220421042004D8
:100CF600031D5F2E2B08A3002A08A2002908A100C5
:100D06002808A000080004307606031908000230FF
:100D16007606031D9B2E0130F0007008F70755304C
:100D26007702031C0800F701043022008C06080035
:100D360003307606031D08000130F0007008F7073F
:100D460014307702031C0800F701043022008C06D9
:100D56000800F50020006A080319AD2E2100111ABB
:100D6600B82E750823009A00CC2E11127508F400CF
:100D760020006B08513E860087017408810001300F
:100D8600F4007408EB0708306B020318EB0101301E
:100D9600EA02210011160800F50123009D167808C5
:100DA6000319D22E2100911220006908D13E860037
:100DB60087010108F4007408F5000130F400740896
:100DC600E907083069020318E9010130F802210039
:100DD600911675080800F5007508F4007408F60009
:100DE600F7017503031DFA2E22000C110800750881
:100DF600031D002F22000C1508000230750603198A
:100E0600082F03307506031D080022000C15080084
:100E160023302000A3002308A60020002208A400F7
:100E26002108A300A10A0319A20A230884002408A2
:100E360085000008A5002508A70027080319080053
:100E460027088F31B1278731102F083020006A021A
:100E56000318422F6C08513E8600870101082300C3
:100E66009A000130F00070082000EC0708306C0290
:100E76000318EC010130F0007008EA0708002100B1
:100E860011120800F401F5012000201C4E2F220843
:100E9600F4072308F53D0130A235A30D890B4F2F2A
:100EA6000130A136A00C890B542F20082104031D04
:100EB600472F7508A1007408A000080075082000D7
:100EC600A1007408A000A136A00CA136A00C200831
:100ED60025009100740803392000A0000430A035D5
:100EE600890B722F25001308CF3920002004250016
:100EF60093000800210091121112083023009F0070
:100F060090309D0024309E0040309B0003309C00B2
:100F16002000EB01EC010830F4007408EA00E80157
:100F2600E901F80121009116080023009D1C9D2F60
:100F36009D139D171908F00020006808D13E860011
:100F46008701700881000130F0007008E80708305A
:100F560068020318E8010130F0007008F80708007D
:100F660022008D018C011F3023008C00F0308D0093
:100F7600203024008C00FF308D00F73021008D00DA
:100F8600FB308C00951322009D019E010800210074
:100F96001508C03917389500643020009500643074
:100FA600A0002008F9000B118B160330F400003066
:100FB600F5008F31B72708000B117908200095003E
:100FC6000130E4070030E53D0030650202300319C8
:100FD6006402031C08008F31D5272000E401E501D7
:100FE6000800003020000D180130F0007003031DCA
:0A0FF600FE2F003008000130080053
:101F500020001C150800863186268F3185315F25CB
:101F600008002000A00020088631AC260800750873
:101F70002000E7007408E6000800640080010131D9
:101F8000890BBE2F00347030210099009A0198010E
:101F90001A1B0800C82F023020009C00FF309B0055
:101FA0009A0191108F31A827080020006608670465
:101FB0000319080067088A0066080A008F310800C4
:101FC0003C3025009300950180309400013096004C
:101FD0007F3091009201FC309E0508008731B327C5
:101FE0008F318F31C3278F318F31E0278F318F3180
:101FF000CB278F318731CA278F3187317D27080062
:020000040001F9
:04000E00E4FFFFDF2D
:10E0000011002200330044005500660077008800AC
:10E010004900C800000000000000000000000000EF
:00000001FF
