:08000000803102288731F12F45
:100A9A0001340330F0000030F100E630F20011308A
:100AAA00F3008531A625853173082000DE0072081F
:100ABA00DD007108DC007008DB005E08C5005D0817
:100ACA00C4005C08C3005B08C20086314F2685312A
:100ADA0020004508DA004408D9004308D800420833
:100AEA00D700762D0030FB000030FA000030F90004
:100AFA000030F800701C892D7408F8077508F93D54
:100B0A007608FA3D7708FB3D0130F435F50DF60D10
:100B1A00F70D890B8A2D0130F336F20CF10CF00C2B
:100B2A00890B912D7308720471047004031D7F2DC3
:100B3A007B08F3007A08F2007908F1007808F000DF
:100B4A00080000302000A8000030A7000030A600EE
:100B5A000030A5007008A5007108A600890D893B20
:100B6A008909A700A8002508F4002608F500270827
:100B7A00F6002808F7001030F435F50DF60DF70DDC
:100B8A00890BC12D7708A8007608A7007508A6006A
:100B9A007408A5007308A3007208A200A001A101AD
:100BAA00A4011030240203180C2E2235A200230DB2
:100BBA00A30027302302103003192202031C042E3B
:100BCA000C30840088308500003FF400013FF500B6
:100BDA002408013EFF3A013E103E890AF62DF435FB
:100BEA00F50D890BF42D20087404A0002108750462
:100BFA00A1002208F03EA200D830233DA300013014
:100C0A00F4007408A40710302402031CDA2DA81F6C
:100C1A00282E2508F4002608F5002708F6002808DB
:100C2A00F7002008F8002108F900FA01FB01F80989
:100C3A00F909FA09FB09F80A0319F90A0319FA0A60
:100C4A000319FB0A362E2508F4002608F5002708A2
:100C5A00F6002808F7002008F8002108F900FA0130
:100C6A00FB017808F4077908F53D7A08F63D7B0818
:100C7A00F73D7708A8007608A7007508A60074084B
:100C8A00A5002808F3002708F2002608F100250825
:100C9A00F00008000030840088308500003F200002
:100CAA00C600013FC700023FC800033FC900043025
:100CBA00840088308500003FA000013FA100023F68
:100CCA00A200033FA3004508A7004408A600430862
:100CDA00A5004208A4008731002786312000200998
:100CEA00CA002109CB002209CC002309CD00CA0A77
:100CFA000319CB0A0319CC0A0319CD0A4A08C607F5
:100D0A004B08C73D4C08C83D4D08C93D4908D600A7
:100D1A004808D5004708D4004608D300D2010B3052
:100D2A0052020318F72E5608A3005508A2005408C9
:100D3A00A1005308A0004508A7004408A6004308DC
:100D4A00A5004208A4008731002786312000200927
:100D5A00C6002109C7002209C8002309C900C60A1A
:100D6A000319C70A0319C80A0319C90A0030460732
:100D7A00CE000030473DCF000130483DD000003062
:100D8A00493DD1005608A3005508A2005408A10005
:100D9A005308A0005108A7005008A6004F08A50054
:100DAA004E08A40087310027863120002008530707
:100DBA00C6002108543DC7002208553DC800230833
:100DCA00563DC9004908D6004808D5004708D4004E
:100DDA004608D3000130C6004608D2070B3052023B
:100DEA00031C982E5608C5005508C4005408C300B1
:100DFA005308C2000800FF3020002005BA00FF3067
:100E0A002105BB0000302205BC0000302305BD00CF
:100E1A00FF302405BE00FF302505BF00003026053F
:100E2A00C00000302705C1002008A8002108A90039
:100E3A002208AA002308AB001030AC00AB37AA0C7A
:100E4A00A90CA80CAC0B232F2B08F3002A08F200DC
:100E5A002908F1002808F0002408AD002508AE0092
:100E6A002608AF002708B0001030B100B037AF0C29
:100E7A00AE0CAD0CB10B3B2F3008F7002F08F60073
:100E8A002E08F5002D08F400853177258731700882
:100E9A002000B2007108B3007208B4007308B500EC
:100EAA001030B235B30DB40DB50D890B562F350878
:100EBA00B9003408B8003308B7003208B600200871
:100ECA00A8002108A9002208AA002308AB001030B4
:100EDA00AC00AB37AA0CA90CA80CAC0B6E2F2B08D4
:100EEA00F3002A08F2002908F1002808F000410856
:100EFA00F7004008F6003F08F5003E08F400853187
:100F0A007725873170082000B6077108B73D720847
:100F1A00B83D7308B93D2408A8002508A900260889
:100F2A00AA002708AB001030AC00AB37AA0CA90CFA
:100F3A00A80CAC0B9A2F2B08F3002A08F2002908F8
:100F4A00F1002808F0003D08F7003C08F6003B08CD
:100F5A00F5003A08F40085317725873170082000BA
:100F6A00B6077108B73D7208B83D7308B93D3D0828
:100F7A00F3003C08F2003B08F1003A08F00041088F
:100F8A00F7004008F6003F08F5003E08F4008531F6
:100F9A007725873170082000A8007108A900720817
:100FAA00AA007308AB001030AC00AB37AA0CA90C2E
:100FBA00A80CAC0BDA2F2808B6072908B73D2A086F
:100FCA00B83D2B08B93D3908A3003808A2003708F4
:100FDA00A1003608A000080085314D25E600FC0175
:100FEA00FD01DF01E001E101E201E301E401E501C4
:100FFA00200085314E2DD034D23402340034E4340A
:10100A00E1340134003414349F34003400340134A0
:02101A000034A0
:020000040001F9
:04000E00E4FFFFDF2D
:00000001FF
