:0400000080312928FA
:1000060008007E14803120007F08F3008B1A0B1D38
:100016000F288A312F2280310B1F1A282100111E2A
:100026001A282000111E1A288A31CA2280310B1F75
:1000360024282100911E24282000911E24288A317C
:100046005C2273082000FF007E10090080312B28F7
:10005600F601F701F801F9015430840000308500FB
:100066000A308931A6218031A03084000030850015
:100076004D308931A6217E102000803142288A31F8
:100086000822803104308B312123803122000C116B
:100096002100B801B90138092000CC002100390936
:1000A6002000CD00CC0A0319CD0A4C08FF3EF4000F
:1000B60003304D3DF5008A31AE22803189319121E0
:1000C60080319430F4000930F5008931A021803167
:1000D6008B170B178D31EF258031003A031D8A28C7
:1000E60002308B31212380318931ED21803102307C
:1000F600200054060319842820005403031D7A287F
:1001060077288531EF2580318D311C2580318B3163
:10011600D823803100302100B3000030B200003017
:10012600B1000030B0008931ED21803183319A234E
:100136008031003A0319732B21003C080319D1289A
:1001460033082000AF00210032082000AE00210055
:1001560031082000AD00210030082000AC00D2306C
:10016600840087308500003FB000013FB100023FA8
:10017600B200033FB3008F310727803120002F08DC
:100186002100B30020002E082100B20020002D0817
:100196002100B10020002C082100B00022000C151F
:1001A600D0302000CD00C930CC00CC0BD828CD0BE8
:1001B600D828003222000C11210033082000BC0090
:1001C600210032082000BB00210031082000BA00BF
:1001D600210030082000B9008D31842580312000AF
:1001E6003A082200A600200039082200A500B50121
:1001F600B50AA4010A2B35082000CC00CD01CC0994
:10020600CD09CC0A0319CD0A21003F0820004C076E
:10021600A0004D0803184D0AA1000A30A2000030C4
:10022600A3008A3192228031200021082200260272
:10023600031D21292000200822002502031CF02A84
:1002460035082000CC00CD01CC09CD09CC0A031914
:10025600CD0A21003F0820004C07A0004D080318D6
:100266004D0AA1000A30A2000030A3008A31922272
:1002760080312200260820002106031D462922007F
:10028600250820002006031D522922003535C03ED0
:1002960086008701403FB300413FB400082B22008F
:1002A6003535FE3EC03E860087013535C03E8400AA
:1002B6008501003F2000CC00013FCD00CC09CD09CF
:1002C600CC0A0319CD0A403F4C07A400413F4D3DDF
:1002D600A5000030A600A7008E315E2680312000E2
:1002E60027082200AE00200026082200AD002000CC
:1002F60025082200AC00200024082200AB000030B4
:100306002000A400A500E830A6000330A7008E3127
:100316005E268031200027082200AA002000260839
:100326002200A900200025082200A8002000240899
:100336002200A7002E082000AF0022002D08200072
:10034600AE0022002C082000AD0022002B08200061
:10035600AC0022002A082000B30022002908200051
:10036600B200220028082000B10022002708200041
:10037600B0008F310727803120002F082200AE0001
:1003860020002E082200AD0020002D082200AC001F
:1003960020002C082200AB0035082000CC00CD013F
:1003A600CC09CD09CC0A0319CD0A21003F0820004B
:1003B6004C07A0004D0803184D0AA1000A30A20000
:1003C6000030A3008A319222803120002108A50046
:1003D6002008A4000030A600A7008E315E268031DA
:1003E600200027082200B200200026082200B100C3
:1003F600200025082200B000200024082200AF00BB
:100406002E082000AF0022002D082000AE0022009A
:100416002C082000AD0022002B082000AC00220092
:1004260032082000B300220031082000B20022006A
:1004360030082000B10022002F082000B0008F31C4
:100446000727803120002F082200B20020002E0846
:100456002200B10020002D082200B00020002C0848
:100466002200AF003535C03E86008701403F2000A0
:10047600A400413FA5000030A600A7008E315E26ED
:100486008031200027082200AA002000260822002A
:10049600A900200025082200A80020002408220028
:1004A600A70027082000CC00220028082000CD0045
:1004B600220029082000CE0022002A082000CF00B2
:1004C60022002F092000D000220030092000D10090
:1004D600220031092000D200220032092000D30078
:1004E600D00A0319D10A0319D20A0319D30A5008EC
:1004F600CC075108CD3D5208CE3D5308CF3D4F089D
:100506002200B20020004E082200B10020004D0853
:100516002200B00020004C082200AF002E08200068
:10052600AF0022002D082000AE0022002C0820007B
:10053600AD0022002B082000AC002100330820006B
:10054600B300210032082000B2002100310820004B
:10055600B100210030082000B0008F31072780311C
:1005660020002C0822002F072000CC002D08220096
:10057600303D2000CD002E082200313D2000CE0067
:100586002F082200323D2000CF004F082200A30092
:1005960020004E082200A20020004D082200A100E3
:1005A60020004C082200A00023082000BC002200E6
:1005B60022082000BB00220021082000BA002200E9
:1005C60020082000B9008D318425803120003A08AA
:1005D6002200B40020003908062B21003F08FF3E08
:1005E6002000CC00FF3003180030CD002200350873
:1005F60020004C064D04031D0A2B21006908220029
:10060600B400210068082200B300A401A40A210056
:100616003F08220035020318132B24080319FE286D
:10062600340821003E02031D1C2B22003308210042
:100636003D020318252B3E082200B40021003D0888
:100646002200B30021003F35FE3EC03E86008701F2
:10065600403F2000CC00413FCD004D08220034022F
:10066600031D392B20004C08220033020318432BAC
:10067600210069082200B400210068082200B300A6
:10068600210038083904031D582B0030F400F5000A
:100696008A31AE22803168302000CD00E430CC00B3
:1006A600CC0B532BCD0B532B00002200340821001A
:1006B600B900220033082100B80038092000CC0018
:1006C600210039092000CD00CC0A0319CD0A4C08B7
:1006D600FF3EF40003304D3DF5008A31AE228031F5
:1006E600023020005406031D952B2100B801B901E4
:1006F60038092000CC00210039092000CD00CC0AA1
:100706000319CD0A4C08FF3EF40003304D3DF500B9
:100716008A31AE2280318531EF2580318D311C251D
:100726008031992820005403031D9928962820001B
:10073600CA01C201CB0124304B060319AD2B780840
:1007460003199E2B8B31042383312000B90039080D
:10075600CB009E2B78080319AD2B8B3104238331F4
:100766002000B9003908CB004B08B9003908C20689
:100776002C304B060319D12B4B08B9004A08433ECF
:1007860086008701390881000130B9003908CA0797
:1007960006304A02031CAD2B0030080047304306E2
:1007A600031DE52B50304406031DE52B5630450648
:1007B600031DE52B54304606031DE52B473047063F
:1007C6000319E72B00300800CA0178080319E82B43
:1007D6008B31042383312000B9003908CB004B0844
:1007E600B9003908C2062C304B06031DE82B7808E1
:1007F6000319FA2B8B31042383312000B900390801
:10080600CB004B08B9003908C2062C304B06031939
:100816001E2C4B08B9004A08433E8600870139085A
:1008260081000130B9003908CA0706304A02031CA4
:10083600FA2B003008005430430603194A03031903
:10084600262C00300800CA0178080319272C8B31A2
:10085600042383312000B9003908CB004B08B900C6
:100866003908C2062C304B06031D272C78080319BD
:10087600392C8B31042383312000B9003908CB0091
:100886004B08B9003908C2062C304B0603195D2CFB
:100896004B08B9004A08433E8600870139088100A3
:1008A6000130B9003908CA0706304A02031C392C40
:1008B600003008004D30430603194A030319652C1E
:1008C60000300800CA0178080319662C8B3104230E
:1008D60083312000B9003908CB004B08B90039082C
:1008E600C2062C304B06031D662C78080319782C9B
:1008F6008B31042383312000B9003908CB004B0823
:10090600B9003908C2062C304B0603199C2C4B083B
:10091600B9004A08433E8600870139088100013044
:10092600B9003908CA0706304A02031C782C003081
:1009360008004E30430603194A030319A42C00305D
:100946000800CA0178080319A52C8B3104238331CA
:100956002000B9003908CB004B08B9003908C20697
:100966002C304B060319C92C4B08B9004A08433EE4
:1009760086008701390881000130B9003908CA07A5
:1009860006304A02031CA52C00300800C901BD012F
:10099600BE01BF01C001BB01BB0A4A0849020318D8
:1009A600332D4908433E860087012E300106031D7C
:1009B600DE2CBB012E2D4908433E860087013030D0
:1009C6000102031CEE2C4908433E860087013A309B
:1009D6000102031CF02C003008003B080319112DFE
:1009E6003E08A1003D08A0000A30A2000030A30086
:1009F6008A319222833120004908433E86008701CE
:100A060001082007B90021080318210ABA0039088D
:100A1600D03EBD00FF303A3DBE002E2D4008A1005D
:100A26003F08A0000A30A2000030A3008A319222BB
:100A3600833120004908433E8600870101082007CC
:100A4600B90021080318210ABA003908D03EBF00B0
:100A5600FF303A3DC0000130B9003908C907D02C33
:100A66006430A0000030A1004008A3003F08A200A7
:100A76008A319222833120002108C0002008BF005D
:100A8600CA0178080319442D8B31042383312000D1
:100A9600B9003908CB004B08B9003908C2062C301A
:100AA6004B060319682D4B08B9004A08433E8600D9
:100AB6008701390881000130B9003908CA070630B4
:100AC6004A02031C442D003008004B30430603192C
:100AD6004A030319702D00300800CA01BC017808CA
:100AE6000319722D8B31042383312000B900390894
:100AF600CB002A304B06031D822DBC01BC0A3C08E4
:100B0600031D892D4B08B9003908C2060D304B0666
:100B160003199F2D4B08B9004A08433E86008701FA
:100B2600390881000130B9003908CA0706304A027F
:100B3600031C722D003008002A304406031DA72D21
:100B460004304A060319A92D00300800C1013A30C5
:100B56004502031CB12D4508C93EB32D4508D03EBC
:100B6600B9003908C1004108B9000330B935FF3E64
:100B7600031DB92D3935BA003A08C1003A3046028C
:100B8600031CC82D4608C93ECA2D4608D03EB900EA
:100B96003908C10742084106031DED2D3E08A50090
:100BA6003D08A4004008A7003F08A6008E315E2637
:100BB600200027082100B300200026082100B200EB
:100BC600200025082100B100200024082100B000E3
:100BD60001300800003008008C316C2485318931E1
:100BE600ED21853100308B31212385312100BC0177
:100BF60002302000540603191D2E20005403031D45
:100C0600FB2D21003C08031D0A2E01300B2E00305F
:100C16002000A30023082100BC003C080319152E60
:100C26000230162E03308B31212385318931ED2197
:100C36008531FB2D8C316C2485318931ED2185314F
:100C4600C8302000AE000030AF000030F400F500E0
:100C56008A31AE22853102302000A5003830A4004A
:100C6600AD30A300A30B352EA40B352EA50B352EC8
:100C76008931E1218531003A0319492E01302000DE
:100C86002F022C3003192E020318762E0130200075
:100C9600AE070030AF3D2E0A033003192F06031DA1
:100CA600582E2C30AE000130AF002E09A3002F09BC
:100CB600A400A30A0319A40A2308FF3EF400033084
:100CC600243DF5008A31AE22853102302000A50090
:100CD6003830A400AD30A300A30B6F2EA40B6F2EEB
:100CE600A50B6F2E3B2E20002F082100BE002000F2
:100CF6002E082100BD008C316C2485312000A8010E
:100D06000A30280203189C2E0530A5000F30A400D7
:100D1600F430A300A30B8D2EA40B8D2EA50B8D2EC8
:100D260001302000A3002308A8070A302802031C6C
:100D3600872EA6012608031D822FAD0121003E083D
:100D46002000AF0021003D082000AE00003020004A
:100D56002F02653003192E02031C062F8931E1216B
:100D66008531003A0319E22E20002D35C03E86005B
:100D760087012E08C03F2F08C13F0130A30023087A
:100D8600AD078C316C2485312000A9010A30290277
:100D96000318E22E0530A5000F30A400F430A3009E
:100DA600A30BD32EA40BD32EA50BD32E01302000DC
:100DB600A3002308A9070A302902031CCD2E0130FF
:100DC6002000AE020030AF3B2E09A3002F09A4007D
:100DD600A30A0319A40A2308FF3EF4000330243DA6
:100DE600F5008A31AE22853107302000A500173084
:100DF600A4006F30A300A30BFE2EA40BFE2EA50BA2
:100E0600FE2E0000A92E2D08A30023082100BF00F6
:100E1600FF30F4000330F5008A31AE2285318C3183
:100E26006C2485312000AA010A302A020318302FCB
:100E36000530A5000F30A400F430A300A30B212F2A
:100E4600A40B212FA50B212F01302000A30023087E
:100E5600AA070A302A02031C1B2FA701A70A8931F9
:100E6600ED2185312000270803199D2E2000AD01B4
:100E7600402F0130A3002308AD0721003F082000C2
:100E86002D0203187B2F2D35C03E86008701403F7B
:100E9600A300413FA400A309A409A30A0319A40AB5
:100EA6002308FF3EF4000330243DF5008A31AE22CC
:100EB60085312000AB011E302B020318772F053039
:100EC600A5000F30A400F430A300A30B682FA40BD9
:100ED600682FA50B682F01302000A3002308AB075D
:100EE6001E302B02031C622F540803193C2FA70146
:100EF60002305406031D352FA601A60A352F8C3164
:100F06006C2485312000AC010A302C020318A02F76
:100F16000530A5000F30A400F430A300A30B912FD9
:100F2600A40B912FA50B912F01302000A3002308BD
:100F3600AC070A302C02031C8B2F8931ED21853139
:100F460021003F35FE3EC03E86008701403F20001F
:100F5600A300413FA4002308F63E2100E800FF302D
:100F66002000243D2100E9000A302000A3002308C8
:100F76002100EA0004308B312123853122000C1137
:100F8600FF30F4000330F5008A31AE220800D03479
:100F9600D23402340034E434E13401340034F93418
:100FA6009E340034003401340034243450344D343B
:100FB60054344B343334313434342C3430342C34CC
:100FC60030342C3431342C3430342C3430342C340A
:100FD60030342C3430342C3430342C3430342C34FB
:100FE60030342C3430342C3430342C3430342C34EB
:100FF60030342C3430342C3430342C3430342C34DB
:1010060030342C3430342A34323439340D340A3402
:101016000034243450344D3454344B343234323466
:1010260030342C343134303430342A34323446348B
:061036000D340A34003401
:1013220020001C1508008B31822389318C31BE24A8
:1013320008002000A00020088B315F2308007508F8
:101342002100B7007408B600080064008001013172
:10135200890BA72900347030210099009A01980165
:101362001A1B0800B129023020009C00FF309B00AC
:101372009A01911089319121080021003608370421
:101382000319080037088A0036080A008931080064
:10139200003020000D180130F0007003031DD32926
:1013A2000030080001300800F400740823009100A6
:1013B20015139513151400000000230013080800EC
:1013C200003020000D180130F4007403031DEB29D6
:1013D20000300800013008008931E121F50075086C
:1013E2002000D900D501D601D401D701D801DA01F4
:1013F20008003C30250093009501803094000130B4
:1014020096007F3091009201FC309E0508008A31DF
:1014120045228A318931AC218A318931FA218A31D6
:101422008931B4218A318A311A228A318A3177226A
:10143200080021001508C0391738950064302000D3
:1014420095006430A0002008F9000B118B160330C0
:10145200F4000030F5008931A02108000B11790851
:101462002000950001302100B4070030B53D003066
:101472003502023003193402031C08008931BE21EF
:101482002100B401B501080022008D018C011F303A
:1014920023008C00F0308D00203024008C00FF30BF
:1014A2008D00F73021008D00FB308C009513220057
:1014B2009D019E01080023009D1C612A9D139D171A
:1014C2001908F00021003A08A03E86008701700842
:1014D20081000130F0007008BA0708303A020318A0
:1014E200BA010130F0007008F807080021009112DB
:1014F2001112083023009F0090309D0024309E007E
:1015020040309B0003309C002000DC01DD010830EC
:10151200F4007408DB002100BA01BB01F801911646
:101522000800F401F5012000201C9B2A2208F40780
:101532002308F53D0130A235A30D890B9C2A013009
:10154200A136A00C890BA12A20082104031D942A8C
:101552007508A1007408A000080075082000A10009
:101562007408A000A136A00CA136A00C200825000A
:101572009100740803392000A0000430A035890BC3
:10158200BF2A25001308CF3920002004250093002C
:101592000800083020005B020318E42A5D08A83E18
:1015A20086008701010823009A000130F0007008CC
:1015B2002000DD0708305D020318DD010130F00074
:1015C2007008DB07080021001112080023302000F8
:1015D200A3002308A60020002208A4002108A300DB
:1015E200A10A0319A20A230884002408850000081E
:1015F200A5002508A7002708031908002708893134
:101602009A218A31EC2AF50123009D1678080319E4
:10161200072B210091123B08A03E8600870101089A
:10162200F4007408F5000130F4007408BB070830B8
:101632003B020318BB010130F8029116750808003D
:10164200F5007508F4007408F600F7017503031D30
:101652002D2B22000C1108007508031D332B2200CC
:101662000C1508000230750603193B2B0330750672
:10167200031D080022000C1508002000A000A10193
:101682002008230091007408930095131513151573
:1016920000308B1B01302000A1008B13553023003A
:1016A2009600AA30960095149518552B1511200016
:1016B200210C031C8B1303188B170800F500200064
:1016C2005B080319602B2100111A6B2B750823008C
:1016D2009A007F2B11127508F40020005C08A83EC6
:1016E20086008701740881000130F4007408DC0769
:1016F20008305C020318DC010130DB022100111604
:101702000800043076060319080002307606031D2D
:10171200972B0130F0007008F7073C307702031C6A
:101722000800F701043022008C0608000330760618
:10173200031D08000130F0007008F7070F30770230
:10174200031C0800F701043022008C060800003058
:101752002000AB000030AA000030A9000030A80031
:10176200201CBB2B2408A8072508A93D2608AA3D52
:101772002708AB3D0130A435A50DA60DA70D890B99
:10178200BC2B0130A336A20CA10CA00C890BC32BDD
:101792002308220421042004031DB12B2B08A300DB
:1017A2002A08A2002908A1002808A0000800200099
:1017B200AB010A302B020318F32B0530AA000F30BD
:1017C200A900F430A800A80BE42BA90BE42BAA0B68
:1017D200E42B01302000A8002808AB070A302B02B6
:1017E200031CDE2BD830A1008730A2008A31E72209
:1017F2008B3105302000AA000F30A900F430A80078
:10180200A80B012CA90B012CAA0B012C0C302000D7
:10181200A1008830A2008A31E7228B3105302000F6
:10182200AA000F30A900F430A800A80B162CA90BAF
:10183200162CAA0B162C080020002208A300A401D3
:101842002108A6002008A5002608A500A601230855
:101852002506A70024082606A800FF302705AF00AA
:1018620000302805B0003008A4002F08A30004307F
:10187200A436A30C890B392C2308AF062408B00622
:101882003008A4002F08A3000530A335A40D890B4E
:10189200462C3008A6002F08A500250EF039A60018
:1018A200A5012008A800A70125082706A9002608E7
:1018B2002806AA0023082906AB0024082A06AC0041
:1018C2002F082B06AD0030082C06AE002E08A10012
:1018D2002D08A000080004308B3121238C31220016
:1018E2000C110B302000A2002630A1006630A000AF
:1018F200A00B792CA10B792CA20B792C003222009F
:101902000C1503302000A2000830A1007830A0009E
:10191200A00B892CA10B892CA20B892C22000C1163
:1019220003302000A2000830A1007830A000A00BF4
:10193200982CA10B982CA20B982C22000C1503308A
:101942002000A2000830A1007830A000A00BA72C34
:10195200A10BA72CA20BA72C22000C110B302000EC
:10196200A2002630A1006630A000A00BB62CA10B6D
:10197200B62CA20BB62C003208008931C9218C3159
:10198200F1007108F20020005708031DE22C5908EB
:1019920072060319D22CD5017208F1007108D90020
:1019A20008005903031D08000130F1007108D50732
:1019B20006305502031C08000130F1007108D700FF
:1019C2000800590872060319F02CD6017208F100BA
:1019D2007108D9000130F1007108DA0008005903DA
:1019E200031D032D5A08031D032D0130F100710858
:1019F200D50764305502031C08000230F10071085B
:101A0200D40008005908031D08000130F1007108D4
:101A1200D6070B305602031C08004B305502031C3C
:101A2200172D0230F1007108D40008000130F100D6
:101A32007108D40008002000B1012100EB01EC0183
:101A4200BC30F50075082000B200B3012F3033021C
:101A52000318622D3208860087010108F500750817
:101A6200F40031088B313E238D310130F5007508C9
:101A72002000B10721006C082000A10021006B08A2
:101A82002000A0003208860087010108F5007508D1
:101A9200A2008C311D248D31200021082100EC0090
:101AA200200020082100EB000130F500750820001D
:101AB200B2070130F5007508B3072F303302031C5B
:101AC2002B2DEB30F5007508B200B3010230330262
:101AD200031808003208860087010108F50075081E
:101AE200F40031088B313E238D310130F500750849
:101AF2002000B2070130F5007508B1070130F5008A
:101B02007508B307672D2000BC1F892D01308A2D6F
:101B12000030BD003D08C600460803199B2DB909D7
:101B2200BA09BB09BC09B90A0319BA0A0319BB0AE3
:101B32000319BC0A3908BD003A08BE003B08BF00C1
:101B42003C08C0001030C100C037BF0CBE0CBD0C39
:101B5200C10BA52D3E08C8003D08C7004808A500D6
:101B62004708A4008830A6001330A7008E315E26F5
:101B72008D3120002708C5002608C4002508C300AF
:101B82002408C2004508803ABD003C08803A3D0264
:101B9200031DD52D3B084402031DD52D3A084302EF
:101BA200031DD52D390842020318DB2D0130C7076A
:101BB2000030C83D46080319EA2D4709BD0048090F
:101BC200BE00BD0A0319BE0A3D08B9003E08BA00AC
:101BD20008004808BA004708B90008002000B3010D
:101BE200B101B201BC30F5007508B400B5012F3067
:101BF200350203182A2E33088931D5218D31F5009B
:101C02002000340886008701750881000130F50044
:101C12007508B3073208A1003108A0003408860015
:101C220087010108F5007508A2008C311D248D3151
:101C320020002108B2002008B1000130F50075082B
:101C4200B4070130F5007508B5072F303502031CC3
:101C5200FC2DEB30F5007508B400B50102303502F9
:101C620003184E2E33088931D5218D31F50020001D
:101C7200340886008701750881000130F500750877
:101C8200B3070130F5007508B4070130F500750897
:101C9200B50702303502031C332E21006C082000E8
:101CA2003206031D582E21006B0820003106031D49
:101CB2005C2E013008000030080000302000B8001F
:101CC2000030B7000030B6000030B5002408B5007F
:101CD2002508B600890D893B8909B700B800350887
:101CE200A8003608A9003708AA003808AB0010304F
:101CF200A835A90DAA0DAB0D890B792E2B08B800BA
:101D02002A08B7002908B6002808B5002708B40039
:101D12002608B300B001B101B2011030320203183B
:101D2200C42E3335B300340DB400273034021030E2
:101D320003193302031CBC2ED63084008730850081
:101D4200003FA800013FA9003208013EFF3A013ED0
:101D5200103E890AAE2EA835A90D890BAC2E30088B
:101D62002804B00031082904B1003308F03EB30062
:101D7200D830343DB4000130A8002808B207103032
:101D82003202031C922EB81FE02E3508A800360836
:101D9200A9003708AA003808AB003008AC003108A7
:101DA200AD00AE01AF01AC09AD09AE09AF09AC0A95
:101DB2000319AD0A0319AE0A0319AF0AEE2E35084C
:101DC200A8003608A9003708AA003808AB00300876
:101DD200AC003108AD00AE01AF012C08A8072D08F8
:101DE200A93D2E08AA3D2F08AB3D2B08B8002A08B2
:101DF200B7002908B6002808B5003808A700370838
:101E0200A6003608A5003508A400080020002C080A
:101E1200B4002D08B5002E08B6002F08B700103008
:101E2200B800B737B60CB50CB40CB80B122F370884
:101E3200A3003608A2003508A1003408A00030082B
:101E4200B9003108BA003208BB003308BC001030B8
:101E5200BD00BC37BB0CBA0CB90CBD0B2A2F3C0819
:101E6200A7003B08A6003A08A5003908A4008B3158
:101E7200A8238F3120002008BE002108BF002208BD
:101E8200C0002308C1001030BE35BF0DC00DC10D0A
:101E9200890B452F4108C5004008C4003F08C30014
:101EA2003E08C2002C08B4002D08B5002E08B6006A
:101EB2002F08B7001030B800B737B60CB50CB40C09
:101EC200B80B5D2F3708A3003608A2003508A10021
:101ED2003408A000FF303005A400FF303105A50012
:101EE20000303205A60000303305A7008B31A8234D
:101EF2008F3120002008C2072108C33D2208C43DBB
:101F02002308C53D3008B4003108B5003208B600D8
:101F12003308B7001030B800B737B60CB50CB40CA4
:101F2200B80B8D2F3708A3003608A2003508A10090
:101F32003408A000FF302C05A400FF302D05A500B9
:101F420000302E05A60000302F05A7008B31A823F4
:101F52008F3120002008C2072108C33D2208C43D5A
:101F62002308C53DFF30B400FF30B5000030B60095
:101F72000030B700FF302C05A000FF302D05A10076
:101F820000302E05A20000302F05A300FF303005DF
:101F9200A400FF303105A50000303205A600003054
:101FA2003305A7008B31A8238F3120002008B80009
:101FB2002108B9002208BA002308BB001030BC0077
:101FC200BB37BA0CB90CB80CBC0BE12F3808B405FE
:101FD2003908B5053A08B6053B08B7053408C20703
:101FE2003508C33D3608C43D3708C53D4508AF0036
:0E1FF2004408AE004308AD004208AC000800F1
:020000040001F9
:04000E00E4FFFFDF2D
:00000001FF
