:0400000080312928FA
:100008007E14803120007F08F3008B1A0B1D0F2807
:100018008631F12680310B1F1A282100111E1A285B
:100028002000111E1A288631562680310B1F2428DD
:100038002100911E24282000911E24288631AA26FA
:1000480073082000FF007E10090080312B28F6017C
:10005800F701F801F9014A308400003085002430A6
:10006800873131278031A03084000030850031305D
:10007800873131277E1020008431902C2000C60162
:10008800BE01C7012430470603195528780803190B
:1000980046288531FD2580312000B5003508C70088
:1000A80046287808031955288531FD258031200018
:1000B800B5003508C7004708B5003508BE062C301E
:1000C8004706031979284708B50046083F3E8600C9
:1000D8008701350881000130B5003508C6070630AC
:1000E8004602031C55280030080047303F06031D10
:1000F8008D2850304006031D8D2856304106031DBB
:100108008D2854304206031D8D28473043060319B5
:100118008F2800300800C601780803199028853117
:10012800FD2580312000B5003508C7004708B50017
:100138003508BE062C304706031D90287808031999
:10014800A2288531FD2580312000B5003508C7007B
:100158004708B5003508BE062C3047060319C628DF
:100168004708B50046083F3E8600870135088100EC
:100178000130B5003508C60706304602031CA22820
:100188000030080054303F06031946030319CE28EF
:1001980000300800C60178080319CF288531FD25ED
:1001A80080312000B5003508C7004708B50035087C
:1001B800BE062C304706031DCF2878080319E1280E
:1001C8008531FD2580312000B5003508C700470876
:1001D800B5003508BE062C3047060319052947081F
:1001E800B50046083F3E860087013508810001308A
:1001F800B5003508C60706304602031CE128003062
:1002080008004D303F060319460303190D29003035
:100218000800C601780803190E298531FD258031AB
:100228002000B5003508C7004708B5003508BE06E8
:100238002C304706031D0E2978080319202985311B
:10024800FD2580312000B5003508C7004708B500F6
:100258003508BE062C304706031944294708B5005F
:1002680046083F3E86008701350881000130B50009
:100278003508C60706304602031C2029003008004E
:100288004E303F060319460303194C290030080075
:10029800C601780803194D298531FD2580312000D4
:1002A800B5003508C7004708B5003508BE062C302C
:1002B8004706031971294708B50046083F3E8600DE
:1002C8008701350881000130B5003508C6070630BA
:1002D8004602031C4D2900300800C501B901BA01C6
:1002E800BB01BC01B701B70A460845020318DB2960
:1002F80045083F3E860087012E300106031D8629EA
:10030800B701D62945083F3E8600870130300102F3
:10031800031C962945083F3E860087013A300102B2
:10032800031C98290030080037080319B9293A082E
:10033800A1003908A0000A30A2000030A3008631CD
:1003480073268031200045083F3E8600870101085A
:100358002007B50021080318210AB6003508D03E49
:10036800B900FF30363DBA00D6293C08A1003B0849
:10037800A0000A30A2000030A30086317326803125
:10038800200045083F3E8600870101082007B50088
:1003980021080318210AB6003508D03EBB00FF30FB
:1003A800363DBC000130B5003508C50778296430F2
:1003B800A0000030A1003C08A3003B08A200863141
:1003C8007326803120002108BC002008BB00C6012C
:1003D80078080319EC298531FD2580312000B50006
:1003E8003508C7004708B5003508BE062C30470653
:1003F8000319102A4708B50046083F3E86008701C2
:10040800350881000130B5003508C60706304602B8
:10041800031CEC29003008004B303F060319460343
:100428000319182A00300800C601B8017808031912
:100438001A2A8531FD2580312000B5003508C7000E
:100448002A304706031D2A2AB801B80A3808031DAE
:10045800312A4708B5003508BE060D30470603198E
:10046800472A4708B50046083F3E860087013508F9
:1004780081000130B5003508C60706304602031C66
:100488001A2A003008002A304006031D4F2A04307B
:1004980046060319512A00300800BD013A304102CE
:1004A800031C592A4108C93E5B2A4108D03EB500C1
:1004B8003508BD003D08B5000330B535FF3E031DC6
:1004C800612A3535B6003608BD003A304202031CB1
:1004D800702A4208C93E722A4208D03EB500350843
:1004E800BD073E083D06031D8E2A3A08A1003908BB
:1004F800A0003C08A3003B08A20083318923200008
:100508002308E4002208E3002108E2002008E100B3
:10051800013008000030080020002C08B4002D0825
:10052800B5002E08B6002F08B7001030B800B7374E
:10053800B60CB50CB40CB80B9B2A3708A3003608C8
:10054800A2003508A1003408A0003008B90031081D
:10055800BA003208BB003308BC001030BD00BC37FD
:10056800BB0CBA0CB90CBD0BB32A3C08A7003B085E
:10057800A6003A08A5003908A400853184258231EF
:1005880020002008BE002108BF002208C000230860
:10059800C1001030BE35BF0DC00DC10D890BCE2A6C
:1005A8004108C5004008C4003F08C3003E08C20017
:1005B8002C08B4002D08B5002E08B6002F08B70087
:1005C8001030B800B737B60CB50CB40CB80BE62A27
:1005D8003708A3003608A2003508A1003408A00097
:1005E800FF303005A400FF303105A500003032058A
:1005F800A60000303305A70085318425823120000C
:100608002008C2072108C33D2208C43D2308C53D70
:100618003008B4003108B5003208B6003308B70016
:100628001030B800B737B60CB50CB40CB80B162B95
:100638003708A3003608A2003508A1003408A00036
:10064800FF302C05A400FF302D05A50000302E0535
:10065800A60000302F05A7008531842582312000AF
:100668002008C2072108C33D2208C43D2308C53D10
:10067800FF30B400FF30B5000030B6000030B700DE
:10068800FF302C05A000FF302D05A10000302E05FD
:10069800A20000302F05A300FF303005A400FF3072
:1006A8003105A50000303205A60000303305A7004B
:1006B80085318425823120002008B8002108B9003E
:1006C8002208BA002308BB001030BC00BB37BA0CA4
:1006D800B90CB80CBC0B6A2B3808B4053908B50539
:1006E8003A08B6053B08B7053408C2073508C33DC4
:1006F8003608C43D3708C53D4508AF004408AE007C
:100708004308AD004208AC00080000302000B400E7
:100718000030B3000030B2000030B1002008B10052
:100728002108B200890D893B8909B300B40031085A
:10073800A4003208A5003308A6003408A70010302A
:10074800A435A50DA60DA70D890BA42B2708B40069
:100758002608B3002508B2002408B1002308B00019
:100768002208AF00AC01AD01AE0110302E02031813
:10077800EF2B2F35AF00300DB0002730300210308E
:1007880003192F02031CE72BF730840084308500FF
:10079800003FA400013FA5002E08013EFF3A013E9C
:1007A800103E890AD92BA435A50D890BD72B2C0807
:1007B8002404AC002D082504AD002F08F03EAF003E
:1007C800D830303DB0000130A4002408AE07103006
:1007D8002E02031CBD2BB41F0B2C3108A4003208B9
:1007E800A5003308A6003408A7002C08A8002D0887
:1007F800A900AA01AB01A809A909AA09AB09A80A75
:100808000319A90A0319AA0A0319AB0A192C3108F2
:10081800A4003208A5003308A6003408A7002C0855
:10082800A8002D08A900AA01AB012808A4072908D7
:10083800A53D2A08A63D2B08A73D2708B400260891
:10084800B3002508B2002408B1003408A300330817
:10085800A2003208A1003108A00008008731122741
:100868008431F1007108F20020005D08031D562C48
:100878005F0872060319462CDB017208F100710843
:10088800DF0008005F03031D08000130F100710854
:10089800DB0706305B02031C08000130F100710819
:1008A800DD0008005F0872060319642CDC01720879
:1008B800F1007108DF000130F1007108E000080064
:1008C8005F03031D772C6008031D772C0130F100AE
:1008D8007108DB0764305B02031C08000230F1007A
:1008E8007108DA0008005F08031D08000130F100F4
:1008F8007108DC070B305C02031C08004B305B02FC
:10090800031C8B2C0230F1007108DA00080001305A
:10091800F1007108DA0008002100A101A201873165
:1009280006278431043086311C26843122000C11BC
:100938004330F4000730F5008731372784318B17AF
:100948000B1785313F25843100302000E40000304A
:10095800E3000030E2000030E100803142208431C1
:10096800003A0319B12C210020080319DC2C2000BF
:100978006408AF006308AE006208AD006108AC000F
:10098800F330840084308500003FB000013FB1009F
:10099800023FB200033FB30082319022843120002D
:1009A8002F08E4002E08E3002D08E2002C08E100DF
:1009B80022000C15D0302000C900C930C800C80B6F
:1009C800E32CC90BE32C003222000C11B12CD034DB
:1009D800D23402340034E434E13401340034F934DC
:1009E8009E340034003401340034243450344D34FF
:1009F80054344B343334313434342C3430342C3490
:100A080030342C3431342C3430342C3430342C34CD
:100A180030342C3430342C3430342C3430342C34BE
:100A280030342C3430342C3430342C3430342C34AE
:100A380030342C3430342C3430342C3430342C349E
:100A480030342C3430342A34323439340D340A34C6
:100A58000034243450344D3454344B34323432342A
:100A680030342C343134303430342A34323446344F
:100A78000D340A3400342000AB010A302B0203186D
:100A88005A2D0530AA000F30A900F430A800A80B91
:100A98004B2DA90B4B2DAA0B4B2D01302000A80084
:100AA8002808AB070A302B02031C452DF930A1009A
:100AB8008430A20086313926853105302000AA000D
:100AC8000F30A900F430A800A80B682DA90B682DD9
:100AD800AA0B682D2D302000A1008530A200863198
:100AE8003926853105302000AA000F30A900F430DE
:100AF800A800A80B7D2DA90B7D2DAA0B7D2D080024
:100B080000302000AB000030AA000030A9000030FF
:100B1800A800201C972D2408A8072508A93D260809
:100B2800AA3D2708AB3D0130A435A50DA60DA70D9C
:100B3800890B982D0130A336A20CA10CA00C890BAF
:100B48009F2D2308220421042004031D8D2D2B082A
:100B5800A3002A08A2002908A1002808A00008006C
:100B6800043076060319080002307606031DC92DE5
:100B78000130F0007008F70755307702031C0800B1
:100B8800F701043022008C06080003307606031DA6
:100B980008000130F0007008F70714307702031CD2
:100BA8000800F701043022008C060800F500200038
:100BB8006B080319DB2D2100111AE62D7508230097
:100BC8009A00FA2D11127508F40020006C08523EA4
:100BD80086008701740881000130F4007408EC076E
:100BE80008306C020318EC010130EB0221001116E9
:100BF8000800F50123009D1678080319002E21002E
:100C0800911220006A084A3E860087010108F40014
:100C18007408F5000130F4007408EA0708306A0225
:100C28000318EA010130F80221009116750808003E
:100C3800F5007508F4007408F600F7017503031D44
:100C4800282E22000C1108007508031D2E2E2200E4
:100C58000C150800023075060319362E0330750688
:100C6800031D080022000C15080023302000A300F3
:100C78002308A60020002208A4002108A300A10A36
:100C88000319A20A23088400240885000008A50087
:100C98002508A700270803190800270887313D27DA
:100CA80086313E2E083020006B020318702E6D0826
:100CB800523E86008701010823009A000130F000A7
:100CC80070082000ED0708306D020318ED010130AF
:100CD800F0007008EB070800210011120800F40169
:100CE800F5012000201C7C2E2208F4072308F53D7E
:100CF8000130A235A30D890B7D2E0130A136A00C41
:100D0800890B822E20082104031D752E7508A10069
:100D18007408A00008002100911211120830230065
:100D28009F0090309D0024309E0040309B0003308F
:100D38009C002000EC01ED010830F4007408EB0081
:100D4800E901EA01F80121009116080023009D1C21
:100D5800AF2E9D139D171908F000200069084A3E20
:100D680086008701700881000130F0007008E907EB
:100D7800083069020318E9010130F0007008F8072B
:100D8800080022008D018C011F3023008C00F830F0
:100D98008D00203024008C00FF308D00FF302100B2
:100DA8008D00FB308C00951322009D019E010800E8
:100DB80021001508C03917389500643020009500C7
:100DC8006430A0002008F9000B118B164930F4009C
:100DD8000730F5008731372708000B117908200004
:100DE80095000130E5070030E63D0030660202302C
:100DF80003196502031C080087311E272000E5013E
:100E0800E60108008631C5268731873129278731D1
:100E18008631DC26873186318F2608000030200095
:100E28000D180130F0007003031D1C2F003008005E
:100E380001300800200067086804031908006808E2
:100E48008A0067080A00873108007030210099007D
:100E58009A0198011A1B08002E2F640080010131A5
:100E6800890B322F003475082000E8007408E70069
:100E780008002000A00020088531DA250800853107
:0C0E8800B42587318431322408000800B2
:020000040001F9
:04000E00E4FFFFDF2D
:10E0000011002200330044005500660077008800AC
:10E010004900C800000000000000000000000000EF
:00000001FF
